:1000000001C4000037C4000035C4000033C4000040
:1000100031C400002FC400002DC400002BC4000018
:1000200029C4000027C400000C940D2F0C94D92F74
:100030000C94E3291FC400001DC400001BC4000071
:1000400019C4000017C4000015C4000013C4000048
:100050000C941F1C0C945A2A0DC400000BC4000001
:1000600009C4000007C4000005C4000003C4000068
:1000700001C40000FFC30000FDC30000FBC300007B
:10008000F9C30000F7C30000F5C30000F3C300008C
:10009000F1C30000EFC30000EDC30000EBC300009C
:1000A000E9C30000E7C30000E5C3000029001E000B
:1000B0001F0020002100220023002400250026002C
:1000C00027002D002E00310035002B0014001A00EF
:1000D0000800150017001C0018000C001200130087
:1000E0002F0030002A000000E00004001600070086
:1000F00009000A000B000D000E000F003300340051
:10010000000028000000E10000001D001B000600A8
:1001100019000500110010003600370038000000FB
:10012000E5002152E000E300E200000000000000D2
:100130002C00000000000000E600E7006500E4007D
:10014000000035003A003B003C003D003E003F000F
:1001500040004100420043004400450049004C007B
:10016000390001000100010001000100010001004F
:100170004600470048005200010001000000010055
:10018000AA00A900A80001000100010001004A0026
:100190004B0050004F000000010000000100010072
:1001A00001000100010001000100010001004D00FB
:1001B0004E0051000000010001000100010001009B
:1001C000000000000000010000000000000001002D
:1001D0000100010001000000010001000100010018
:1001E0000100010001000100010001000100010007
:1001F00001000100010001000100010001000100F7
:1002000001000100010001000100010001000100E6
:1002100001000000010001000100010001000100D7
:1002200001000100010001000100010001000100C6
:1002300000000100010001000100010001000100B7
:1002400001000100010001000100000001000100A7
:10025000010001000100000000000000010000009A
:100260000000000001000100010001000000010089
:100270000100010001000100010001000100010076
:100280000100010001000100010001000100010066
:100290000100010001000100010001000100010056
:1002A0000100010001000100000001000100010047
:1002B0000100010001000100010001000100010036
:1002C0000100010001000000010001000100010027
:1002D0000100010001000100010001000100010016
:1002E0000000010001000100010001000000000009
:1002F00000000100000000000000010001000100FA
:10030000010000001E0F0500047F3F1F64321464CB
:100310003214783C1E1E140A052223252628292A79
:100320002C2D2F3032333536383A3B3D3E40424358
:100330004547494A4C4E5051535557595A5C5E6097
:1003400062646668696B6D6F71737577797B7D7FA9
:1003500081838587898A8C8E90929496989A9C9EA8
:100360009FA1A3A5A7A8AAACAEAFB1B3B4B6B8B9C4
:10037000BBBCBEBFC1C2C3C5C6C7C9CACBCCCDCE2C
:10038000D0D1D2D2D3D4D5D6D7D7D8D9D9DADADB0F
:10039000DBDBDCDCDCDCDCDDDDDDDDDCDCDCDCDC9B
:1003A000DBDBDBDADAD9D9D8D7D7D6D5D4D3D2D2DA
:1003B000D1D0CECDCCCBCAC9C7C6C5C3C2C1BFBEC2
:1003C000BCBBB9B8B6B4B3B1AFAEACAAA8A7A5A32D
:1003D000A19F9E9C9A98969492908E8C8A898785EC
:1003E00083817F7D7B79777573716F6D6B696866CB
:1003F0006462605E5C5A5957555351504E4C4A499D
:1004000047454342403E3D3B3A3836353332302F44
:100410002D2C2A292826252322FFAA7F55400000BB
:1004200000000000000000000001010203040506B6
:10043000080A0C0F1114181C2024292E33393F46AA
:100440004C535B626A7179818A929AA2AAB2B9C14D
:10045000C8CFD5DCE1E7EBF0F4F7FAFCFDFEFFFED8
:10046000FDFCFAF7F4F0EBE7E1DCD5CFC8C1B9B297
:10047000AAA29A928A8179716A625B534C463F398B
:10048000332E2924201C1814110F0C0A0806050409
:100490000302010100000000000000000000000154
:1004A0000101010101010101020202020202020234
:1004B0000203030303030303030404040404040406
:1004C00005050505050606060606070707070708CA
:1004D000080808090909090A0A0A0B0B0B0C0C0C7D
:1004E0000D0D0D0E0E0E0F0F0F1010111111121217
:1004F00013131414151516161717181819191A1A94
:100500001B1B1C1D1D1E1E1F2020212222232424F4
:10051000252626272829292A2B2C2D2D2E2F303130
:100520003232333435363738393A3B3C3D3E3F4042
:100530004142434445464748494A4C4D4E4F50512D
:100540005354555658595A5B5D5E5F6162646566E7
:1005500068696B6C6D6F7072737577787A7B7D7E6E
:100560008082838587888A8C8E8F91939596989ABE
:100570009C9EA0A2A3A5A7A9ABADAFB1B3B5B7BAD6
:10058000BCBEC0C2C4C6C9CBCDCFD1D4D6D8DBDDAA
:10059000DFE2E4E7E9EBEEF0F3F5F8FAFDFF000047
:1005A0000000000000002A2B2800000000000000CE
:1005B00000000000000000000029000000002C1EC8
:1005C0003420212224342627252E362D3738271E85
:1005D0001F202122232425263333362E37381F04AB
:1005E00005060708090A0B0C0D0E0F101112131443
:1005F00015161718191A1B1C1D2F3130232D350401
:1006000005060708090A0B0C0D0E0F101112131422
:1006100015161718191A1B1C1D2F3130354C0000E8
:1006200000000000000000000000000000000000CA
:1006300000000000000000000000000000000000BA
:1006400000007E0F00D4FFFFFFC7000000781403F6
:100650005300360030002D0058002D005200470096
:10066000420000001003530065006E007400720029
:100670006100710000000403090409025B0003012A
:1006800000A0FA0904000001030101000921110181
:10069000000122440007058103080001090401004C
:1006A00002030000000921110100012222000705B8
:1006B0008203200001070503032000010904020052
:1006C000010300000009211101000122B600070505
:1006D00084032000011201000200000008EDFE600A
:1006E000600100010200010660FF0961A1010962C9
:1006F000150026FF00952075088102096315002664
:10070000FF00952075089102C005010902A101852D
:10071000020901A100050919012908150025019503
:1007200008750181020501093009311581257F9580
:10073000027508810609381581257F9501750881A4
:1007400006050C0A38021581257F9501750881067A
:10075000C0C005010980A101850319012AB7001550
:100760000126B700950175108100C0050C0901A193
:1007700001850419012AA002150126A00295017520
:10078000108100C005010906A1018506050719E0D1
:1007900029E7150025019508750181020507190053
:1007A00029EF1500250195F0750181020508190151
:1007B0002905950575019102950175039101C00503
:1007C000010906A101050719E029E7150025019592
:1007D0000875018102950175088101050719002935
:1007E000FF150026FF009506750881000508190110
:1007F00029051500250195057501910295017503DF
:100800009101C00011241FBECFEFDAE0DEBFCDBFE3
:1008100004B603FE18C08091880390918903A091CB
:100820008A03B0918B038730904BA740B04B59F4AB
:10083000109288031092890310928A0310928B03FE
:10084000E0E0F8E3099511E0A0E0B1E0E2ECF7E6C2
:1008500002C005900D92AA3FB107D9F723E0AAEF95
:10086000B1E001C01D92A838B207E1F70E949A13C7
:100870000C946833C5CB8430B8F46530A8F44F309D
:1008800098F4E42FF0E09FE0699FE00DF11D112442
:100890009BE4899FE00DF11D1124EE0FFF1FE4552D
:1008A000FF4F85919591089581E090E0089581E052
:1008B0000895FDCF0895FBCF0895F9CF0895F7CFA0
:1008C0000895FDCF089508950895FDCF08950895E2
:1008D0000895A6E0B0E0EFE6F4E00C942F324983EF
:1008E0005A839E833091010289819A81311117C008
:1008F0003E81311589F0211579F061D5182F682FC7
:1009000089819A813BD569817A81812F0E94421029
:100910002696E3E00C944B3242D5182FF4CF4FD5F6
:1009200069817A81F3CFFC01262F40815181628158
:10093000738184819581CDCFCF93DF93D82FC92F39
:1009400061E0F1DF6D2F7C2FB4DF811559F061E09C
:100950008D2F9C2FE8DF6D2F7C2FADDF8170DF9115
:10096000CF91089580E090E0F9CF0F931F93CF933C
:10097000DF93D82FC92F60E0D6DF8C016D2F7C2F3D
:10098000A3DF6D2F7C2FC801A0DFDF91CF911F91D6
:100990000F9108950F931F93CF93DF93EC0161E0C4
:1009A000C2DF8C018D8181110E944C1ABE01C801E9
:1009B00084DF811106C080E0DF91CF911F910F91FC
:1009C0000895BE01C8017DDF8115A9F3BE01C801EC
:1009D0000E947925811579F3BE01C8010E944C1B44
:1009E000811549F3BE01C8010E94B124811519F394
:1009F000BE01C8010E94EB1F8115E9F2BE01C801CA
:100A00000E94C01F8115B9F2BE01C8010E94B21335
:100A1000811589F2BE01C8010E94F124811559F2A5
:100A2000BE01C8010E944611811529F2BE01C8010C
:100A30000E945811811509F4BECFBE01C8010E9461
:100A40007111BACF91E001C0990F8A95EAF7892F09
:100A5000EDC3CF93C82F81E00C2E01C0880F0A94FC
:100A6000EAF70E942E0E8C2FEDDFCF91089581E0E2
:100A70000895FDCF0895FBCF0895CF93C82F8CD351
:100A80008C2FF7DF8C2FF7DFCF91089581E0F5DF12
:100A90000C947E2A80E0F1DF0C94A22A18DF0E94D9
:100AA0007B2980E00E942F1B19C00E94881A18D051
:100AB0000FDF0C947F2981E008950895CF93DF9391
:100AC000D82FF9DFC82F811511F08D2FF6DF8C2F6D
:100AD000DF91CF9108950895F1CF089580E0FCCF84
:100AE0000E945D27F9CFCF930E945D27C82F809188
:100AF000FC018C1771F0C093FC010E944E2A609398
:100B0000FD017093FE018093FF01909300028C2FF2
:100B1000E3DFCF910895ADE0B0E0E1E9F5E00C94BA
:100B20003032488759876A877B878C879D879111E8
:100B300077D71F8286E0FE013896DE01119601907C
:100B40000D928A95E1F78D8181110CC029813A813E
:100B50004B815C816D817E818F81AFD62D96E2E0E5
:100B60000C944C32CE010196E7DE8111EFCFF6CF27
:100B7000FC018481813019F48081918148C40895F9
:100B8000611521F00E9454210C940D220E949521A0
:100B9000FBCFCF93C82F8115B9F08238B9F40E94EA
:100BA0006C2781FD11C089E30E94AC28C8D72FEFC4
:100BB00037EE83E0215030408040E1F700C0000074
:100BC00089E30E94C328BBD7CF910895833899F455
:100BD0000E946C2780FDF8CF83E50E94AC28AFD738
:100BE0009FEF21EE34E0915020403040E1F700C00B
:100BF000000083E5E6CF843899F40E946C2782FDDB
:100C0000E3CF87E40E94AC289AD78FEF91EE24E0DF
:100C1000815090402040E1F700C0000087E4D1CF30
:100C20008CEF8C0F813A68F48C2F0E941E2881155E
:100C300021F08C2F0E94C32882D78C2F0E94AC28D1
:100C4000C2CF80E28C0F883040F4C77081E001C0D1
:100C5000880FCA95EAF7C5D6B6CF8BE58C0F8330DF
:100C600038F42C2F2452330BC9010E94A127ACCF9A
:100C7000E8E5EC0FEB3150F4F0E0EE0FFF1FE85C1D
:100C8000FE4F808191810E94C9279ECF83E38C0F04
:100C9000833108F099CF61E08C2F72DF95CF8115F9
:100CA00009F44DC0823861F40E946C2781FF47C06F
:100CB00089E30E94AC2843D789E30E94C3283FC739
:100CC000833851F40E946C2780FF39C083E50E946D
:100CD000AC2835D783E5F1CF843851F40E946C27D6
:100CE00082FF2DC087E40E94AC2829D787E4E5CF96
:100CF0009CEF980F913A08F390E2980F983048F4DF
:100D0000877091E001C0990F8A95EAF7892F6FD615
:100D1000D6CF9BE5980F933020F480E090E00C94C0
:100D2000A12798E5980F9B3120F480E090E00C9487
:100D3000C92793E3980F933110F460E021CF089511
:100D40001F93CF93DF93182FEB0123DF209731F40C
:100D5000812FA5DFDF91CF911F9108958FE99FE04B
:100D60000197F1F700C000002197F0CF60E070E03C
:100D7000893311F460E570E0E3CF811511F031D6CD
:100D8000DEC60895811511F032D6D9C60895A0E0C7
:100D9000B0E0EDECF6E00C942A326C01062FC72F80
:100DA000FC01D581168112951F7010D6F82E811581
:100DB000E9F0FD2ED115D1F08C2F807F803461F0C9
:100DC00080E2800F8830E0F08C2F807E803221F42A
:100DD0000230B0F01115A1F080913B0382FF10C0EA
:100DE00082E0D1D6F3D591E0F82EF926EC2FE295EA
:100DF000EF70C03C78F5F0E0E659FC4C0C94E8311B
:100E0000F12CF4CF1C2F1F70C03110F01295107F01
:100E1000D11581F0111549F080E2800F883010F073
:100E2000011105C0812FDDD58AD6802F41C0812FC9
:100E3000E9D5FACF802F33DF111561F080E2800F02
:100E4000883010F0011103C0812FD1D502C0812F4D
:100E5000DFD575D6F11409F4B2C0B4D580FDAFC0AA
:100E6000F6011582A9D504D2C60167D1A5D50AD24B
:100E7000A6C0FC2FFF70EF2EC07FC03219F0E294A5
:100E800080EFE822011541F0013081F1D11509F41C
:100E900039C01115C9F0C9CF80913B0382FD10C044
:100EA000D11541F0E11419F08E2D9BD548D680E084
:100EB00070DED0CF80E0F3DEE11461F28E2DC5CF7D
:100EC000D11559F0111103C08E2D57DFC3CF11304A
:100ED00009F0C0CF8E2DB9D5BDCF1111BBCF8E2D4E
:100EE00051DF8E2DBDD58E2DA1D5B4CFD11521F0DA
:100EF000163008F0AFCFE8CF153008F0ABCF8E2D0D
:100F000041DFA8CF1115D9F3093349F42FEF87EE4C
:100F100093E0215080409040E1F700C00000802F16
:100F2000BEDE98CF8C2F869586958370811569F0EB
:100F3000813009F08FCF802F9C2F9370D11102C088
:100F400080E090E00E94C92785CF802F9C2F93706E
:100F5000D11102C080E090E00E94A1277BCF6D2FCD
:100F6000802F0EDE77CF8C2F8370811133C0D1118B
:100F700023C0202F229526952770220F220F802F25
:100F80008F70022E01C0880F0A94EAF7602F6071FB
:100F9000611539F06FE070E001C0660F2A95EAF73D
:100FA0006095C695C695C370862BC23079F0C33064
:100FB00079F0C13049F040D10E945D278DDDCDB779
:100FC000DEB7E8E00C94463233D1F6CF39D1F4CF16
:100FD0002DD1F2CFD11531F1C0FFEECF202F2295C8
:100FE00026952770220F220F802F8F70022E01C0AE
:100FF000880F0A94EAF7602F6071611539F06FE08D
:1010000070E001C0660F2A95EAF76095C695C6950F
:10101000C370862BC23059F0C33059F0C13029F06B
:101020004DD1CACF823040F2D9CF44D1C5CF4AD1B9
:10103000C3CF10D1C1CFCF70D11529F08C2F18D1CB
:10104000802F9BDEB9CF802F9DDE8C2F1BD1B4CF9C
:10105000023F21F168F4003FB1F0013F89F1D11561
:1010600009F446C0111509F440C0802F92DDA4CFC9
:10107000033FD1F0043F01F1D111F4CF111146C06B
:101080008C2F8F71E3CFD11539F0153008F094CF44
:101090008C2F8F7105D190CF1630F8CF8C2F8F7198
:1010A000D111D4CFE5D088CFD11521F08C2F8F71FD
:1010B000D8D082CFD4D080CF80913B0382FD06C0B0
:1010C0008C2F8F71D11509F4C1CFECCFD11529F038
:1010D00063E08C2F8F7140D56FCF81E054D51230F3
:1010E00008F46ACF82E04FD567CF8C2F8F71DACFAB
:1010F000111509F4C5CF093349F4EFEFF7EE23E0FA
:10110000E150F0402040E1F700C00000802FC7DD33
:1011100053CF0F931F93CF93DF93EC0168817981B5
:101120008D8180D18C01D2D080D0B801CE012FDE4C
:10113000DF91CF911F910F910895CF93DF93EC0131
:101140008C81811581F0CE0125DC81110FC03ED448
:10115000811549F08D81811531F080913B0382FF2B
:1011600002C082E010D5DF91CF910895CE01D1DF8A
:10117000CE01FBDBF8CF80E090E00E94A12780E069
:1011800090E00E94C9274CD4DAD40E9428220C9403
:101190000D220E94DA28EFCF32D4FBCF282F929570
:1011A0009F70963099F060F4925F9F70923030F4A7
:1011B000203F89F038F481E0283E38F080E008953F
:1011C0009A5FF3CF81E0243FC9F7089581E0283E7C
:1011D000E0F3213FF9CF81E00895FC01848181157E
:1011E00021F08081918113D1D9CF80E00895A6E0CC
:1011F000B0E0EDEFF8E00C9430322696E2E00C948B
:101200004C32A7E0B0E0E7E0F9E00C9430322796EA
:10121000E2E00C944C320895FECF0895FDCF08957E
:10122000FADFFCDF8093210208950895F9CF089535
:1012300090912102892BF4CF909121028923F0CF44
:10124000909121028927ECCFE6CF0895FDCF089534
:10125000E2CF0895FDDFFADF80932002089580E059
:10126000F9CF91E001C0990F8A95EAF7892FF2CF63
:1012700021E030E001C0220F8A95EAF78091200238
:10128000822BE8CF21E030E0A90102C0440F551FB6
:101290008A95E2F7CA018095909120028923DACFDE
:1012A00021E030E001C0220F8A95EAF78091200208
:1012B0008227D0CF90912002892BCCCF9091200211
:1012C0008923C8CF909120028927C4CF08959B011C
:1012D000677091E001C0990F6A95EAF763E036956F
:1012E00027956A95E1F7B901660F771F260F371F1B
:1012F000FA01E20FF31F40E050E0682F70E08191A7
:10130000DF0111979B01042E02C0369527950A94A0
:10131000E2F7217021952827292328272C934F5F56
:101320005F4F4330510559F708959C01A82FA770CE
:1013300083E0369527958A95E1F7C901880F991FB3
:10134000820F931FFB01E80FF91F40E050E080E09F
:10135000219130E00A2E02C0369527950A94E2F7D3
:1013600021703327042E01C0220F0A94EAF7822B42
:101370004F5F5F4F4330510559F70895282F862F4F
:10138000953060F42F3050F4622F70E02FE0929F80
:10139000600D711D112442E052E099CF0895292F6C
:1013A000953058F48F3048F490E062E072E03FE00E
:1013B000239F800D911D1124B8CF80E00895A0E0F7
:1013C000B0E0E5EEF9E00C942B327C0100912002B4
:1013D00080912102082BC3E0D0E010E0C8010C2E60
:1013E00002C0959587950A94E2F780FD09C0219780
:1013F000A8F7D12C8D2DCDB7DEB7E7E00C9447329E
:10140000DC2EB7018C2F49D6019789F3F3CFCF9308
:10141000DF93D82FC92FD3DF6D2F7C2F3ED6DF91DE
:10142000CF9108951F93CF93DF93162FD72F9091CD
:101430000102911539F0862F972FE9DFDF91CF91C7
:101440001F910895811569F0862F972FB8DFC82F57
:10145000682F812F9D2F92DF612F7D2F8C2F1DD61E
:10146000EDCF862F972F9BDFC82FF6CFE1E0F0E07E
:10147000DF0102C0AA0FBB1F6A95E2F7BD01DF01C1
:1014800002C0AA0FBB1F4A95E2F76A2B01C0EE0FFC
:101490002A95EAF7962F9823961302C08E2B08956B
:1014A000E0958E230895242F462F682F80912002E7
:1014B000DDDFD0CE0F931F93CF93E0912202C7E0E0
:1014C000809123028E1304C0CF911F910F91089534
:1014D0000E2F10E0CE9FF0011124EC5DFD4F208116
:1014E0003181428153816481758186818ADEF80170
:1014F0003196E770E5CF20915C0230915D0240911A
:101500005E0250915F026091600270916102809171
:10151000620277CE80916202803178F4809161021C
:10152000811559F0E09122022091230230915D0251
:1015300040915C0257E02E1301C008956E2F70E0B9
:101540005E9FF0011124DF01AC5DBD4F14968C91BC
:101550001497811549F111968C911197831324C02A
:101560008C91841321C015968C91159781111CC004
:1015700012968D919C91A0915E02B0915F028A1BA0
:101580009B0B883C910580F4809162028F70806192
:1015900080936202E65DFD4F80818F708061808361
:1015A0008CE592E0CADD86CFFB013196E770C3CFB0
:1015B000E09122029091230227E0E91302C080E02B
:1015C0000895AE2FB0E02E9FF0011124EC5DFD4F89
:1015D0003181361306C03081381303C0358134138E
:1015E00004C0FD013196E770E8CF81E008958F9245
:1015F0009F92AF92BF92DF92EF92FF920F931F9351
:10160000CF93DF93CDB7DEB72D970FB6F894DEBF3B
:101610000FBECDBF8C0186E0F801DE011896019067
:101620000D928A95E1F7F801E080F580A280B38001
:1016300084819CE5892E92E0992E9091600291110F
:1016400017C0811509F4ECC0F11409F42BC1C801CD
:10165000C4DD811509F426C187E0F801D4010190A9
:101660000D928A95E1F7C40183DA54DF44DFD8C0D4
:10167000D090610220915E0230915F02A501421B71
:10168000530BD11409F4CFC0483C510508F09EC05B
:10169000811509F4C5C090915D029180809162022C
:1016A000803108F065C0991226C090915C029E11AD
:1016B00022C0F11057C08F708061809362021BDFDF
:1016C0008CE592E03ADD80916202F8018683F12C8C
:1016D0008F2D2D960FB6F894DEBF0FBECDBFDF91D4
:1016E000CF911F910F91FF90EF90DF90BF90AF903F
:1016F0009F908F900895F11035C040E0692D8E2D98
:1017000057DF40E0692D8E2D53DFF82E8111DFCF9A
:10171000888599857CDE292F22952F70903450F48E
:101720009F70223078F0911591F0F80196819031F8
:1017300070F4CECF2A5F2F70223070F0C801FDDC2C
:10174000FD2CC6CF911519F0811509F4C1CF805E2B
:10175000883008F4BDCFF2CF803F08F4B9CF815F65
:101760008330F7CF80916202816080936202AFCFB5
:10177000991207C090915C029E1103C0F11409F404
:1017800073C0C8012ADD811509F48CC0F11409F475
:1017900089C080916202803280F020915C02309199
:1017A0005D023A832983BC82AB82909160029D8363
:1017B0001E828F83CE010196C0DC87E0F801ACE584
:1017C000B2E001900D928A95E1F74FCF90916202BD
:1017D000903188F4488559856A857B858C859D85FF
:1017E00006DD8CE592E0A9DC87E0F40111928A9590
:1017F000E9F781DE6CCF811599F020915D0281813E
:101800002813BFCF80915C028E11BBCFF110B9CFEE
:101810009683C80192DC87E0F40111928A95E9F77A
:10182000FF24F39455CF483C510508F03EC0811584
:10183000B9F3F114B9F190915D028181981329C037
:1018400080915C028E1125C08091620280FD18C0DB
:101850008031B0F08683807F803F39F08681982F79
:10186000907F905F8F70892B8683C80166DC87E04C
:10187000F801ACE5B2E001900D928A95E1F7F6CE61
:1018800087E0F801ACE5B2E001900D928A95E1F7AE
:10189000C7CFC801A2DC811190CF80916202816024
:1018A00080936202C80149DCBBCF488559856A85AF
:1018B0007B858C859D859BDC97CFAEE0B0E0E3E631
:1018C000FCE00C942F32288739874A875B876C8726
:1018D0007D878E87CE0108968ADE8115A9F06C85FA
:1018E000611539F0288539854A855B857D858E852A
:1018F00088DC17E0809122029091230289133BC07B
:101900002E96E3E00C944B3287E0FE013896DE0120
:10191000119601900D928A95E1F720912302409152
:1019200022028C85811529F330E0C9010196877068
:1019300099274817190691F097E0929FD001939F3D
:10194000B00D1124AC5DBD4FFE01319601900D929A
:101950009A95E1F780932302ADDDCBCF1DDC109289
:1019600023021092220287E0ECE5F2E0DF011D92F3
:101970008A95E9F7BECF189FC00111248C5D9D4F59
:1019800036DE811509F4BCCFE09122021E9FF001E2
:101990001124EC5DFD4F20813181428153816481AE
:1019A000758186812EDC8091220290E001968770FD
:1019B0009927809322029ECF80918B0286958695EF
:1019C0008695089580918B028770089590918B027F
:1019D000977081E0911101C080E008958091B70275
:1019E00008959091B702982B9093B7020895982F7D
:1019F00090958091B70289238093B7020895109241
:101A0000B70208959091B602982B9093B60208956C
:101A1000982F90958091B60289238093B6020895FD
:101A20001092B60208950895FECF089590918C0209
:101A3000292F2823211529F08095892380938C0252
:101A4000F3CF08950895FECF089590918D02292F28
:101A50002823281721F0982B90938D02F4CF089516
:101A600090918D02292F2823211529F08095892313
:101A700080938D02E8CF089580918D02811521F029
:101A800010928D0280E0DFCF0895CF93DF93C09155
:101A9000B7028091B602C82BD0918D02D11529F0E2
:101AA0000E94FE278111E8DFCD2B8C2FDF91CF9193
:101AB0000895CF93DF93C0910601D0910701E5DF30
:101AC0008883C0910601D091070148E050E063E8A7
:101AD00072E0CE010E94F032892B59F088E0FE01BD
:101AE000A3E8B2E001900D928A95E1F7CE010E9441
:101AF0006E27DF91CF910895CF93DF93C0910401BA
:101B0000D0910501C2DF8983C0910401D091050104
:101B100040E250E063E672E0CE010E94F032892B91
:101B200059F080E2FE01A3E6B2E001900D928A95A1
:101B3000E1F7CE010E947B27DF91CF9108950E94AB
:101B40005627811529F080913A0387FF01C0D4CF31
:101B5000B0CF0895FECF089590913B0392FF0EC041
:101B600098E0899F90011124622B60938B0280DBA7
:101B700080918B02869586958695ECCF79CB1092D5
:101B80008B0280E0E7CF90918B0280958923809330
:101B90008B02282F277021110BC0891749F09091D3
:101BA0003B0392FF05C08695869586956BDBE7CF54
:101BB000089590913B0392FB222720F9281749F0C2
:101BC00080FB92F990933B038AE393E04BD082E051
:101BD000DACF089580913B0382FB882780F991E05A
:101BE0008927E7CF81E0E5CF80E0E3CF60E070E0D8
:101BF000CB0155C460E070E0CB014BD4F7CFA4E03B
:101C0000B0E0E5E0FEE00C94303285D390D31C8246
:101C1000CE010496A3D381E080932102A9D3198237
:101C200084E18A83CE010196B4D31B82CE01039650
:101C3000C2D3AAD60E946125DDDF2496E2E00C948F
:101C40004C32DDCF089579C3089566D381110C9489
:101C50002525089578C3089587C3089589C30895F5
:101C60008CC3089596C308959BC30895A4C3089593
:101C7000A8C30895EEC3089518C40895A6E0B0E07F
:101C8000E4E4FEE00C942E320E94422A8C01809102
:101C9000B8029091B9028017910779F019821A82DF
:101CA0000E94422ABC0149815A8180E090E00E9452
:101CB0008B051093B9020093B8022696E4E00C94C9
:101CC0004A320E944E2A6093BE027093BF028093F4
:101CD000C0029093C1026093BA027093BB028093DA
:101CE000BC029093BD02089508950895FDCF089514
:101CF0000895FEDFFBCF0895FECF08950895FEDF1F
:101D0000FBCF84E491E129D5F0DFF3CF81E00895A2
:101D1000FDCF0895FBCF0895089508950895FCDF41
:101D2000FCDFFCCF92DF811101C08BDF82EC92E0FF
:101D300091DF8AE393E094DF0E942A1D8DDF76DA3B
:101D40008091200283CA0E94392A0E946D2565D4A1
:101D5000E9DF0E9454270E946B050E94AD1C0E947F
:101D6000881A0E947919CBCFA6E0B0E0EAEBFEE03A
:101D70000C942432CDDF81110FC080DF0E945527E3
:101D80000E944D1A0E940B1C0E9449220E9473055A
:101D90002696EEE00C94403251D420E3822E23E0CC
:101DA000922E640110E0F601E190F1906F01812F15
:101DB00087D31F5F153009F44EC0E816F90699F372
:101DC0008091C20281FD85D3A5DF782E10E0812F9E
:101DD00077D37C01F401A190B1904F018A159B0546
:101DE000A1F1A826BF2400E0CC24C394D12CC501C6
:101DF0008C219D21892B01F166246394C7018C21DC
:101E00009D21892B09F4612C711489F0602F812F99
:101E10000E94A32981110BC009831A830E94422AC0
:101E2000BC0149815A8181E0962D0E948B05462D87
:101E3000602F812F0E94BB290F5FCC0CDD1C0F305F
:101E4000B1F6F4013297F182E0821F5F153009F09C
:101E5000BECF37DF93CFE816F90609F0B1CF8DCFAB
:101E60001F93CF93DF931BD1EC01811522E59207DD
:101E700008F050C0811540E5940708F0D9C0803EB5
:101E80009105F8F48D3C910508F0ABC0883A9105B6
:101E900080F4853A910508F096C08130910521F0D3
:101EA0000497813A910550F4CE01DF91CF911F91B3
:101EB0000895885A91094B9708F488C0C0E0D0E093
:101EC000F3CF811550E49507E8F4C11580E2D807F7
:101ED00008F0C7C0C83ED10538F3CE019A958115E8
:101EE0009F4160F78D2F7FD1182FCE019927D7D032
:101EF000212F30E0322F2227E901CC27DF71C82BB8
:101F0000D92BD2CF9927CBD0CC27DF70C82BD92B98
:101F1000D06ACACF803842E59407C8F5803652E5CA
:101F2000950708F067C0C03482E5D807B0F08C2F61
:101F300086958695877020E2829FC0011124C37028
:101F400021E030E0A90102C0440F551FCA95E2F715
:101F5000EA01C82BD92BDC68A7CFC03252E5D507E0
:101F600008F041C08C2F8695869520E2829FC001A3
:101F70001124C37021E030E0A90102C0440F551FB5
:101F8000CA95E2F7EA01C82BD92BDD688DCF803CDA
:101F900052E5950760F48F71C03AD24508F03FC012
:101FA00090E0982F8827EC01C46FD06A7DCF805CC9
:101FB0009245809708F082CFDC2FCC27CC27DF71A9
:101FC000C06FD06A71CFA497D0646ECFC85AD0E0EA
:101FD000CC0FDD1FC259DE4F0990D881C02DD464CB
:101FE00063CFD06561CFCF71D0E0DC2FCC27C16F3C
:101FF000D06A5ACF86958695877020E2829FC0016D
:102000001124C37021E030E0A90102C0440F551F24
:10201000CA95E2F7EA01C82BD92BDA6845CFE3D09D
:10202000C82FD0E0DC2FCC27CC27DF71D0623CCF8B
:102030008F71D9D065E0D695C7956A95E1F7CF70D5
:10204000D0E0DC2FCC27282F30E084FF06C054E0FE
:10205000220F331F5A95E1F73327C22BD32BD069B8
:1020600023CF8D2F8F71BFD0182FCE01992717D076
:10207000212F30E0322F222722273F71282B392BA6
:10208000E901D4CF462F672F753020F44F3010F47C
:102090000C94911D80E090E00895F4DFE1CE803E45
:1020A0009105D1F1C8F48133910509F47FC048F45A
:1020B0008932910509F46FC08A32910509F47DC017
:1020C000089589339105E1F082389105C9F085338F
:1020D000910509F45BC00895843E9105D1F148F45F
:1020E000823E910531F1833E910541F181EE90E010
:1020F0000895863E9105C1F1873E9105E1F108956D
:1021000020913A032370211165C020913B0323FFE6
:1021100014C089E290E0089520913A0320FD43C065
:1021200030913B0330FF09C024FF4EC080E090E0B7
:10213000089520913A0322FDF7CF089520913A03A4
:1021400022FD45C030913B0330FD44C024FFF5CF54
:10215000EDCF20913B0321FFF0CF80913A0384FD26
:10216000E5CF87EE90E0089520913A0323FFE5CF75
:1021700024FDDCCFF6CF20913A0323FD2EC0309111
:102180003B0331FFE3CF84EE90E0089520913A03C2
:1021900025FFD3CFBECF20913A0325FD21C020914A
:1021A0003B0323FFCACF89E390E0089520913A03CF
:1021B00026FFC3CF8AE290E0089520913A0326FFDC
:1021C000BCCF81E390E0089583EE90E0089582EE25
:1021D00090E0089580EE90E0089586EE90E00895F6
:1021E00085E390E0AACF90913A0392FF10C041E0BE
:1021F000282F2471243009F040E031E0282F287185
:10220000283009F030E0431711F02CE0822793FFCB
:1022100010C041E0282F2471243109F040E031E062
:10222000282F2871283109F030E0431711F02CE0F5
:10223000822730913B0330FF10C051E0282F2171DD
:10224000213009F050E041E0282F2871283009F0B2
:1022500040E0541711F029E0822731FF10C041E01F
:10226000282F2171213109F040E031E0282F287119
:10227000283109F030E0431711F029E0822794FF5C
:1022800002C083FD877E089580E00895CF939C016E
:10229000FB01805E9245C1E0809738F4C581C11191
:1022A00004C0822F8F710E9429058C2FCF91089531
:1022B0009C01FB018581811591F02B35FCE73F07DF
:1022C00061F02C359CE7390729F02A353C4741F469
:1022D00089DC01C07FDC80E0089586DCFCCF81E0F2
:1022E00008959C01FB018581811599F02130FCE75F
:1022F0003F0761F023309CE7390739F021153C474F
:1023000049F40E94460580E008959DDC0E944A053C
:10231000FACF81E00895089580E090E00E940A33AA
:102320009C0181E0233E3E4F09F080E0089563EE7A
:102330007EEF80E090E00C9438336FEF7FEF80E029
:1023400090E00C943833CF93DF93EC0182E090E07F
:102350000E94FD328883DF91CF910895FC01608156
:1023600082E090E00C941E3383E090E00C94FD3208
:10237000682F83E090E00C941E33CF93DF93EC0141
:1023800084E090E00E940A3399838883DF91CF91A3
:102390000895FC016081718184E090E00C943833F1
:1023A000CF93DF93EC0186E090E00E94FD328883BA
:1023B000DF91CF910895FC01608186E090E00C945C
:1023C0001E338F929F92AF92BF92CF92DF92EF9285
:1023D000FF920F93CF93DF93EC0188E090E00E948F
:1023E00005334B015C01C12CD12C760168839982A5
:1023F000AA82BB821C821D821E821F8283E290E021
:102400000E94FD32282F30E040E050E060E070E0B4
:1024100080E090E000E20E945732282939294A29B9
:102420005B296C297D298E299F29288339834A833A
:102430005B836C837D838E839F83DF91CF910F912C
:10244000FF90EF90DF90CF90BF90AF909F908F90D4
:1024500008950F93CF93DF93EC01488159816A81EE
:102460007B8188E090E00E943033288139814A8165
:102470005B816C817D818E819F8100E20E9472323E
:10248000622F83E290E00E941E33DF91CF910F9183
:102490000895AB01BC018FE090E00C943033AB01A8
:1024A000BC0183E190E00C943033682F8EE090E023
:1024B0000C941E330895FECF08950895FECF08951D
:1024C000E82FF0E0EE0FFF1FEA5BFC4F8081918167
:1024D0000895089580EA8A95F1F7089500C0089557
:1024E000F9CF0895F894E82FE295EF70F0E041A15C
:1024F0008F7021E030E0B90102C0660F771F8A9526
:10250000E2F7CB01962F9095942391A392A1892B6A
:1025100082A3789408950F931F93CF93DF93C3EB17
:10252000D1E089918F3F09F0DDDF81E0C83BD8071A
:10253000C1F7C4EAD1E003EB11E089918F3F09F0C4
:10254000D1DF0C171D07C9F7DF91CF911F910F91B4
:102550000895A0E0B0E0EFEAF2E10C942932EC013A
:10256000B62E062F10E0C8018D549E4F7C01FC0151
:1025700080818F3F09F44CC0F894E82FE295EF700A
:10258000F0E091A18F7021E030E001C0220F8A9528
:10259000EAF7892F822B81A382A12095282322A3E9
:1025A00078949CDFE4EAF1E041E050E0C12CD12CCA
:1025B00021912F3F89F0A22FA295AF70A05EB0E0CD
:1025C0008C9190E02F7002C0959587952A95E2F73F
:1025D00081709A01811511F020E030E0C22AD32ADF
:1025E000440F551F81E0E33BF80711F7F7018081A5
:1025F0008F3F09F077DF61E0C114D10409F460E096
:102600008B2D6EDF000F111FC00FD11FD982C88222
:10261000CDB7DEB7E9E00C9445327DDF8AE0E6E431
:10262000F3E0DF01982F1D929A95E9F7ECE3F3E0D0
:10263000DF011D928A95E9F73AD03DCFAAE0B0E0DC
:10264000E4E2F3E10C942D32FE0131968AE0DF01E1
:102650001D928A95E9F710E0FE2E0F2F612F8F2D26
:10266000902F77DF1F5F1530C9F74AE050E06F2DDC
:10267000702F8CE393E00E94F03241E0892B69F4E3
:1026800040E066E473E08CE393E012D0182F16DF8D
:10269000812F2A96E5E00C9449328AE0EF2DF02F45
:1026A000ACE3B3E001900D928A95E1F7EACF08958B
:1026B000EF92FF920F931F93CF93DF93F82E092F82
:1026C000162FD72FC42F411579F081E08093C502D2
:1026D0000E94422A9093C4028093C30280E0CDB747
:1026E000DEB7E6E00C944832E090C502E114B1F3A5
:1026F0008091C3029091C4020E94D329059770F380
:102700004AE050E06F2D702F812F9D2F0E94F032F4
:10271000892B51F08AE0EF2DF02FA12FBD2F0190D2
:102720000D928A95E1F7CE2D1092C5028C2FD7CF4E
:102730001BCB08950E94DC290E94152CE2DA0E942E
:102740002D2C01DB0E94362C0E94392CF1DF0E94D7
:102750004F2C0E94FE2AE3DAF7CF9093FB0180937F
:10276000FA010895CF93DF93EC01FB01858181117C
:1027700004C081E0DF91CF91089530D98272FE01CB
:10278000E052F847EB30F105A0F7EA58FC4C0C9406
:10279000E831A7D580E0EECF811521F096D5FACFAC
:1027A0008115E1F387D5F6CF811521F04ED2F2CF16
:1027B0008115E1F340D2EECF811521F060D2EACF4E
:1027C0008115E1F34FD2E6CF811521F072D2E2CF2D
:1027D0008115E1F361D2DECF811521F009D1DACF85
:1027E0008115E1F3F6D0D6CFA0E0B0E0EAEFF3E157
:1027F0000C942A32E82F71110DC0411521F0F0E040
:10280000E256FB4F8491682F782FCDB7DEB7E8E012
:102810000C944632262F30E0C72FD0E0F0E041156F
:1028200021F0E256FB4FE491F0E086E0829F7001D8
:10283000839FF00C11240FEF10E0C701B8010E9434
:102840009F31AB01220F331F65E5649FC001659F77
:10285000900D1124281B390B622F660F620FC801DF
:102860008C1B9D0B8E9F90018F9F300D9E9F300D76
:102870001124832F6C9F60016D9FD00C1124CD2CEF
:10288000DD24D801AC19BD096D01CE9ED001CF9ECB
:10289000B00DDE9EB00D11246801C61AD108B60134
:1028A0006C9F60016D9FD00C7C9FD00C1124CD2CAF
:1028B000DD240C191D090E9FE0010F9FD00D1E9FF6
:1028C000D00D11247D2F6E2F43305105D1F09CEF98
:1028D000E91693E0F90658F441305105B1F0423061
:1028E000510509F092CF632F8D2F7E2F8ECF44306C
:1028F000510571F04630510509F487CF732F8B2FA6
:1029000084CF7B2F632F8E2F80CF7E2F6B2F7DCF99
:102910006D2F732FF8CF41E067CF0895FCCF089556
:1029200090910B01291B922FE091E501F091E601B6
:10293000242F462F682F892F90E009950895CF9373
:10294000DF93982F762F842FD22FC32F692FE6DFA6
:10295000962F672F482F2D2F3C2F892FE1DFDF91F6
:10296000CF91089580915003843028F4837084605F
:102970008093500308958C3AE8F38370886AF8CF07
:10298000F1DF80E593E076C9E0E5F3E085E0808360
:1029900011828FEF828383831482CF016BC9809170
:1029A000500380FF03C086958695089580E00895C2
:1029B000809150038170089590915403933018F4DE
:1029C0009F5F90935403811519F080E593E052C9FD
:1029D000089581E0F1CF90915403911519F0915031
:1029E00090935403811519F080E593E043C908954D
:1029F00081E0F1CF809154030895809354030895AA
:102A0000809151030895809152030895809153035A
:102A100008950F931F93CF938091500380FF09C0B7
:102A2000E091E901F091EA010995CF911F910F9191
:102A30000895C0910D010091E5011091E60180918A
:102A40000E01C81768F780910B019C2F981B892FE6
:102A500020E040E060E090E0F8010995CF5FEFCF23
:102A6000EF92FF920F931F93CF93DF93D82F162FE0
:102A7000042F8091500380FF0BC0C0910D01E090A6
:102A8000E501F090E60180910E01C81730F0C1DF3A
:102A9000CDB7DEB7E6E00C94483280910B019C2F55
:102AA000981B892F202F412F6D2F90E0F70109955A
:102AB000CF5FE9CF982F762F842F2091500320FFEE
:102AC00007C0692F2BDF962F672F482F892FC8CF7C
:102AD0000895CF93DF93EC01EC81F0E0E75EFC4FCB
:102AE0004491E0E5F3E062818181E4DF8C818F5FD6
:102AF0008C83DF91CF910895CF93DF93EC01E0E5D4
:102B0000F3E0438162818C81D5DF8C818F5F8C8380
:102B1000DF91CF910895CF93DF93EC019091530310
:102B20004C81842F81708111892F642F6270611113
:102B3000692F44704111492F93DF8C8190E00196F9
:102B4000877099278C83DF91CF910895A0E0B0E042
:102B5000ECEAF5E10C942A32182FF62E042FD22E2F
:102B60009091500390FF21C0E92FE695E695AE2F96
:102B7000B0E0A854BE4F8C91809301039C7F9430A9
:102B8000C9F4612F7F2D842FC9DE962F672F482F20
:102B9000892F66DF10935103F09252030093530381
:102BA000D11419F080E593E065D8CDB7DEB7E8E041
:102BB0000C944632823019F400915303EBCF8630E7
:102BC00019F410915103E6CF8930D9F3893111F707
:102BD000E9518E2F8170C82EE695F0E0E75EFB4F3D
:102BE000E491E12CCE2FD0E060910F01E61610F0B9
:102BF00010DFD0CF2E2D30E0EC9EC001ED9E900D69
:102C0000112470E00E949F31812FC1100AC0860FED
:102C100090910D01290F311D402F6F2D90DEE3940F
:102C2000E3CF861BF5CF282FE0E5F3E081814381D8
:102C30006281885F8BCF81E0F6CF282FE0E5F3E05B
:102C4000818143816281885081CF81E0F6CF282F36
:102C5000E0E5F3E0628138E0630F08F46FEF438151
:102C6000818174CF81E0F3CF282FE0E5F3E062812A
:102C700038E0631B08F460E04381818167CF81E025
:102C8000F3CF282FE0E5F3E0438138E0430F08F469
:102C90004FEF628181815ACF81E0F3CF282FE0E5A9
:102CA000F3E0438138E0431B08F440E06281818116
:102CB0004DCF81E0F3CF20E049CFEF92FF921F93F9
:102CC000CF93DF93EC0110E0EE24EA94F12C6091B5
:102CD0000F01161768F09DDE9A818C8190FF1DC050
:102CE0008F5F8C83DF91CF911F91FF90EF900895BC
:102CF00020910D01210F3327331F70E0C7010E947F
:102D0000B331962F8C814091530360915203199FE8
:102D1000800D112414DE1F5FDACF8150E2CFAF9215
:102D2000BF92DF92EF92FF920F931F93CF93DF93A7
:102D3000FC018281D1E080FDDFEFC0E0E090E501A1
:102D4000F090E60180910F01C817B8F062DE809123
:102D5000C702D13009F052C0811102C080910F0129
:102D600081508093C702DF91CF911F910F91FF9007
:102D7000EF90DF90BF90AF90089580910D019091FA
:102D80000B01891B8C0F20E040E060E090E0F70130
:102D9000099504E010E0D12CAC2EB12C8091C70233
:102DA0008D0D8B302CF16AE00E949231892F082E14
:102DB000001C00088A150B04A9F480910D019501EF
:102DC000280F311D80915303809FA001819F500DDA
:102DD00011245595479555954795609152038091DB
:102DE0005103ADDDDD0E01501040C1F6CF5FAACF1B
:102DF00087FFDDCF90910F01890FD9CF90E0019629
:102E000060910F0170E00E94B331ABCF0F931F931D
:102E1000CF93DF93C0910D010091E5011091E60180
:102E200080910E01C81750F110E0C091E501D091DA
:102E3000E60160910F01161770F1EBDD8091090139
:102E40009091C602980F9093C60220910A01280F14
:102E500020930A01121654F420910F012150330BD4
:102E6000092E001C0008921703061CF08195809320
:102E70000901DF91CF911F910F91089580910B016E
:102E80009C2F981B892F20E040E060E090E0F80143
:102E90000995CF5FC5CFE12FF0E070E0CF010E9430
:102EA000B33120910D01820F9091C602092E001CB2
:102EB0000008E917F0059CF090910A01092E001C0A
:102EC00000089E170F065CF0282F30E04091530356
:102ED000609152038091510332DD1F5FAACF909120
:102EE0000B01891B20E040E060E090E0FE010995C5
:102EF000F4CFA6E0B0E0EFE7F7E10C942A328D833F
:102F00009E83AD81BE811496FC912F2F30E0D901B4
:102F10000E94FB319B01AC010E9410326B017C01CD
:102F200080E290E09C012F1B3109F901A5E5B0E09A
:102F3000A70196010E94103269837A838B839C8358
:102F40009F01DF010E94F5319B01AC010E941A3202
:102F50009B01AC012C0D3D1D4E1D5F1D69817A81C9
:102F60008B819C810E94C631022F30E00A3240F5ED
:102F7000A901440F551F420F531F55954795142F14
:102F80001095F12C85E5E82EE01A80910F01F816D6
:102F900028F13FDDAD81BE8114969C9181E09115B1
:102FA00019F0903219F48FEF809308018091080195
:102FB000890FED81FE8184832696E8E00C944632E9
:102FC00085E590E0821B930BAC01440F551F480F21
:102FD000591F57FFD2CF4F5F5F4FCFCF8E2DF1FCE0
:102FE000802F20910D012F0D3327331F412F60912A
:102FF0005203A5DCF394C9CF0F931F93CF93DF93B4
:10300000EC0100E010E090910F010917110564F048
:1030100000DD8C8190E00196817099278C83DF918F
:10302000CF911F910F9108954C8180910D019801CE
:10303000280F311D60915203809151039695091715
:10304000110544F4411541F04091530378DC0F5FC2
:103050001F4FD9CF4115C1F340E0F8CFA0E0B0E059
:10306000E4E3F8E10C942232FC016280448081E0C8
:103070008483E9E1F3E07490E8E9F3E0E491C0913E
:103080005303C695C158D0E0CC0FDD1FCD2FDD27EF
:10309000812C25E0922EAA24AA94B12C55245A946E
:1030A000E719EE2EF12C80910F01881630F0B1DC7B
:1030B000CDB7DEB7E0E10C943E32C82CD12C83E0D2
:1030C000681668F49C9CF0019D9CF00D1124E85357
:1030D000FD4F809151038083809152038183411081
:1030E0001BC09C9CF0019D9CF00D1124E853FD4FEA
:1030F0001382128280910D019601280F311D9C9C34
:10310000F0019D9CF00D1124E853FD4F4281618137
:10311000808115DC8394C7CF9C9C80019D9C100D01
:10312000112408531D4FF80183818115F1F081505E
:103130008383589EC0011124648170E00E949F31F6
:10314000FB01FF27E75EFC4F8491E82FE7195E9EA5
:10315000C0011124B7010E949F3180915303689FE1
:10316000B0011124F8017283C5CF0E94D532B50198
:103170000E94B3318C179D070CF0BCCFF3E06F16A3
:1031800098F00E94D532B5010E94B331F8018083D6
:103190000E94D532209152032695622F70E00E9442
:1031A000B331280FF80121839C9CF0019D9CF00D08
:1031B0001124E853FD4F128280915303893C58F04B
:1031C00088EC9C9CF0019D9CF00D1124E853FD4F70
:1031D000848383838FCF8431A0F784E1F2CFE0E54D
:1031E000F3E080818E7F8083CF010E943A0E10929F
:1031F00002030FCCE0E5F3E080818E7F80831092A4
:10320000020307CC609150036695669570E04BE031
:1032100050E080E191E00E94E332892B19F481E0D3
:10322000809302030E94422A9093FB028093FA0249
:1032300008959091500390FF2CC0811559F18B3265
:1032400058F58F73880F880F909150039370892BD6
:1032500080935003611521F080E593E00E943A0EBF
:10326000609150036695669570E04BE050E080E118
:1032700091E00E94E332892B89F01092020381E0F1
:103280008093FD024091530360915203809151035A
:1032900012CD089581E0D6CF8AE2D4CFB3DFEFCF4D
:1032A000682F80915003869586958F5F8B3208F04A
:1032B00081E0BFCF81E0F4CF682F809150038695E5
:1032C00086958A9509F48AE2B4CF81E0F5CF61E072
:1032D000B0CFE0E5F3E080818160808386958695BC
:1032E000F6CF8091500380FF01C079CFF2CF60E02C
:1032F000A0CF8091000381111FC080E593E00E9460
:10330000380E80915003843028F43EDB80E593E052
:103310000E94380E27DB10920203E091E301F09146
:10332000E40109958091500380FF03C0869586953E
:10333000DEDF81E0809300030895E0E5F3E0808123
:103340008160808386958695D2CF8091500380FFDF
:1033500001C050CFF2CF0F931F93CF93DF93809193
:1033600002038115C1F180910103E0915003E695BC
:10337000E695E81BE093FC02823091F5F0E0EB5E0D
:10338000FC4FE491CE2FD0E009E615E18091FD02DB
:10339000811561F01092FD020E94422A9093FB0277
:1033A0008093FA021092FF021092FE020E94422ABB
:1033B0002091FA023091FB02821B930B8F3F9F47B3
:1033C00050F42C0F3D1F3093FB022093FA028AEF3A
:1033D00092E0F8010995DF91CF911F910F91089527
:1033E000C8E2D0E009E717E1883181F2C0F48F30FC
:1033F00009F43AC048F4863021F1893059F1C0ED22
:10340000D7E00DE814E1C2CF8531C9F7F0E0E75FFE
:10341000FC4FE491CE2FD0E006E017E1B7CFC4EF28
:10342000D1E00CEF17E1843209F4B0CF853231F1ED
:10343000833229F7E7E0F3E0C591D5910BE815E178
:10344000A5CFF0E0EE5EFC4FE491CE2FD0E00CE78C
:1034500015E19CCFE695F0E0E15FFC4FE491CE2FC3
:10346000D0E00DE516E192CFE695F0E0E45FFC4F89
:10347000E491CE2FD0E00FE816E188CF8E2F63E0E5
:103480000E948631E92FF0E0EC5FFC4FE491CE2FF3
:10349000D0E00EE218E17ACF08955DCF089588E577
:1034A00093E00C94360E8DE18093580388E593E009
:1034B0000C94360E809158038695869586950895CE
:1034C0008091580381FD08C082608093580388E58D
:1034D00093E00E94360EA0C108958091580381FFA9
:1034E00008C08D7F8093580388E593E00E94360ED4
:1034F0009FC108958091580381FF01C0EECFE0CFB6
:103500008091580386958170089580911B010895DC
:1035100088E593E00E94340E8091580382FFC3DF58
:1035200080915803803220F087708861809358031F
:1035300090915803892F8170811521F0892F8695EC
:103540008695869545C190915803892F86958695D5
:103550008695983140F48F5F880F880F880F977099
:10356000892B80935803809158038160809358037E
:1035700088E593E00E94360E8091580386958695E3
:10358000869526C180915803883088F088508093B2
:10359000580391E0883008F490E08091580390FB44
:1035A00080F98093580388E593E00E94360E80915D
:1035B00058038695869586950BC18091580380FDAA
:1035C00012C0816080935803813019F489E08093A0
:1035D000580388E593E00E94360E80915803869543
:1035E00086958695F5C008958091580380FF09C09F
:1035F0008E7F8093580388E593E00E94360E80E02A
:10360000E7C008958091580380FF01C0EDCFD5CF6A
:10361000809158038695869586958F5F8F7184304B
:1036200008F080E0880F880F880F909158039770FA
:10363000892B8093580391E0883008F490E08091C2
:10364000580390FB80F98093580388E593E00E942B
:10365000360E80915803869586958695B9C084303C
:1036600008F083E0209158032770982F990F990F45
:10367000990F922B9093580321E0983008F420E0A2
:103680009091580320FB90F990935803A1C0E7DF75
:1036900088E593E00C94360EFC01DB0115968C91C5
:1036A0008115C1F0F857E730F105A8F4EF57FC4C4D
:1036B0000C94E83183E0EBDF80E0089580E0FBCFFD
:1036C00061DFFACF40DFF8CF9DDFF6CFA1DFF4CF87
:1036D00011DFF2CF81E00895A0E0B0E0E2E7FBE186
:1036E0000C9426328C0180918600909187006CE0CA
:1036F00070E00E949F316017710768F0C80169E0AF
:1037000070E00E949F31262F972F822FCDB7DEB712
:10371000ECE00C9442328091860090918700E0901A
:103720008600F0908700C0908600D0908700C6E0A9
:10373000D0E0BE010E949F3120E030E0060F171F4D
:10374000211D311D4801590185E0880C991CAA1CD6
:10375000BB1C8A95D1F7C701BE010E949F31E12CA5
:10376000F12CA7019601260F371F411D511DC501E0
:10377000B4010E94C63169017A01E0918600F0919E
:103780008700CA01B9010E9477319B01AC01DF01BA
:103790000E9410329B01AC01C701B6010E94773133
:1037A000DC01CB012FE0B695A795979587952A95D3
:1037B000D1F72091860030918700281739071A0623
:1037C0001B0620F48091860090918700282F9DCFC2
:1037D0008430E0F481111BC090918000977F90931A
:1037E0008000A0918600B0918700282F30E00E94D1
:1037F000FB3123E030E040E050E00E94C631C901D7
:103800006BDF90938D0080938C00089583E09091FE
:1038100080009860E4CF089510920403109203038F
:1038200010920503EFE6F0E08081816080830895C7
:10383000EFE6F0E080818E7F80833CDEC9CF1F926F
:103840000F920FB60F921124EF92FF920F931F93D6
:103850002F933F934F935F936F937F938F939F9398
:10386000AF93BF93CF93EF93FF9380911C0182306E
:10387000C9F08F5F80931C01FF91EF91CF91BF91B1
:10388000AF919F918F917F916F915F914F913F91F8
:103890002F911F910F91FF90EF900F900FBE0F90FF
:1038A0001F90189581E080931C012FDEC82F009196
:1038B0000303109104030F5F1F4F27DE28E7289FA3
:1038C000B0011124C8010E949F319093040380939A
:1038D00003032C9FB0011124660F672F661F770B1F
:1038E00071950E949F318091050367FF2EC06FE79D
:1038F000813029F480916F008E7F80936F00E62FD6
:10390000F0E0E25EFB4FC491E0908600F09087000B
:10391000D1DD182F2C2F30E0D7010E94FB312FEF83
:1039200030E040E050E00E94C631C90163E070E041
:103930000E949F31169FC001179F900D1124CCDE6D
:1039400090938D0080938C0097CF823011F4603477
:10395000D0CF8130A1F66F37CCCF279A2F988AE04D
:103960008093800089E1809381008FEF9FEF909397
:10397000870080938600CCDDC3DD81114DCF089593
:103980000C94F1270895869A0895FC01EE0FFF1F0D
:10399000E80FF91FE75AFC4F6183408322830895A3
:1039A000FF920F931F93CF93DF93182F062FF42EC0
:1039B000C0E0D0E02F2D402F612FCE01E6DF219611
:1039C000CA30D105B9F7CDB7DEB7E5E00C9449327E
:1039D00031B33F7B21B320644FB7F89489E593E07E
:1039E000FC010196508168E021BB000000C057FF38
:1039F00031BB550F000000C000C000C031BB00C08B
:103A00006A9591F753E08737950751F74FBF8FE5D8
:103A100094E00197F1F700C0000008950C94230E84
:103A2000089580E00E946012817008950E941E1324
:103A30002FEF86E791E0215080409040E1F700C0F1
:103A400000000E941E13EDDF811519F0E7DF0C94D2
:103A50007E2A0895EBCF0895A1E0B0E0E2E3FDE116
:103A60000C942C327C01FC016081718182819381F4
:103A70008E010F5F1F4F21E030E040E050E09BD10E
:103A8000F70180819181A281B3810196A11DB11DB1
:103A900080839183A283B38389812196E6E00C948D
:103AA000483284E00895D3C0089500C108951F935B
:103AB000CF93DF93CAD0D0E0C0E010C0412F6C2F6D
:103AC0008D2F0E943B049C01412F6C2F8D2FEED037
:103AD0001F5F1F3099F7CF5FC53011F010E0EECFB8
:103AE000DF5FD43049F7DF91CF911F9108950F9395
:103AF0001F938A019B0140E050E0BC0180E090E010
:103B0000FCD01F910F9108950F931F938A019B0181
:103B100040E050E0BC0180E090E01CD11F910F918B
:103B20000895843028F4653018F44F3008F48FC0BD
:103B300080E090E0089580E1089538D1CB010895A8
:103B40000F931F938A019B0140E050E0BC0180E08D
:103B500090E031D11F910F9108950F931F938A0127
:103B60009B0140E050E0BC0180E090E068D11F91F3
:103B70000F9108956BD0A6C14F925F926F927F9282
:103B80009F92AF92BF92CF92DF92EF92FF920F93EC
:103B90001F93CF93DF9300D000D0CDB7DEB7B82E00
:103BA00020E1821730F502D1615071098109910934
:103BB0009E012F5F3F4F7901890121E030E040E015
:103BC00050E0F9D089819E2CAF2C811112C0EED02B
:103BD0002B013C01C12CD12C7601B1101EC0C98231
:103BE000DA82EB82FC8240E0692D7A2D8CE29DE145
:103BF000D5D50F900F900F900F90DF91CF911F911F
:103C00000F91FF90EF90DF90CF90BF90AF909F907B
:103C10007F906F905F904F9008954C145D046E04F8
:103C20007F0439F3092D1A2D21E030E040E050E007
:103C3000C701B601C0D089813FEFC31AD30AE30A96
:103C4000F30A8111EACFBA94C8CF089508950F936B
:103C50001F93CF93DF93843030F5653020F54F30DC
:103C600010F5C42FD0E0CC0FDD1F2EE1629FC00DF8
:103C7000D11D112436E9839FC00DD11D1124CE0121
:103C800089960E94FD32082F10E0102F0027CE01E8
:103C90008A960E94FD329801282BC901DF91CF91AD
:103CA0001F910F91089580E090E0F8CF1F93CF937C
:103CB000DF93962F122F632F8430D8F49530C8F4F9
:103CC0004F30B8F4C42FD0E0CC0FDD1F2EE1929F0F
:103CD000C00DD11D112496E9899FC00DD11D11245D
:103CE000CE0189960E941E33612FCE018A960E94D2
:103CF0001E33DF91CF911F910895A0E0B0E0E3E87B
:103D0000FEE10C9426326B017C01E801460157016B
:103D1000820E931EA41EB51E8C149D04AE04BF0417
:103D200029F4CDB7DEB7ECE00C94423288E5C81632
:103D300082E0D806E104F10458F4C60189960E9495
:103D4000FD3289938FEFC81AD80AE80AF80AE4CF3F
:103D500080E0F7CFA0E0B0E0E0EBFEE10C9426328B
:103D60006B017C01E80146015701820E931EA41EDF
:103D7000B51EC814D904EA04FB0429F4CDB7DEB794
:103D8000ECE00C94423288E5C81682E0D806E104E3
:103D9000F10428F46881C60189960E941E33219699
:103DA0008FEFC81AD80AE80AF80AE3CF6FE771E084
:103DB00080E090E008954F925F926F927F92AF9271
:103DC000BF92CF92DF92EF92FF920F931F93CF9308
:103DD000DF936B017C0129013A0158018B010F57D8
:103DE0001D4FC0E0D0E0CE01A0E0B0E0C415D50585
:103DF0001604170478F0DF91CF911F910F91FF9077
:103E0000EF90DF90CF90BF90AF907F906F905F90DA
:103E10004F9008958C0D9D1DAE1DBF1D8F37914095
:103E2000A105B10550F4C8018C0F9D1F0E94FD3201
:103E3000F50181935F012196D6CF80E0F9CF4F92B3
:103E40005F926F927F92AF92BF92CF92DF92EF928A
:103E5000FF920F931F93CF93DF936B017C01290196
:103E60003A0158018B010F571D4FC0E0D0E0CE0141
:103E7000A0E0B0E0C415D5051604170478F0DF9172
:103E8000CF911F910F91FF90EF90DF90CF90BF9057
:103E9000AF907F906F905F904F9008958C0D9D1D17
:103EA000AE1DBF1D8F379140A105B10548F4F50146
:103EB000EC0FFD1F6081C8018C0F9D1F0E941E33F7
:103EC0002196D5CF4F925F926F927F92AF92BF9221
:103ED000CF92DF92EF92FF920F931F93CF93DF93D6
:103EE000CDB7DEB760970FB6F894DEBF0FBECDBF7B
:103EF0001A821982FE0133968EE0DF011D928A95A7
:103F0000E9F708E110E09FE7492E55245394612C0E
:103F1000712C21E8A22E22E0B22E73016201B1E1E0
:103F20004B165104610471041CF080E1C82ED12CA1
:103F3000A601B501CE0101960E940F33AC0CBD1C49
:103F40000D2C000CEE08FF084C185D086E087F0869
:103F50000150104011F760960FB6F894DEBF0FBE07
:103F6000CDBFDF91CF911F910F91FF90EF90DF9028
:103F7000CF90BF90AF907F906F905F904F900895DB
:103F8000CF93DF93EB0186319C4719F50E94EE0C2D
:103F90009D819115A1F08A7A91E0811101C090E094
:103FA00090930603811549F085E30E94AC280E9496
:103FB0009F0D80E0DF91CF91089589E2F6CF809147
:103FC0000603811521F085E30E94C328F0CF89E222
:103FD000FBCF81E0EFCFCF93DF93EC01FB01858135
:103FE000811509F4CDC09E0130572332310508F008
:103FF000ADC08AE393E00E94300EFE01E150F0472D
:10400000E232F10520F4E857FC4C0C94E831809141
:104010003A03816080933A0392C080913B038860A9
:1040200080933B038CC080913A038260F3CF8091F0
:104030003A038460EFCF80913A038860EBCF8091A0
:104040003B038160EDCF80913B038260E9CF80919B
:104050003A038061DFCF80913A038062DBCF8091A9
:104060003A038064D7CF0E94CC0880913A038068DD
:10407000D1CF80913A038C60CDCF80913B03836098
:10408000CFCF80913A038E7FC5CF80913B03877F4E
:10409000C7CF80913A038D7FBDCF80913A038B7F4C
:1040A000B9CF80913A03877FB5CF80913B038E7F54
:1040B000B7CF80913B038D7FB3CF80913A038F7E42
:1040C000A9CF80913A038F7DA5CF80913A038F7B52
:1040D000A1CF0E94CC0880913A038F779BCF80912B
:1040E0003A03837F97CF80913B038C7F99CF809158
:1040F0003A0382FB992790F921E0922790FB82F9FD
:1041000090FB83F987CF80913B03982F909590FB8C
:1041100080F990FB81F984CF90913A03892F8F7BAE
:1041200096FF806477CF0E94CC0890913A03892F44
:1041300097FB87F980586ECF81E00E943C0E8AE39E
:1041400093E00E94320E0E94CC0880E0DF91CF9174
:10415000089580E0F2CF90913A03892F8F7E94FFEB
:10416000806158CF90913A03892F8E7F90FF8160B4
:1041700051CF90913B03892F877F93FF886050CF69
:1041800081E0E4CF282F35EB2303C001112497FFF2
:1041900004C080589109892F089580589F4FFBCF04
:1041A00080910D0380FF0DC06091220170E0660FC9
:1041B000771F60387105C0F561157105B9F1862F5B
:1041C000089581FF07C06091220184E0689FB001DB
:1041D0001124EFCF82FF04C06091220188E0F6CF66
:1041E00080910C038115E9F09091210160912201E9
:1041F00070E0891730F093E0660F771F9A95E1F72A
:10420000D8CF869F9001879F300D112483E0220F25
:10421000331F8A95E1F7692F70E0C9010E94B3311D
:10422000C8CF68E070E0CBCF8FE7089581E00895B4
:1042300080910D0380FF0CC060911E0170E07595A8
:104240006795759567956115710561F1862F0895DC
:1042500081FF06C060911E0170E075956795F3CFF0
:1042600060911E0170E082FD15C020910B032115A5
:10427000B1F090911D0160911E0170E0291750F47A
:10428000269FA001279F500D1124692F70E0CA01BD
:104290000E94B33160387105B0F28FE7089561E094
:1042A00070E0D4CF81E00895E3E3E80FE331A0F5B7
:1042B000F0E0E655FC4C0C94E83172DF8195809378
:1042C000110308956DDFFBCF6BDF819580931003A1
:1042D000089566DFFBCFACDF809312030895A8DF5B
:1042E0008195FACFA5DF8195809313030895A0DF10
:1042F000FBCF815D990B21E030E001C0220F8A9550
:10430000EAF780910F03822B80930F030895809129
:104310000D03816080930D03089580910D038260E9
:10432000F9CF80910D038460F5CF409110038D3C4F
:1043300059F48091110387FF0DC0109211034115AC
:1043400059F410920C0308C08E3C81F48091110343
:1043500018169CF3411581F080911203909113037C
:10436000892B811159C010920B0308958F3C41F4A1
:1043700047FFF0CF10921003809111038115E0CF19
:10438000803D19F41416B4F3E5CF90911203893DE2
:1043900029F41916FCF610921203DCCF8A3D19F4A9
:1043A00097FFD8CFF8CF909113038B3D29F497FF57
:1043B000D1CF10921303CECF8C3D19F41916CCF344
:1043C000C9CF9FE2980F983090F4815D990B21E05E
:1043D00030E0B90102C0660F771F8A95E2F7CB0182
:1043E000809590910F03892380930F03B3CF8D3D68
:1043F00031F480910D038E7F80930D03ABCF8E3D02
:1044000021F480910D038D7FF7CF8F3D09F0A2CF6E
:1044100080910D038B7FF0CF08950E94422A209156
:10442000100330911103232B211521F080930903F0
:1044300090930A032091120330911303232B21152B
:1044400021F080930703909308038EE093E066C504
:1044500086E0EEE0F3E0DF011D928A95E9F7109225
:104460000C0310920B0310920D030895FC0182813E
:1044700081110DC0838181110AC08481811107C01F
:1044800081E09581911101C080E08170089581E003
:10449000FCCFA6E0B0E0EFE4F2E20C942D3286E02F
:1044A000EEE0F3E09E012F5F3F4FD90101900D92A6
:1044B0008A95E1F7109210031092110310921203E3
:1044C000109213038B819C81892B8901811581F0C6
:1044D0008091090390910A0366D79C0180910C0397
:1044E000811599F1909123019217130608F43AC0AF
:1044F0008D819E81892B811589F080910703909190
:10450000080351D79C0180910B03811509F45FC00A
:1045100090911F019217130608F467C0B8018EE04E
:1045200093E061D6811104C08EE093E09FDF81119A
:1045300074DF86E0F801AEE0B3E001900D928A9559
:10454000E1F72696E5E00C944932409124019AE087
:10455000499FA00111244217530750F68F5F8093A3
:104560000C0302C08F3FD1F7FB80F11451F018DE2D
:1045700091E01F140CF09FEF899F802D11248093F0
:104580001003FC80F11451F00BDE91E01F140CF0CD
:104590009FEF899F802D1124809311038091100338
:1045A000811509F4A5CFF0901103F11409F4A0CFFF
:1045B000E9DD811101C081E0809310038F2DE2DDE0
:1045C000811519F08093110393CF81E0FBCF4091C7
:1045D00020019AE0499FA00111244217530708F0D7
:1045E0009DCF8F5F80930B0302C08F3FD1F7FD807B
:1045F000F11451F01DDE91E01F140CF09FEF899F24
:10460000802D112480931203FE80F11451F010DEEE
:1046100091E01F140CF09FEF899F802D112480934F
:10462000130380911203811509F478CFF0901303DE
:10463000F11409F473CFA6DD811101C081E08093EC
:1046400012038F2D9FDD811519F08093130366CF20
:1046500081E0FBCFA0E0B0E0E0E3F3E20C9429328C
:10466000E82FF0E0E256FA4FB490282F26952695D1
:10467000269530E0F901E25CF94F0491877010E073
:10468000082E02C0159507950A94E2F701701127CC
:10469000F901E25DF94FE490F12C082E02C0F59487
:1046A000E7940A94E2F791E0E922FF24F901E25E3F
:1046B000F94FC491D0E002C0D595C7958A95E2F72D
:1046C000C170DD27C62ED12C0115110549F5E11465
:1046D000F10431F086EE0E94C905C601009771F51C
:1046E000B6018B2D0E94A006C601009779F5E11452
:1046F000F104A1F50115110531F081EE0E944F067C
:10470000C6010097C9F5CD2B31F08CE20E94B606A8
:10471000C114D104C9F5CDB7DEB7E9E00C94453238
:1047200081EE0E94C905C601009789F2EFE9FFE01A
:104730003197F1F700C000000197F6CFEFE9FFE0F5
:104740003197F1F700C000000197C8CFEFE9FFE013
:104750003197F1F700C000000197C7CF86EE0E94A5
:104760004F06C601009731F2EFE9FFE03197F1F70C
:1047700000C000000197F6CFEFE9FFE03197F1F7B5
:1047800000C000000197BDCF8FE99FE00197F1F7CE
:1047900000C0000091E0C91AD108BACFA0E0B0E093
:1047A000E4EDF3E20C9429328C01D62FF72EE42E9F
:1047B0008D2F9F2DF80109958115B9F0813009F0F1
:1047C00060C08D2F9F2DF8010995C82F813091F47D
:1047D0008D2F9F2DF80109950E94B6068E2D90E031
:1047E000009709F046C0C111E3CFCDB7DEB7E9E0CD
:1047F0000C944532823039F48D2F9F2DF8010995A4
:104800000E94C905EBCF833039F48D2F9F2DF8011D
:1048100009950E944F06E2CF843001F78D2F9F2D1E
:10482000F8010995C82FC12CD12C8AE0B82E2C2F65
:104830002053330BC9012A30310568F0C114D1046B
:1048400069F28FE99FE00197F1F700C0000091E065
:10485000C91AD108F3CFBC9C9001BD9C300D112426
:104860006C01C20ED31E8D2F9F2DF8010995C82F04
:10487000DECFEFE9FFE03197F1F700C000000197CC
:10488000AFCF6E2DE7DE94CF0F931F93CF93DF93BF
:10489000C42FD22FFC0185818115C1F040931603EE
:1048A000F1D5909315038093140380E28C0F883028
:1048B00040F4C77081E001C0880FCA95EAF70E94F2
:1048C000BD06DF91CF911F910F91089510911603AE
:1048D00014133BC0809114039091150364D5883C58
:1048E000910598F5C0E2CD0F1D1741F180E2810FCF
:1048F000883040F4177081E001C0880F1A95EAF7FC
:104900000E94C206C83020F0802F0E94B606D9CF80
:1049100091E08D2F877001C0990F8A95EAF7892F52
:104920000E94BD06802F0E94B606D77081E001C0AC
:10493000880FDA95EAF70E94C206C3CF802F0E9443
:10494000B606C83008F0BDCFF0CF80E28C0F8830BB
:1049500008F0B7CFC77081E001C0880FCA95EAF7A9
:10496000EACF0F93FC01CB01E851FC47E730F1059A
:1049700088F5E354FC4C0C94E83106E221EE41EE5C
:104980006AE17CE781DF80E00F91089507E225EE80
:1049900045EE6BE17CE7F6CF06E221EE40EE68E102
:1049A0007CE7F0CF07E225EE44EE69E17CE7EACF51
:1049B00006E221EE42EE6CE17CE7E4CF07E225EE71
:1049C00046EE6DE17CE7DECF08E221E045EE6EE1E8
:1049D0007CE7D8CFFB01858181111092160381E01D
:1049E000D3CFCF93DF939C01FB0127378CE73807A8
:1049F00039F028373C47C9F081E0DF91CF91089525
:104A00008581811571F018D00E9438091BD0D82FEC
:104A100016D0C82F11D04D2F6C2F0E94530A80E062
:104A2000ECCF0AD00E944209F1CF8581811511F0A7
:104A300006D0EACF04D0F6CF809127010895809167
:104A400026010895809125010895A3E0B0E0EBE2EE
:104A5000F5E20C943032AE014F5F5F4FBE016E5FE6
:104A60007F4FCE010396D2D18B81863239F48A8171
:104A7000843021F481E09981923109F080E08170E5
:104A80002396E2E00C944C32811521F042E164E07F
:104A900086E2E2C14FEF6FEF8FEFFBCF08950895ED
:104AA0000F931F93CF93DF938B01D82FC92FF7DF7D
:104AB000B8018D2F9C2FEFD1DF91CF911F910F91D6
:104AC0000895A3D180E0E0DF60E070E0CB01E8DF93
:104AD0000E94571D4FD881E0D7CFE0DFD3D1DFDF71
:104AE000B4DF811101C0EDCF08950E94021B0C9428
:104AF000A5199C01FB018581811549F0A901575732
:104B00004038510528F4822F37D880E0089581E09D
:104B100008952FEFFC012083089580E00895CF933E
:104B2000DF93EC018881813029F0823079F0DF91C8
:104B3000CF9108950E945A1A2FEF829FC00111242D
:104B400063E070E00E949F316983F1CF0E94801A78
:104B50008983EDCFFC018081813019F0823079F0BA
:104B60000895218130E0C901880F991F820F931F9A
:104B70006FEF70E00E949F31862F0C942F1B818174
:104B8000811102C00C946D1A0C94601AFC019C01F6
:104B90002E5F3F4F9081983031F0993031F097304F
:104BA00031F4C901D7CFC901BACF0C944F1A8FEF96
:104BB00080830895CF93DF93EC0188818330F1F0F7
:104BC00038F4813071F0823081F0DF91CF91089517
:104BD0008430D9F70E94001589830E9403158A83C7
:104BE000F4CF0E9406158983F0CF0E94D814811556
:104BF00019F00E94CF14F7CF80E0F5CF0E94FA148D
:104C0000F2CFCF93DF93EC018881833039F138F410
:104C1000813069F08230B1F0DF91CF910895843016
:104C2000D9F70E940615482F6A81898108C0D98169
:104C30000E940315C82F0E9400154D2F6C2F0E9453
:104C40005B16EACF8981811103C00E94FA18E4CF74
:104C50000E949D1989810E947719DECF89810E9467
:104C6000FD14DACFFC019C012E5F3F4F90819830FC
:104C700031F0993031F0973031F4C901C2CFC90118
:104C800099CF0C94C0148FEF80830895FC0121818B
:104C9000213009F47BCF223009F4E4CF3ACF1F93BF
:104CA000CF93DF93EC01162F38DF811110C0E8811C
:104CB000E150E331C0F4F0E0EC53FC4C0C94E831EB
:104CC00019828CE08A83612FCE010E94C01CDF9183
:104CD000CF911F91089589818330C9F038F48130D4
:104CE00061F0823091F08FEF8883EDCF8430D9F777
:104CF0001A821B821C821D82E6CFD0D30E94EE3125
:104D00006A837B838C839D83DECFBCD0F7CF8A817F
:104D100090E0FE01329685309105ACF61182128248
:104D20000196F8CF8981823029F08530E1F68A81B9
:104D3000DCDEC9CF6A817B818C819D810E94EE314E
:104D4000AFDEC1CF4B816A8189810E94531D9827B4
:104D5000892798279D838C83B6CF2C813D8132276C
:104D6000232732274B816A8189810E94551DABCF51
:104D70000E94571DA8CF612FCE0188DFA4CF0E94CB
:104D80009B1D8983A0CF0E949D1D98278927982766
:104D90009A83898398CF6B8170E089819A81AE0173
:104DA0004C5F5F4F9827892798270E94A01D8BCFC3
:104DB0006B8170E089819A81AE014C5F5F4F9827CB
:104DC000892798270E94AD1D7ECF0E94BA1D7BCFF8
:104DD0000E94511DD6CF6B8170E089819A81AE010E
:104DE0004C5F5F4F9827892798270E94771D6BCFCC
:104DF0006B8170E089819A81AE014C5F5F4F98278B
:104E0000892798270E94841D5ECF0895EF92FF9214
:104E10000F931F93CF93DF937C018B01EA01892BC2
:104E200031F085E290E00E94FD32F70180830115A8
:104E3000110531F086E290E00E94FD32F801808396
:104E4000209729F087E290E00E94FD328883CDB759
:104E5000DEB7E6E00C944832CF93DF93D62FC42F11
:104E6000682F85E290E00E941E336D2F86E290E06D
:104E70000E941E336C2F87E290E00E941E33DF9168
:104E8000CF91089588E290E00E94FD32682F70E093
:104E900080E090E0089588E290E00C941E339093B7
:104EA0001C0380931B0308950895089503D2982F3F
:104EB00081E0913009F080E00895E0911B03F091CA
:104EC0001C03309739F00190F081E02D309711F0FC
:104ED0000995089580E00895F0CF0895E0911B03AF
:104EE000F0911C03309731F00280F381E02D309770
:104EF00009F009950895DC01E0911B03F0911C0372
:104F0000309759F084819581892B39F086E08C9314
:104F10000480F581E02DCD0109950895DC01E09133
:104F20001B03F0911C03309759F086819781892BE0
:104F300039F082E08C930680F781E02DCD01099550
:104F40000895A3E0B0E0E7EAF7E20C9430329C0168
:104F50008091190390911A0382179307B1F030934F
:104F60001A0320931903E0911B03F0911C0330975F
:104F700061F00084F185E02D309739F083E089837A
:104F80003B832A83CE01019609952396E2E00C9497
:104F90004C32A3E0B0E0EFECF7E20C9430329C012D
:104FA000809117039091180382179307B1F0309303
:104FB000180320931703E0911B03F0911C03309713
:104FC00061F00084F185E02D309739F084E0898329
:104FD0003B832A83CE01019609952396E2E00C9447
:104FE0004C32E0911B03F0911C03309731F00284A6
:104FF000F385E02D309709F009950895CF93DF935D
:10500000C0910601D0910701229650DF8115A1F0D1
:1050100080913A0387FF10C0C0910401D09105012F
:1050200022969DE180E02881219621118F5F915089
:10503000D0F7DF91CF91089595E0F4CFCF93C82FAB
:10504000811511F133DF811511F180913A0387FF4A
:105050001EC08C2F869586958695C03FA8F4E0915A
:105060000401F0910501E80FF11D228130E0C770C5
:1050700081E090E002C0880F991FCA95E2F72823CB
:10508000392381E0232B09F480E0CF9108958091AA
:10509000060190910701FC013296089621912C1788
:1050A00021F0E817F907D1F7EFCF81E0EECF9C01AF
:1050B000FC0132968FEF90E04191461751F08F3FFF
:1050C00019F4411101C0892F9F5F9630A9F78F3FD6
:1050D00009F40895280F311D87FD3A95F90162837F
:1050E00008959C01FC013296285F3F4F8191861301
:1050F00003C0DF0111971C92E217F307B9F7089577
:10510000FC01862F869586958695603F60F4E80FB2
:10511000F11D677021E030E001C0220F6A95EAF7C7
:105120008281822B82830895FC01862F8695869545
:105130008695603F80F4E80FF11D677081E090E094
:105140009C0102C0220F331F6A95E2F7B9016095F6
:105150008281682362830895CF93C82FA7DE6C2FC6
:10516000811559F080913A0387FF07C080910401AF
:1051700090910501C5DFCF9108958091060190912E
:10518000070195DFF8CFCF93C82F90DE6C2F8115E4
:1051900059F080913A0387FF07C0809104019091F4
:1051A0000501C2DFCF91089580910601909107011A
:1051B00098DFF8CF7BDE811579F080913A0387FF85
:1051C0000BC0E0910401F091050132968EE1DF0100
:1051D0001D928A95E9F70895E0910601F091070183
:1051E000329686E0F4CFDC01FB0111969C91119779
:1051F0008181981322C012968C911297811519F013
:10520000928189131AC013968C911397811519F006
:105210009381891312C015968C911597811519F0F9
:10522000958189130AC014969C91911521F081E013
:105230002481291303C080E001C081E081700895BA
:105240000895FECF08958F5F80932B016091280110
:105250007091290180912A0190912B01F2CF83E076
:1052600080932B01609128017091290180912A017E
:1052700090912B01E6CFE7CF089581E080932B0139
:10528000609128017091290180912A0190912B0150
:10529000D8CFF3CF089591E0811101C090E09093B1
:1052A0002A01609128017091290180912A01909131
:1052B0002B01C7CF80912A01089580932901609125
:1052C00028017091290180912A0190912B01B9CF79
:1052D000809129010895809328016091280170919F
:1052E000290180912A0190912B01ABCF8091280157
:1052F000089508950895FECF089508950895F9CF6B
:1053000008950F931F93CF93DF93F7DF0E941E132F
:10531000F5DF0DE113E0C0E0D0E08C2F0E946012B9
:105320009C01F801819391938F0181E0232B09F473
:1053300080E0D82BCF5FC53081F78D2FDF91CF91E3
:105340001F910F910895E82FF0E0EE0FFF1FE35E2D
:10535000FC4F81E090E09C0102C0220F331F6A9550
:10536000E2F7B901808191816823792381E0672B7D
:1053700009F480E00895411115C0E82FF0E0EE0F28
:10538000FF1FE35EFC4F81E090E002C0880F991F91
:105390006A95E2F78095909520813181822393234D
:1053A000918380830895CF93DF93EC016BD08C1BA6
:1053B0009D0BDF91CF91089585B7806885BF85B734
:1053C000806885BF08951F921FB61F9211248F9386
:1053D0009F93AF93BF9380912703811113C0809156
:1053E000770390917803A0917903B0917A03419665
:1053F000A11DB11D8093770390937803A093790347
:10540000B0937A03BF91AF919F918F911F901FBE70
:105410001F90189580917F03843031F10E944E05D2
:105420001092270388E190E020E40FB6F894A89545
:10543000809360000FBE2093600083B7817F8460FB
:1054400083BF83B7816083BF7894889583B78E7F4D
:1054500083BF0FB6F894A89580916000886180930F
:105460006000109260000FBE08950E94CC080C945A
:10547000550582E084BD93E095BD9AEF97BD80937A
:105480006E0008952FB7F894809177039091780378
:10549000A0917903B0917A032FBF08952FB7F894A4
:1054A00060917703709178038091790390917A03EA
:1054B0002FBF089578941F921FB61F9211248F93C7
:1054C0009F93AF93BF938091770390917803A091BE
:1054D0007903B0917A030196A11DB11D80937703E2
:1054E00090937803A0937903B0937A03BF91AF911F
:1054F0009F918F911F901FBE1F90189581E0809300
:10550000E00080E28093D8001092C9008FE19EE411
:105510000197F1F700C0000087E090EBDC01809379
:10552000880390938903A0938A03B0938B0388E147
:105530009CE00FB6F894A895809360000FBE9093FE
:105540006000FFCF88E19CE00FB6F894A8958093A7
:1055500060000FBE90936000FFCF282FCB01BA01EF
:1055600030917F033430D1F42F702093E9002FEF76
:105570003091E80035FD06C035ED3A95F1F70000B1
:105580002A95B1F72091E80025FF08C040E050E0DF
:10559000FDD18091E8008E778093E8000895792FFF
:1055A000603229F440E250E0682F82E0D6CF0895BF
:1055B000BC0143E050E084E0D0CFBC0146E050E0C5
:1055C00084E0CBCFBC0140E250E084E0C6CFCF9373
:1055D000DF93D82FC92F6EDE48E050E06D2F7C2F6F
:1055E00081E0BBDF88E0ED2FFC2FA8E2B3E0019063
:1055F0000D928A95E1F7DF91CF910895A0E2B0E096
:10560000E3E0FBE22DC780917F03843081F483E0E7
:105610008093E9008091E80082FF09C08091E80052
:1056200085FD08C08091E8008B778093E800A09604
:10563000E2E032C740E050E060E270E0CE01019667
:10564000F2D18091E8008B778093E80060E2CE0190
:10565000019625DBECCF80917E03811107C068D3D2
:10566000BFD38091E20084608093E200089510929D
:105670007E03089502DE81E00ECE60917B0381E01F
:10568000611101C080E0EBCD90917F0381E0943007
:1056900009F080E060917B03EECD42E061EC81E0B7
:1056A000C4D242E261EC84E0C0D242E261EC82E02A
:1056B000BCD242E260EC83E0B8D290917F0381E0FB
:1056C000943009F080E060917B03BDCD809181032F
:1056D000893081F148F4823009F497C0833009F4AD
:1056E00058C0813041F008958A3009F481C08B3070
:1056F00009F469C0089580918003813A09F048C097
:105700008091E800877F8093E800809184039091E6
:105710008503892B59F060E080E090E070E0D0D103
:105720008091E8008B778093E800089568E088E234
:1057300093E0F4CF80918003813251F5809184030E
:10574000909185038D7F892B19F58091E800877FE3
:105750008093E8008091E80082FF16C09091F300EA
:105760008091F200029731F48091F100813011F0C4
:10577000863019F48091F100A0DD8091E8008B77EC
:105780008093E80086D204C080917F038111E2CF2C
:10579000089580918003813AD9F780918403909194
:1057A0008503892BA9F78091E800877F8093E80023
:1057B0008091E80080FFFCCF7DDD8093F100809137
:1057C000E8008E77DDCF80918003813209F78091E8
:1057D000840390918503892BD9F68091E800877F17
:1057E0008093E80056D28091820355DD0C94CC085A
:1057F00080918003813261F68091E800877F8093F9
:10580000E80047D28091830366CD80918003813A7E
:1058100009F0BECF8091E800877F8093E8008091F7
:10582000E80080FFFCCF62DDC8CF84B7877F84BFEC
:105830000FB6F894A895809160008861809360000D
:10584000109260000FBE80E890E00FB6F89480934D
:105850006100909361000FBE1CCD6AD2C1D2E2EE0E
:10586000F0E0808184608083789428C58CE291E0A8
:1058700016CB80917F03853029F480917F0385309A
:1058800011F0F3CD0895C6DD3CDD8115B1F38091B3
:105890007D03811591F364D00E94CC08EECF08956A
:1058A0009A01409186035091870300C0AC01CB015F
:1058B000D901252F33272330310521F168F4213018
:1058C000310509F443C02230310509F444C080E0B9
:1058D00090E020E030E024C02132310551F1223245
:1058E0003105A9F78330910590F7FC01EE0FFF1FFA
:1058F000E251FE4F2081318185519E4FFC01808114
:1059000090E00EC0CA019927413069F082309105BC
:1059100069F0E6E7F6E0892BD1F6849190E09F01EB
:105920002D933C930895E4E6F6E0F7CFEEE4F6E03D
:10593000F4CF8330910558F6FC01EE0FFF1FEC50B9
:10594000FE4F2081318189E090E0EACF82E190E052
:1059500025ED36E0E5CF8BE590E02AE736E0E0CFB5
:1059600080E189BD82E189BD09B400FEFDCF80914F
:10597000D8008F7D8093D8008091E0008260809372
:10598000E0008091E00081FDFCCF0895AF92BF92CE
:10599000CF92DF92FF920F931F93CF93DF936C010F
:1059A000EB018A0195D1F82E811123C00115110553
:1059B00039F0F80180819181C81BD90BC80ED91E1E
:1059C000A12CB12C2097A9F08091E80085FD21C081
:1059D0008091E8008E778093E80001151105A1F011
:1059E000F801808191818A0D9B1D9183808385E0E0
:1059F000F82E8F2DDF91CF911F910F91FF90DF90A7
:105A0000CF90BF90AF90089563D18115E9F2F82E41
:105A1000F0CFF60181916F018093F1002197FFEFA4
:105A2000AF1ABF0ACFCFAF92BF92CF92DF92FF9251
:105A30000F931F93CF93DF936C01EB018A0148D141
:105A4000F82E811123C00115110539F0F80180816C
:105A50009181C81BD90BC80ED91EA12CB12C20973F
:105A6000A9F08091E80085FD21C08091E8008B7746
:105A70008093E80001151105A1F0F8018081918162
:105A80008A0D9B1D9183808385E0F82E8F2DDF91F9
:105A9000CF911F910F91FF90DF90CF90BF90AF906B
:105AA000089516D18115E9F2F82EF0CF8091F1001A
:105AB000F60181936F012197FFEFAF1ABF0ACFCF95
:105AC000FC019B01809186039091870386179707BD
:105AD00018F0672B61F0C90140E0009771F44111A3
