:10000000ABC30000E1C30000DFC30000DDC300009C
:10001000DBC30000D9C30000D7C30000D5C3000074
:10002000D3C30000D1C300000C94E9330C94D13445
:100030000C949E33C9C30000C7C30000C5C30000B1
:10004000C3C30000C1C30000BFC30000BDC30000A4
:10005000BBC300000C94C533B7C30000B5C3000098
:10006000B3C30000B1C30000AFC30000ADC30000C4
:10007000ABC30000A9C30000A7C30000A5C30000D4
:10008000A3C30000A1C300009FC300009DC30000E4
:100090009BC3000099C3000097C3000095C30000F4
:1000A00093C3000091C300008FC3000005010980C5
:1000B000A101850319012AB700150126B700950192
:1000C00075108100C0050C0901A101850419012AE0
:1000D000A002150126A002950175108100C005013E
:1000E0000906A1018506050719E029E71500250184
:1000F0009508750181020507190029EF15002501F2
:1001000095F075018102050819012905950575010C
:100110009102950175039101C00660FF0961A1017B
:100120000962150026FF00952075088102096315F4
:100130000026FF00952075089102C005010906A15F
:1001400001050719E029E7150025019508750181CA
:10015000029501750881010507190029FF15002680
:10016000FF0095067508810005081901290515008D
:100170002501950575019102950175039101C00056
:10018000000000000000000000000000000000006F
:10019000000000000000000000000000000000005F
:1001A0000000007E0F00D4FFFFFFC70000007800B2
:1001B000000000000000002A2B28000000000000C2
:1001C0000000000000000000000029000000002CDA
:1001D0001E3420212224342627252E362D37382779
:1001E0001E1F202122232425263333362E37381F85
:1001F0000405060708090A0B0C0D0E0F1011121347
:100200001415161718191A1B1C1D2F3130232D35E4
:100210000405060708090A0B0C0D0E0F1011121326
:100220001415161718191A1B1C1D2F3130354C09BF
:10023000025B00030100A0FA0904000001030101B0
:100240000009211101000122440007058103080073
:10025000010904010002030000000921110100014D
:100260002222000705820320000107050303200066
:10027000010904020001030000000921110100012D
:10028000226D000705840320000112010002000016
:100290000008515360600100010203011C03760055
:1002A000690061006C003A006600360034006300AB
:1002B0003200620033006300000014035300360074
:1002C00030002D0058002D00520047004200000071
:1002D0001003530065006E0074007200610071002D
:1002E00000000403090429001E001F002000210053
:1002F0002200230024002500260027002D002E00C8
:10030000310035002B0014001A00080015001700FA
:100310001C0018000C00120013002F0030002A00EF
:100320000000E00004001600070009000A000B00AE
:100330000D000E000F003300340000002800000004
:10034000E10000001D001B0006001900050011005F
:1003500010003600370038000000E5002152E000B0
:10036000E300E2000000000000002C00000000009C
:100370000000E600E7006500E400000035003A00F8
:100380003B003C003D003E003F0040004100420079
:1003900043004400450049004C00390001000100C1
:1003A0000100010001000100010046004700480073
:1003B00052000100010000000100AA00A900A800ED
:1003C00001000100010001004A004B0050004F00F5
:1003D0000000010000000100010001000100010017
:1003E00001000100010001004D004E00510000001D
:1003F00001000100010001000100000000000000F8
:1004000001000000000000000100010001000100E7
:1004100000000100010001000100010001000100D5
:1004200001000100010001000100010001000100C4
:1004300001000100010001000100010001000100B4
:1004400001000100010001000100010000000100A5
:100450000100010001000100010001000100010094
:100460000100010001000100010000000100010085
:100470000100010001000100010001000100010074
:100480000100010000000100010001000100010065
:10049000000000000000010000000000000001005A
:1004A00001000100010000000100010022051C16EE
:1004B00070160000020002001E051C1670160000D7
:1004C0000300010023051C16701600000400020042
:1004D00008051C1670161A080500010024051C16D4
:1004E00070160000060002000A051C1670160000B7
:1004F0000700020020051C16701600001200020002
:1005000026051C16701600001300020028051C1694
:1005100070160000140001002A051C167016000059
:100520001500000000002308F30E00001600010073
:10053000250533168716000017000101250533161F
:1005400087160000180001022505331687160000E3
:10055000190002002C051C16701600001A00010379
:1005600025053316871600001B0002002E051C16F9
:1005700070160000FD377A585A000004E6D6B446DB
:100580000200210116000000742FE5A3E003A20180
:100590002E5D003D8889C65436C3174FE4E619C264
:1005A00030002C9B14BF429D6DDCF2FCA6005EE483
:1005B0007F987CC49E3E7B915EEB3EF600CAF9FCC0
:1005C000AD0C8D5802306278105FCF964F65301CAD
:1005D0005991122BBE553870EB77201D314A678434
:1005E000D8DBF7CD0BF850C6C3DD5B4B67D326765F
:1005F0006C08A254112417D37CAFA62D4DD10AD379
:10060000F4131AE96D6CCEDFDAA07D4C219386BB22
:10061000D8460CB0BE7E0E3FC16C2BE142F40E9D5D
:100620004D2B4ED71A541E9BDF49E9C31F6DC1DB0A
:10063000129163A46A2A8CE859F5CFF7CB4F110CBD
:10064000CCD9CDA615FDC2B9AF27671AC23FCC5C85
:10065000111738F2970239684638FB9718F48DBFA6
:1006600061F3C3ED6C2EE2DFF289278CD569C4F00B
:10067000D4836027FAB865106FCC28160BDF05D23B
:10068000E7D390CB3635C418C17FCEC8416E2ACE91
:10069000B3C6805A54BEEEF3677B74309C0A29506F
:1006A00093E7FAE5428A2915D171034E4A5B30A6D9
:1006B00067969EF062CFD47014847E0EE837E5C949
:1006C000000000006E671318A5AA1FE50001CA020A
:1006D000A3070000011A7753B1C467FB02000000B2
:1006E0000004595A4C4C4C4C4C4C5252525252529F
:1006F0005252524C4C4C4C4C4C52525252525252FE
:1007000052004C4C4C4C4C4C52525252525252523F
:10071000004C4C4C4C4C4C4C525252525200525287
:100720004C4C4C0000002A00000052525252005023
:100730004F52514A4D4B4E2A4C2F30B6B7ABACBB43
:10074000BCA9AABDBE0D0E0B0F1A050805090507A9
:100750001811130408120C0011241FBECFEFDAE0A9
:10076000DEBFCDBF04B603FE18C080913505909161
:100770003605A0913705B09138058730904BA740DA
:10078000B04B59F41092350510923605109237058A
:1007900010923805E0E0F8E3099511E0A0E0B1E03F
:1007A000E8EBFCE602C005900D92A03BB107D9F73B
:1007B00025E0A0EBB1E001C01D92A533B207E1F73F
:1007C0000E94952D0C94FD351BCC9C01FB019A9544
:1007D00081159F4120F5D901AA27B270832F81701E
:1007E000B90166277470A9014427587034FF0DC001
:1007F0008295807FAB2B09F08062672B09F08064C3
:10080000452B09F0806809950895AB2B09F08260AB
:10081000672B09F08460452BB1F38860F4CF80E04A
:10082000F2CF90E00C942035982F82958F7081152F
:1008300011F0982F84E0292F26952695211511F087
:100840008E5F922F969591118F5F0895282F929524
:100850009F70963099F060F4925F9F70923030F400
:10086000203F89F038F481E0283E38F080E0089598
:100870009A5FF3CF81E0243FC9F7089581E0283ED5
:10088000E0F3213FF9CF81E00895809306050895B4
:1008900080930705089521E030E001C0220F8A957A
:1008A000EAF780910705822BF3CF21E030E0A90120
:1008B00002C0440F551F8A95E2F7CA0180959091B6
:1008C00007058923E5CF292F953098F58F3088F5D6
:1008D00090E03FE0239F800D911D1124282F277069
:1008E00041E001C0440F2A95EAF723E096958795E9
:1008F0002A95E1F7FC01EE0FFF1FE80FF91FEF5DEE
:10090000FC4F20E030E070E05191DF011197CB0106
:10091000022E02C0969587950A94E2F78170819520
:100920008527842385278C932F5F3F4F2330310504
:1009300059F70895292F953078F58F3068F590E0B4
:100940003FE0239F800D911D1124682F677023E0E5
:10095000969587952A95E1F7FC01EE0FFF1FE80FAA
:10096000F91FEF5DFC4F40E050E080E0219130E066
:10097000062E02C0369527950A94E2F72170332798
:10098000042E01C0220F0A94EAF7822B4F5F5F4FBB
:100990004330510559F7089580E008959091070577
:1009A00021E030E0F90101C0EE0F8A95EAF7D901A4
:1009B00002C0AA0FBB1F6A95E2F7EA2B01C0220F03
:1009C0004A95EAF7892F8E23E81303C0892F822BDB
:1009D0005FCF2095822F8923FBCF8091D80290E0B2
:1009E00020E0022E001C0008281709060CF00895CC
:1009F0002F5FF7CFFC01DB018481813031F5149644
:100A00008C911497813009F591818FE0E081F0E0BD
:100A1000899FE00DF11D1124EC51F94F94919A3208
:100A2000A1F011962C911197EC91F0E0829FE00DCE
:100A3000F11D1124EC51F94FE49181E0EA3219F0F3
:100A40009E1301C080E08170089581E008959C01AB
:100A5000809150048D79811119C0211540E534072A
:100A600080F4211580E23807C0F42333310511F1F9
:100A7000D0F481E02E31310590F42430310530F08E
:100A80000895C90196558115914010F080E00895B0
:100A9000C901805F96450797C8F33327E6CF2C320C
:100AA0003105A1F7EDCF2653310981E0233031051F
:100AB00038F3ECCF81E0E4CF80914D0390914C036B
:100AC000981301C008958F5F8770FACF90915404F6
:100AD0008095892380935404282F2770211110C0FA
:100AE000891771F09091310592FF0AC0869586951D
:100AF0008695DBDE10925404109256041092550431
:100B0000089590915004982B909350040895982F35
:100B1000909580915004892380935004089580918A
:100B20004E04811531F010924E0410924D04109233
:100B30004C040895803E9105D1F1C8F481339105AC
:100B400009F47FC048F48932910509F46FC08A32F4
:100B5000910509F47DC0089589339105E1F082384B
:100B60009105C9F08533910509F45BC00895843E71
:100B70009105D1F148F4823E910531F1833E910512
:100B800041F181EE90E00895863E9105C1F1873EE6
:100B90009105E1F10895209130052370211165C080
:100BA0002091310523FF14C089E290E0089520913F
:100BB000300520FD43C03091310530FF09C024FFCE
:100BC0004EC080E090E008952091300522FDF7CFDF
:100BD00008952091300522FD45C03091310530FD4A
:100BE00044C024FFF5CFEDCF2091310521FFF0CF98
:100BF0008091300584FDE5CF87EE90E00895209147
:100C0000300523FFE5CF24FDDCCFF6CF2091300562
:100C100023FD2EC03091310531FFE3CF84EE90E00B
:100C200008952091300525FFD3CFBECF2091300508
:100C300025FD21C02091310523FFCACF89E390E033
:100C400008952091300526FFC3CF8AE290E00895F1
:100C50002091300526FFBCCF81E390E0089583EE1C
:100C600090E0089582EE90E0089580EE90E008957F
:100C700086EE90E0089585E390E0AACF909130054C
:100C800092FF10C041E0282F2471243009F040E089
:100C900031E0282F2871283009F030E0431711F097
:100CA0002CE0822793FF10C041E0282F24712431CB
:100CB00009F040E031E0282F2871283109F030E0B8
:100CC000431711F02CE082273091310530FF10C01E
:100CD00051E0282F2171213009F050E041E0282F08
:100CE0002871283009F040E0541711F029E08227DC
:100CF00031FF10C041E0282F2171213109F040E07F
:100D000031E0282F2871283109F030E0431711F025
:100D100029E0822794FD877E08951F93CF93DF9368
:100D200009DFEC01811522E5920708F050C081151A
:100D300040E5940708F0D9C0803E9105F8F48D3C59
:100D4000910508F0ABC0883A910580F4853A910589
:100D500008F096C08130910521F00497813A910501
:100D600050F4CE01DF91CF911F910895885A9109D7
:100D70004B9708F488C0C0E0D0E0F3CF811550E471
:100D80009507E8F4C11580E2D80708F0C7C0C83E4F
:100D9000D10538F3CE019A9581159F4160F78D2FCB
:100DA0006DDF182FCE019927C5DE212F30E0322FBD
:100DB0002227E901CC27DF71C82BD92BD2CF992765
:100DC000B9DECC27DF70C82BD92BD06ACACF8038C8
:100DD00042E59407C8F5803652E5950708F067C0EC
:100DE000C03482E5D807B0F08C2F86958695877041
:100DF00020E2829FC0011124C37021E030E0A901EC
:100E000002C0440F551FCA95E2F7EA01C82BD92B3F
:100E1000DC68A7CFC03252E5D50708F041C08C2F5F
:100E20008695869520E2829FC0011124C37021E03F
:100E300030E0A90102C0440F551FCA95E2F7EA014C
:100E4000C82BD92BDD688DCF803C52E5950760F427
:100E50008F71C03AD24508F03FC090E0982F8827A4
:100E6000EC01C46FD06A7DCF805C9245809708F01A
:100E700082CFDC2FCC27CC27DF71C06FD06A71CF37
:100E8000A497D0646ECFC85AD0E0CC0FDD1FCD5BE5
:100E9000DE4F0990D881C02DD46463CFD06561CF77
:100EA000CF71D0E0DC2FCC27C16FD06A5ACF8695A6
:100EB0008695877020E2829FC0011124C37021E0D3
:100EC00030E0A90102C0440F551FCA95E2F7EA01BC
:100ED000C82BD92BDA6845CFD1DEC82FD0E0DC2F64
:100EE000CC27CC27DF71D0623CCF8F71C7DE65E0A5
:100EF000D695C7956A95E1F7CF70D0E0DC2FCC2767
:100F0000282F30E084FF06C054E0220F331F5A958B
:100F1000E1F73327C22BD32BD06923CF8D2F8F71CD
:100F2000ADDE182FCE01992705DE212F30E0322FBC
:100F3000222722273F71282B392BE901D4CF80E0CB
:100F40000895F894E82FE295EF70F0E041A18F70DA
:100F500021E030E0B90102C0660F771F8A95E2F701
:100F6000CB01962F9095942391A392A1892B82A3D4
:100F70007894089581152CE7920741F420910E0191
:100F800030910F01232B11F480E090E00895E8EBFD
:100F9000F3E080E090E06DEA7CE240ED5CE222E488
:100FA0003DE277836683518740873387228797871F
:100FB0008687019670968830910599F70895FB0110
:100FC000811520E2920770F4811541E0940748F002
:100FD000392F94FF02C03295307F2081232B20834C
:100FE000992708959C01305221153043C8F3089584
:100FF000462B22FF0FC0982F92959F708F70892BE0
:10100000962F92959F706F70692B942F92959F7079
:101010004F70492B982F9623961309C050E04095A6
:10102000509590E04823592381E0452B09F080E05A
:1010300081700895809108059091090590930D01A4
:1010400080930C010895A0E0B0E0E9E2F8E00C9490
:101050004535FB018FEF9FEF4430510508F465C023
:101060004091300541FB882780F990E0880F991F57
:1010700042FBAA24A0F8B12CAA0CBB1CAA0CBB1CD6
:101080008A299B2940FB882480F8912C882999295A
:1010900043FBCC24C0F8D12C53E0CC0CDD1C5A957A
:1010A000E1F78C299D2944FBEE24E0F8F12C64E063
:1010B000EE0CFF1C6A95E1F78E299F2945FB00275E
:1010C00000F910E075E0000F111F7A95E1F7802B11
:1010D000912B46FB222720F9C22F20E0D22FA6E039
:1010E000CC0FDD1FAA95E1F78C2B9D2B47FB4427E6
:1010F00040F920E8429FA0011124842B952B2091D8
:101100003105322F3170932B26952170B22FBB0FF2
:10111000A0E08A2B9B2B092E000CAA0BBB0B808313
:101120009183A283B38380E090E0CDB7DEB7ECE09B
:101130000C946135AC0123E0969587952A95E1F7EB
:101140008E719927FC01E550FE4F0190F081E02D52
:101150004F70552721E030E002C0220F331F4A951F
:10116000E2F7611541F0E22BF32B85509E4FDC0135
:10117000ED93FC93089520953095E223F323F5CF6A
:101180001092980410929704E7E5F4E085818111AC
:1011900002C014821682379684E0EF38F807B1F760
:1011A0000895AC0130919A0460919904232F621341
:1011B00001C00895822F90E0FC01EE0FFF1FE15760
:1011C000FB4F0190F081E02DE417F50791F467E003
:1011D000649FF001659FF00D1124E95AFB4F41E037
:1011E00044832313E6CF01968370992780939A0452
:1011F00008950196282F2370DACF0F931F93CF9372
:1012000001E010E0082E01C0000F0A94EAF7C09137
:101210004B049C2F9023911115C0909154049695E6
:1012200096959695891306C0109254041092560410
:101230001092550430DBC027C0934B04CF911F910F
:101240000F91089532DBF7CF9091A30389029001AB
:10125000112437FF03C08093A30308952F3731056E
:101260001CF4980F9093A30308959C01A0E0B0E0B4
:101270008A2FA61710F080E00895F901EA0FFB1FEE
:10128000E4911196E413F4CF91E08927F901E80F76
:10129000F11D84910895FA01309709F00995089598
:1012A000E091BE02F091BF02309739F00190F081D9
:1012B000E02D309711F00995089580E00895A3E09E
:1012C000B0E0E5E6F9E00C944F359C018091F8011F
:1012D0009091F90182179307B1F03093F9012093AF
:1012E000F801E091BE02F091BF02309761F00084F6
:1012F000F185E02D309739F083E089833B832A83A1
:10130000CE01019609952396E2E00C946B35A3E09B
:10131000B0E0EDE8F9E00C944F359C018091F601C6
:101320009091F70182179307B1F03093F701209362
:10133000F601E091BE02F091BF02309761F00084A7
:10134000F185E02D309739F084E089833B832A834F
:10135000CE01019609952396E2E00C946B359091AD
:1013600012019130C1F49091300597FF14C0E82F1D
:10137000E695E695E695803FF8F4F0E0E654FE4FFA
:10138000877021E030E001C0220F8A95EAF7828160
:10139000822B82830895A4EBB1E0EFEF90E02D91D2
:1013A000821751F0EF3F19F4211101C0E92F9F5F1F
:1013B0009630A9F7EF3F09F408950E2E000CFF0BAD
:1013C000EE54FE4FE6CF909112019130E1F49091EE
:1013D000300597FF18C0E82FE695E695E695803F23
:1013E000F0F4F0E0E654FE4F877021E030E0A90110
:1013F00002C0440F551F8A95E2F7CA018095928179
:10140000892382830895E4EBF1E09191891303C06D
:10141000DF0111971C9251E0EA3BF507B1F70895FF
:101420008091110108952FB7F8948091F201909165
:10143000F301A091F401B091F5012FBF08958091BF
:101440000A0590910B05892B89F0EDDF20914C0462
:1014500030914D04AC01421B530B9A0181E0409145
:101460000A0550910B052417350708F480E08170B8
:101470000895CF93DF93C091500480915304C82BFB
:1014800080914E04811511F180910A0590910B0510
:10149000892B19F0D4DF811142DBD0914E04809169
:1014A00012018130B9F48091300587FF13C02CEB15
:1014B00031E08DE190E0F90140812F5F3F4F411114
:1014C0009F5F8150C0F791112ADBCD2B8C2FDF91CC
:1014D000CF91089524EB31E085E0ECCF9091310578
:1014E00092FF0EC098E0899F90011124622B6093B7
:1014F0005404D1D998DF90935604809355040895ED
:10150000CAC990914E04292F2823211559F080959E
:10151000892380934E04811531F085DF80934C043C
:1015200090934D04089580E090E0F8CFCF93C82FBA
:101530008091310582FF0BC080914E048C1739F0E9
:1015400072DF90934D0480934C04C0934E04CF916E
:1015500008952FB7F8946091F2017091F301809192
:10156000F4019091F5012FBF08950895FC019B01AE
:101570008091E8019091E9018617970740F0672B69
:1015800029F48091E8008E778093E800C90140E05B
:10159000009741F4411106C08091E80082FF2FC0FE
:1015A00080E00895209197022115A9F12530A9F135
:1015B0002091E80023FD2DC02091E80022FDECCF12
:1015C0002091E80020FFE4CF3091F3002091F20059
:1015D000009719F02830310558F041E028303105E6
:1015E00009F040E02091E8002E772093E800D0CF6A
:1015F00041914093F10001972F5F3F4FE9CF8091D8
:101600009702811541F0853041F08091E80083FF19
:10161000C3CF81E0089582E0089583E0089580912A
:10162000E20187FF13C08091E80082FF06C080912D
:10163000E8008B778093E80004C0809197028111C5
:10164000F2CF0895809197028115D9F38091E80037
:1016500080FFF8CF8091E8008E77ECCF2091E400F6
:101660003091E50095E6A9018091EC00817081152B
:1016700031F08091E80080FF06C080E0089520915D
:10168000E80022FD1AC080919702811589F085300B
:1016900089F08091EB0085FD0FC02091E40030912E
:1016A000E5004217530701F39A95E9F684E008959F
:1016B00082E0089583E0089581E00895E8EDF0E088
:1016C00080818E7F80831092E2001092DA00109267
:1016D000E100A0EEB0E08C9181608C9380818F77E7
:1016E000808319BCA7EDB0E08C918E7F8C938081B4
:1016F0008F7E80831092E1010895982FE42FE2708D
:101700009093E900891308C0762F242F50E0E1114F
:1017100011C091E0980FF4CF7091EC002091ED0092
:101720005091F00021FD06C09F5F973049F78093EC
:10173000E90008953091EB003E7F3093EB0030914B
:10174000ED003D7F3093ED003091EB003160309340
:10175000EB007093EC002093ED005093F00020918B
:10176000EE0027FDE1CF0895A0E0B0E0EAEBFBE05A
:101770000C944935C8EDD0E088818F7E8883E7EDF1
:10178000F0E080818160808384E082BF81E080938B
:10179000E10188818E7F888302EE10E0F8011082DB
:1017A0001092DA0081EEC82ED12CF60110828881C9
:1017B0008F77888388818068888388818F7D8883FC
:1017C00019BC109297021092E00110927E021092C2
:1017D000DF0190EEE92EF12CF70180818B7F808371
:1017E00088818160888342E060E080E086DFF601E6
:1017F00080818E7F8083F8018081816080838081F9
:1018000088608083F70180818E7F808388818061FA
:101810008883CDB7DEB7E8E00C946535E0914D03E1
:1018200090914C0329E0E91302C080E00895AE2FA7
:10183000B0E02E9FF0011124E752FD4F31813613A5
:1018400006C03081381303C03581341304C0FD0154
:101850003196E770E8CF81E008959C0121153105AC
:1018600009F408958FE99FE00197F1F700C00000A7
:1018700021503109F3CF81E08093E00080E2809332
:10188000D8001092C9008FE19EE40197F1F700C0E3
:10189000000087E090EBDC018093350590933605DE
:1018A000A0933705B093380588E19CE00FB6F89413
:1018B000A895809360000FBE90936000FFCF0F93B8
:1018C0001F93CF93DF93EB018A019091970294309D
:1018D00059F58093E9008FEF9091E80095FD06C0DF
:1018E00095ED9A95F1F700008A95B1F78091E8009F
:1018F00085FF1AC0B3DE811112C08091E80085FD1A
:1019000006C08091E8008E778093E800F3CF88814D
:101910008093F1000150104011F02196EECF80919C
:10192000E8008E778093E800DF91CF911F910F91AF
:101930000895792F603229F440E250E0682F82E068
:10194000BECF0895CF93DF93D82FC92F48E050E042
:10195000682F792F81E0B3DF88E0ED2FFC2FAAEE0E
:10196000B1E001900D928A95E1F7DF91CF91089552
:10197000BC0140E250E084E0A2CFBC0143E050E073
:1019800084E09DCFFC016081718184E090E00C9443
:10199000E2359091310592FB222720F9281749F072
:1019A00080FB92F99093310580E395E0EBDF82E0D4
:1019B0008DC808951F93CF93DF93962F122F632F17
:1019C0008330D8F49530C8F44F30B8F4C42FD0E049
:1019D000CC0FDD1F2EE1929FC00DD11D112496E981
:1019E000899FC00DD11D1124CE0189960E94C83552
:1019F000612FCE018A960E94C835DF91CF911F9149
:101A0000089580911201813061F58091300587FF42
:101A100028C02FDD8093BB0140E250E06EE972E008
:101A20008AEB91E00E947F35892BD1F080E2EAEBCE
:101A3000F1E0AEE9B2E001900D928A95E1F7E09114
:101A4000BE02F091BF02309759F00480F581E02D7D
:101A5000309731F086E08093BA018AEB91E00995E6
:101A6000089507DD8093B20148E050E060EC72E039
:101A700082EB91E00E947F35892B91F388E0E2EBC5
:101A8000F1E0A0ECB2E001900D928A95E1F7E091CF
:101A9000BE02F091BF02309719F30280F381E02D6E
:101AA0003097F1F282EB91E0DACF811511F029D86D
:101AB000A8CF0895811531F090915304892B80931C
:101AC00053049FCF0895811511F021D89ACF08951E
:101AD000811539F0809590915304892380935304A4
:101AE00090CF0895CF93C82F8115A1F08238A1F42B
:101AF000D7DB81FD0FC089E332DC83DF2FEF37EEC8
:101B000083E0215030408040E1F700C0000089E3CD
:101B10005ADC77DFCF910895833889F4C1DB80FDEB
:101B2000F9CF83E51CDC6DDF9FEF21EE34E09150AF
:101B300020403040E1F700C0000083E5E9CF843861
:101B400089F4AEDB82FDE6CF87E409DC5ADF8FEF54
:101B500091EE24E0815090402040E1F700C0000069
:101B600087E4D6CF8CEF8C0F813A78F58091120103
:101B70008130F1F48091300587FF1AC0EC2FE69593
:101B8000E695E695F0E0E654FE4F828190E04C2F1A
:101B9000477021E030E002C0220F331F4A95E2F780
:101BA00082239323892B71F08C2F0DDC2ADF0AC04E
:101BB000E4EBF1E08AEB91E02191C217A9F38E17D3
:101BC0009F07D1F78C2FCBDBA4CF80E28C0F88301E
:101BD00048F4C77081E001C0880FCA95EAF70E94F7
:101BE000810597CF8BE58C0F833030F42C2F245256
:101BF000330BC90164DB8ECFC85ACB3108F08ACFD2
:101C0000EC2FF0E0EE0FFF1FE758FE4F808191812F
:101C10007EDB80CFCF93DF93EC01805E9109089744
:101C200020F06AE57DE0209711F465E57DE0CE01C6
:101C30000E94E5038C2F56DFDF91CF910895611547
:101C400029F0209153042260209353049C013052C8
:101C50002115304308F49927DDCF811509F43EC0E2
:101C6000823849F41DDB81FF39C089E378DBC9DEA6
:101C700089E3A9DBC6CE833841F412DB80FF2EC096
:101C800083E56DDBBEDE83E5F4CF843841F408DB09
:101C900082FF24C087E463DBB4DE87E4EACF9CEFF5
:101CA000980F913A30F390E2980F983050F4877083
:101CB00091E001C0990F8A95EAF7892F0E94870564
:101CC000D9CF9BE5980F933018F480E090E0F7CAE5
:101CD000885A8B3118F480E090E019CB0895CF93A7
:101CE000DF93EC01BADFCE01805E9109089720F006
:101CF00068E67DE0209711F463E67DE0CE010E9466
:101D0000E503DF91CF9108951F93CF93DF93182FB1
:101D1000EB01E8DE209731F4812F9FDFDF91CF9137
:101D20001F9108958FE99FE00197F1F700C000002F
:101D30002197F0CF6091280570912905893321F012
:101D40006091260570912705DFCF10925004809195
:101D500012018130A1F48091300587FF10C0ECEBB7
:101D6000F1E08EE1DF011D928A95E9F780E090E0D5
:101D7000A6DA80E090E0CBDA1092530442CEE4EB96
:101D8000F1E086E0EFCFE1DF2FEF84E39CE021502C
:101D900080409040E1F700C0000088E19CE00FB671
:101DA000F894A895809360000FBE90936000FFCFD9
:101DB000CF93DF93D82FC92F8091D802883018F0A5
:101DC000C4DF1092D8022091D802E22FF0E0EE0F8B
:101DD000FF1FE853FD4FD083C1832F5F2093D802AC
:101DE000DF91CF910895CF92DF92EF92FF92FB01A6
:101DF0008FEF9FEF4430510508F47BC0C080D18045
:101E0000E280F380A2DFD701C601B695A79597952A
:101E100087958170282F220FD701C60181709927DD
:101E2000AA27BB27822BB701A60132E076956795DA
:101E3000579547953A95D1F74170440F440F842B3D
:101E4000B701A601E3E07695679557954795EA9522
:101E5000D1F74170440F440F440F842BB701A60102
:101E6000F4E07695679557954795FA95D1F74170C7
:101E70004295407F842BB701A601A5E07695679532
:101E800057954795AA95D1F741704295440F407EEA
:101E9000842BB701A601B6E07695679557954795CF
:101EA000BA95D1F741704295440F440F407C842B82
:101EB000B701A60197E076956795579547959A954E
:101EC000D1F7479544274795842B80933005D1FA65
:101ED000882780F9880F9D2D9170892B909131056D
:101EE0009C7F892B8093310580E395E04BDD80E07A
:101EF00090E0FF90EF90DF90CF900895AAE2B0E0DD
:101F0000E4E8FFE00C944E3582EE91E0FC0101968E
:101F10002091F100208321E08A3E9207B9F7809159
:101F2000E301893009F457C0C8F4823009F4B2C023
:101F3000833009F482C0813081F18091E80083FF11
:101F4000E6C08091E2019091E3019A3008F0DFC091
:101F5000E92FF0E0E150FA4C0C941A358A3009F47C
:101F600089C08B3051F78091E201813231F7809145
:101F7000E6019091E701892B01F78091E800877FC6
:101F80008093E8004CDB81E09091E401911101C065
:101F900080E080931201D9DED0CF8091E201813AB6
:101FA00061F68091E800877F8093E8008091E601E8
:101FB0009091E701892B59F060E080E090E070E0BB
:101FC000D5DA8091E8008B778093E800B6CF68E09F
:101FD0008AEE91E0F4CF8091E201813209F0ADCF39
:101FE0008091E6019091E7018D7F892B09F0A5CFC3
:101FF0008091E800877F8093E8008091E80082FF6D
:1020000017C09091F3008091F200029731F4809113
:10201000F100813011F0863021F48091F10080933D
:1020200011018091E8008B778093E800F8DA85CF82
:10203000809197028111E1CF80CF8091E201813AB6
:1020400009F07BCF8091E6019091E701892B09F09F
:1020500074CF8091E800877F8093E8008091E8004A
:1020600080FFFCCF809112018093F1008091E80005
:102070008E77DACF8091E201813209F05ECF8091D4
:10208000E800877F8093E800CADA8091E5018093B9
:10209000100153CF8091E201813A09F04ECF809137
:1020A000E800877F8093E8008091E80080FFFCCF04
:1020B00080911001D9CF803889F0823841F5809124
:1020C000E6018F70873018F58093E9008091EB006E
:1020D00085FB882780F91092E90006C08091DF0116
:1020E00090917E02911182609091E800977F909389
:1020F000E8008093F1001092F1008091E8008E7763
:1021000023C0811116C08091E401813009F18091D2
:10211000E80083FF0AC08091E800877F8093E80091
:102120008091EB0080628093EB00AA96E3E00C9430
:102130006A35823061F78091E401811581F0109257
:10214000E9008091E800877F8093E80068DADFCFBC
:1021500081E0933009F080E080937E02F0CF80919F
:10216000E6018F702FEF280F263088F68093E90064
:102170002091EB0020FFE3CF933031F48091EB000E
:1021800080628093EB00DBCF9091EB0090619093A5
:10219000EB0021E030E0A90102C0440F551F8A95F1
:1021A000E2F74093EA001092EA008091EB00886029
:1021B000E8CF8111ACCF1091E4011F778091E3004B
:1021C0008078812B8093E3008091E800877F809363
:1021D000E80025DA8091E80080FFFCCF8091E300E1
:1021E00080688093E30083E0111101C082E0809356
:1021F00097028DCF8058823008F089CF4091E4015A
:102200005091E5014C3D83E0580791F583E08A83C6
:102210008AE289834FB7F894DE01139620E03EE00E
:1022200051E2E32FF0E050935700849120FF03C068
:1022300082958F703F5F8F708A30C0F0895C90E02C
:102240008D939D932F5F243161F74FBF8091E800FC
:10225000877F8093E8006AE270E0CE01019686D91C
:102260008091E8008B778093E80051CF805DE7CFC5
:102270008091E6019091E701252F33272330310526
:1022800009F44AC078F52130310509F483C08BE5A3
:1022900090E0EFE2F2E02230310509F038CF2091F2
:1022A000E800277F2093E8002091E8013091E901C0
:1022B0008217930708F49C0140E02115310509F0CD
:1022C0006EC041116CC08091E80082FDC9CF809141
:1022D0009702811529F2853019F28091E80083FF79
:1022E000F2CFBECF2132310509F445C0223231058B
:1022F00009F00DCF8330910508F009CFFC01EE0FF6
:10230000FF1FED5DFE4F0190F081E02D805E9E4F3E
:10231000DC018C9190E010C0CA019927423019F17C
:102320008330910568F4892BB1F4E2EEF2E0E49198
:102330008E2F90E0E2EEF2E0009709F4E8CEAFCF06
:10234000039709F0E4CEECE9F2E0E4918E2F90E0FF
:10235000ECE9F2E0F1CFE0EDF2E0E4918E2F90E0D5
:10236000E0EDF2E0E9CFEAEBF2E0E4918E2F90E0CD
:10237000EAEBF2E0E1CF8330910508F0C8CEFC0132
:10238000EE0FFF1FE75DFE4F0190F081E02D89E029
:1023900090E085CF82E190E0EAE8F2E080CF8091A2
:1023A0009702811509F45CCF853009F459CF8091EB
:1023B000E80083FD55CF8091E80082FD84CF8091B5
:1023C000E80080FF7ACF9091F3008091F200211510
:1023D000310519F08830910550F041E0089709F077
:1023E00040E08091E8008E778093E80066CF4491CA
:1023F0004093F1003196215031090196E8CF8038A1
:1024000009F085CE8091E800877F8093E800809175
:10241000E0018093F10071CE811179CE1091E40139
:10242000123008F074CE8091E800877F8093E80036
:102430001093E001F4D81115D9F084E0809397024D
:1024400042E061EC81E059D942E261EC84E055D987
:1024500042E261EC82E051D942E260EC83E04DD986
:1024600080919702843051F482E0809313014FCE23
:102470008091E30087FDE1CF81E0E0CF81E0F5CFFF
:1024800080911501877F80931501909153049D7F62
:102490009093530484FF06C08F7E8093150182E0E1
:1024A0000E9481058091150185FF06C08F7D809374
:1024B000150180E20E948105A4CACF92DF92FF92AB
:1024C0000F931F93CF93DF93EC018B01F42E809138
:1024D000150182FF62C0C0903E04D0903F04CC162C
:1024E000DD0619F0209709F058C0809115018B7F07
:1024F00080931501C1E081FD10C080913C04909152
:102500003D049801281B390BC1E080910C0190918A
:102510000D012817390708F4C0E0C170809115013A
:10252000C0FB81F9809315016C2FC6010E949A08A7
:102530008091500481FF08C08091150180618093D3
:10254000150182E00E9487058091500485FF08C034
:102550008091150180628093150180E20E948705B9
:102560006C2FC6016CDBF11431F08091230585FFDF
:1025700002C086FF25C080912605909127056DD960
:1025800080913E0490913F049C01305221153043CC
:1025900008F49927A4DB74DF0FC0CE019052811597
:1025A0009043B0F4CE0199279ADB80913E0490913C
:1025B0003F04C817D90779F310933D0400933C04F6
:1025C000DF91CF911F910F91FF90DF90CF900895F1
:1025D000CE01EACFCF93DF93EC014A855B856E8510
:1025E0007F850E944B099B8190958091530489239C
:1025F000809353048C810E94870503DA86E0FE01F4
:1026000011928A95E9F7DF91CF910895CF93DF93E7
:10261000EC018D8181FD13C082608D838091530414
:102620009B81892B809353048C810E948105E9D979
:10263000488559856E857F85CE010E944B09109291
:102640003904109238048D8180FD02C0CE01C2DFB2
:10265000DF91CF9108950F931F93CF93DF9308E0FD
:1026600015E0CBEED1E0CE010E94AC35F8016191CE
:102670008F01681719F0CE010E94C8352196C33129
:10268000F2E0DF0781F7DF91CF911F910F9108955D
:102690000F931F93CF93DF9308E015E0CBEED1E0CB
:1026A000CE010E94AC35F80181938F012196C33190
:1026B000F2E0DF07A9F7C2EBD4E0FE018591959126
:1026C000009711F0FC0109952C96F5E0CE37DF0755
:1026D000A1F7DF91CF911F910F910895E8E0F5E008
:1026E000128E138E8FEA90E09183808385E0848F31
:1026F00028E833E13383228322E330E0378B268BD3
:1027000028EC30E0318F208F158E35A324A3178E4F
:10271000168E20E530E031A320A382A317A216A2D3
:102720009ADF13DB109231051092300580E084604F
:102730008093310580E395E025D9AACF0F931F93AD
:10274000CF93DF93833030F5653020F54F3010F5AF
:10275000C42FD0E0CC0FDD1F2EE1629FC00DD11D34
:10276000112436E9839FC00DD11D1124CE01899615
:102770000E94AC35082F10E0102F0027CE018A965A
:102780000E94AC359801282BC901DF91CF911F9190
:102790000F91089580E090E0F8CF462F672F2091A9
:1027A0009A0230919B02232B81F4703F39F4403F11
:1027B00061F480919802909199020895753028F4FF
:1027C0004F3018F4833008F4B9CF80E090E00895DA
:1027D000A0E0B0E0EEEEF3E10C944A357C0100910C
:1027E000070580910605082BC2E0D0E010E0C80183
:1027F0000C2E02C0959587950A94E2F780FD09C0DA
:102800002197A8F7D12C8D2DCDB7DEB7E7E00C943A
:102810006635DC2EB7018C2FC0DF0E948D06019734
:1028200079F3F1CFCF93DF93D82FC92FD1DF6D2F5D
:102830007C2FB3DF0E948D06DF91CF910895FC01BC
:102840008481811561F087819085009721F00E9435
:102850008D060C94260480819181E4DFFACF80E01C
:1028600008951F93CF93DF93182FD92F611589F007
:10287000411579F0ADDFC82F682F812F9D2F0E9461
:102880006304612F7D2F8C2F88DFDF91CF911F9103
:1028900008950E949A04C82FF4CFFC01462F878127
:1028A0009085009721F4658180819181DACF089528
:1028B000382F292FCB01A32FB22F8D3121E0920782
:1028C000A105B10520F48D519D4F0C94AC3580E0ED
:1028D000089585E290E00E94AC358B3D89F486E254
:1028E00090E00E94AC358E3659F487E290E00E9469
:1028F000AC3591E0853009F090E0892F8170089522
:1029000080E0FCCFAAE0B0E0E8E8F4E10C944435C4
:10291000C0900E01D0900F0181E090E090930F01E4
:1029200080930E01812C912CE12C5401F12C14C0C8
:10293000F80125913591472D6F2D8E2D3BD80E5FD7
:102940001F4F73948FE07812F3CF9FE0A90EB11C54
:10295000F394E5E0FE1639F08501000F111F0A51CE
:102960001D4F712CE5CFE394FBE48F0E911C83E0A7
:10297000E812DBCFB3DE1A8219821C821B821E8210
:102980001D8218861F8288EC90E09A87898703E170
:1029900012E0FE0131967F014AE050E0B801C70124
:1029A0000E94E635065F1F4F0336F2E01F07A1F7CE
:1029B0008AE0F70111928A95E9F74AE050E0B80100
:1029C000C7010E94E635065F1F4F033BF2E01F0779
:1029D000A1F786E0F70111928A95E9F746E050E009
:1029E000B801C7010E94E6350A5F1F4F033EF2E0BF
:1029F0001F07A1F7D0920F01C0920E012A96EDE0B9
:102A00000C946035AAE0B0E0E8E0F5E10C944935BB
:102A1000EBE1F2E080E5DF011D928A95E9F7E7E559
:102A2000F4E088E3DF011D928A95E9F78BE1C82E77
:102A300082E0D82E7F0103E612E0F701D182C08246
:102A40004AE050E0B801CE0101960E949C3588E032
:102A5000FE013196D60101900D928A95E1F78985A4
:102A60009A85D70113969C938E931297BAE0CB0E5A
:102A7000D11CE7E0EE0EF11C065F1F4F033BF2E0B6
:102A80001F07D9F62A96E8E00C946535A6E0B0E079
:102A9000ECE4F5E10C944A3508E513E083EBE82E0D
:102AA00082E0F82E98E0D92E46E050E0B701CE0142
:102AB00001960E949C35F8018D2D11928A95E9F7B7
:102AC000B8016C5F7F4F89819A810E94DF07F8010E
:102AD00091838083B8016B5F7F4F8B819C810E94C3
:102AE000DF07F801938382838D8186838E818783BC
:102AF000F6E0EF0EF11C085F1F4F83EEE81682E050
:102B0000F80691F62696E7E00C946635282FCB015F
:102B1000283070F44AE0249F90011124B9016D5EC1
:102B20007D4F4AE050E00E949C3580E090E008959F
:102B30008FEF9FEF0895AAE0B0E0E1EAF5E10C9491
:102B40004F359C0197558115914068F4BE016F5F28
:102B50007F4F822FDBDF892B31F489859A852A9676
:102B6000E2E00C946B358091200590912105F7CF20
:102B7000A0E0B0E0EEEBF5E10C944A35D62ED72F6D
:102B8000C42F122F8115A9F0409349040E94130A03
:102B90009093DE018093DD01C77081E001C0880F52
:102BA000CA95EAF70E94550DCDB7DEB7E7E00C9461
:102BB000663590914904491338C0E090DD01F090EA
:102BC000DE010E94130A9C012E193F0979018D2D07
:102BD0009D2FB1DFE816F90640F5C1130CC0802F18
:102BE000A9D8212F277081E001C0880F2A95EAF724
:102BF0000E94630DD9CFC770D1E08D2F01C0880F1F
:102C0000CA95EAF70E94630D90E2910F983050F454
:102C1000812F877001C0DD0F8A95EAF78D2F0E9402
:102C2000550DDDCF802F86D8BFCFC77081E001C0A2
:102C3000880FCA95EAF7DCCF9C01CB01BA01F901F4
:102C40003296E4914E2F50E06E17710548F0F9016D
:102C50003496659175910E948C3580E090E00895DE
:102C60008FEF9FEF0895A4E0B0E0E9E3F6E10C9464
:102C70004C358B01FC013396F49019821A821B8229
:102C80001C82452B31F48FEF9FEF2496E5E00C94E6
:102C9000683544E050E0BE016F5F7F4FCDDF97FDA8
:102CA000F2CF81E090E00F2C02C0880F991F0A94A8
:102CB000E2F7092E000CAA0BBB0B49815A816B81EC
:102CC0007C8184239523A623B72321E0892B8A2B9B
:102CD0008B2B09F420E0F801208380E090E0D5CF31
:102CE0009C01CA01F9013296E4914E2F50E08E17F3
:102CF000910550F0F9013496859195910E948C359B
:102D0000AADC80E090E008958FEF9FEF0895A4E0A3
:102D1000B0E0EDE8F6E10C9448357C016B01CA01A6
:102D2000F7013396B49019821A821B821C82892B78
:102D300031F48FEF9FEF2496E9E00C94643544E082
:102D400050E0BE016F5F7F4FC70176DF97FDF1CF87
:102D500081E090E00B2C02C0880F991F0A94E2F7E3
:102D600080959095092E000CAA0BBB0B49815A81C6
:102D70006B817C8184239523A623B723F6012081D0
:102D8000022F017010E00B2C02C0000F111F0A94DB
:102D9000E2F7012E000C220B330B802B912BA22B80
:102DA000B32B89839A83AB83BC8344E050E0BE019C
:102DB0006F5F7F4FC70194DFBECFAAE0B0E0E3EEC4
:102DC000F6E10C944335FE0131968AE0DF011D9255
:102DD0008A95E9F79FE2A92E91E0B92E8F0124E3AD
:102DE000E22E21E0F22E3F01CC24C394D12CF50138
:102DF00081915F018F3F09F447C0F894E82FE29575
:102E0000EF70F0E021A18F70A60102C0440F551FA2
:102E10008A95E2F7CA01922F982B91A392A18095EF
:102E2000892382A3789400C0E4E3F1E021E030E05C
:102E3000812C912C41914F3F09F44AC0A42FA295B7
:102E4000AF70A05EB0E08C9190E04F7002C095959D
:102E500087954A95E2F7817081113AC0C901882AA5
:102E6000992A220F331F51E0E334F50719F7F501D2
:102E7000319780818F3F11F00E94A10780EA8A95E7
:102E8000F1F7D8018D929C920E5F1F4FEA14FB045C
:102E900009F0ADCF4AE050E0B30183E792E00E9431
:102EA0007F35892BC1F08AE0F301A3E7B2E00190FE
:102EB0000D928A95E1F781E08093DC010E94130A6C
:102EC0009093DB018093DA012A96EEE00C945F3553
:102ED00080E090E0C4CF8091DC018115A9F30091DE
:102EE000DA011091DB010E94130A801B910B0597F8
:102EF00058F34AE050E063E772E08DE892E00E9408
:102F00007F35892B49F08AE0E3E7F2E0ADE8B2E0F3
:102F100001900D928A95E1F71092DC01D5CF4F9286
:102F20005F926F927F92AF92BF92CF92DF92EF92B9
:102F3000FF920F931F93CF93DF93CDB7DEB76097C8
:102F40000FB6F894DEBF0FBECDBF1A821982FE0104
:102F500033968EE0DF011D928A95E9F702E110E0D9
:102F600093EEA92E92E0B92E2DE1422E55245394D2
:102F7000612C712C73016201B1E14B1651046104A3
:102F800071041CF080E1C82ED12CA601B501CE0140
:102F900001960E94B935AC0CBD1C0D2C000CEE083E
:102FA000FF084C185D086E087F080150104011F7AB
:102FB00060960FB6F894DEBF0FBECDBFDF91CF9104
:102FC0001F910F91FF90EF90DF90CF90BF90AF9047
:102FD0007F906F905F904F9008956FEF85E290E043
:102FE0000E94C8356FEF86E290E00E94C8356FEF0F
:102FF00087E290E00E94C83560E088E290E00E949D
:10300000C83580DC8CDF6BED85E290E00E94C8352E
:103010006EE686E290E00E94C83565E087E290E0C7
:103020000C94C835A0E0B0E0E8E1F8E10C94483534
:10303000EC0108810115F1F0013009F042C08981ED
:10304000813029F48A8123960E949A0EF2CF823031
:1030500029F48A8123960E94720DEBCF833029F4E4
:103060008A8123960E942D0EE4CF843041F022966F
:103070008111DFCFCDB7DEB7E9E00C9464358A81EA
:10308000239620E030E09AE0682F6053770BAB0185
:103090006A30710560F02115310551F3EFE9FFE069
:1030A0003197F1F700C0000021503109F4CF929F11
:1030B000B001939F700D11249A01260F371F89913B
:1030C000E3CFE02FF0E0E155FE4FB490202F26959E
:1030D0002695269530E0F901E156FE4FC490077021
:1030E000D12C002E02C0D594C7940A94E2F7F1E0E7
:1030F000CF22DD24F901E157FE4FE490F12C002EA0
:1031000002C0F594E7940A94E2F761E0E622FF2416
:10311000F901E158FE4F1491C114D10441F5E114B5
:10312000F10491F086EE0E94720D60E070E08B2D4C
:103130000E94840E86EE0E942D0EC114D10449F027
:1031400081EE0E942D0E05C060E070E08B2D0E9484
:10315000840EE12FF0E002C0F595E7950A95E2F7BD
:10316000E0FF03C08CE20E949A0E219662CF81EEAE
:103170000E94720DE114F104A9F660E070E08B2D5D
:103180000E94840EDDCFACE0B0E0E9ECF8E10C94F5
:103190003F357C01DC0114968C91811509F411C234
:1031A00060E0C7017ADB9C01F70186818031D8F0AD
:1031B0008581811109C02115F0E53F0708F0D1C0D4
:1031C000211540E2340758F1309342032093410324
:1031D000D70112968D919C919093400380933F0369
:1031E0001092140123C090914D0380914C039813C9
:1031F0001DC080914803811521F0809149038031E1
:10320000A8F0D70115968C918111DECF2115B0E57C
:103210003B0708F0A6C02115E0E23E0738F4283E3F
:10322000310508F095C0203E310570F261E0C7011C
:1032300034DB8C01F7018581811521F180913804FF
:10324000909139040097F1F008171907D9F0FC01A3
:10325000FF27887F9927892B09F098C074E0EE0F2B
:10326000FF1F7A95E1F7E854FC4F858184608583E0
:1032700011830083CF01CAD91092530461E0C701C2
:103280000CDB8C01D70115968C919091AD039111B7
:1032900043C2811509F479C13091500480915304DF
:1032A00020914E040115B0E51B0708F098C00115E8
:1032B000E0E21E0708F46DC0D70116969C9190318C
:1032C00008F477C099E0F701A9E9B3E001900D9205
:1032D0009A95E1F71093A1030093A0031092A30322
:1032E000832B822B8093980309378CE7180709F00A
:1032F0009CC181E00E942409809198030E945A0D8C
:1033000089E0E9E9F3E0AFE4B3E001900D928A953A
:10331000E1F78091A30380934E0386E0F701AFE4C9
:10332000B3E001900D928A95E1F780914E0380936E
:10333000AD038FE493E027DF1092AD03D70115961C
:103340008C9181112DC1809198030E94680D28C134
:10335000C9019A9581159F4108F036CF211134CFCC
:1033600065CF203E42E5340760F4203852E535074A
:1033700008F05CCFC90180529245809708F024CFB5
:1033800055CFC90187579C470297F8CFE0E0F0E09E
:103390006CCF0115B7E01B0761F030F4A801405E67
:1033A0005109483051058CCF0115FFE01F0709F086
:1033B00089CF8091230580FFB3C40E94130A5C016A
:1033C000D70115968C91811105C3013E110509F0B5
:1033D00028C4809115018F7E809315014DC3003E56
:1033E00042E5140758F4003652E5150710F00C9426
:1033F000DA23A80152554034510562CFA80147573E
:103400005C474530510508F05DCF09379CE7190747
:1034100009F403C10A37ACE71A0759F6A090A003D4
:10342000B090A103E0919803EF83E983BE016F5F41
:103430007F4FC5010E94DF072C01F981FC8768E5F9
:10344000C62E63E0D62E01E010E022242A94D60195
:1034500017963C90179733FE53C06D907C90119750
:1034600012968D909C90139746145704B9F41496B5
:10347000BC91BB87232DF60146816B2F8C850E9462
:10348000F807811559F08B850E941104281634F431
:10349000D60115969C918401192B282E48145904A5
:1034A000C9F431FE17C0F601F581FB87232DD60143
:1034B00016964C916F2F8C850E94F807811551F05C
:1034C0008B850E94110428162CF4F6019481830147
:1034D000192B282E30FE14C0FFEF2F1211C001301F
:1034E000110571F4232DD60116964C9160E08C8560
:1034F0000E94F807811521F0F60185818401182BBF
:10350000F8E0CF0ED11C28E9C21623E0D20609F05C
:103510009ECF0130110509F0EFC08F8182958F7029
:103520003F81832B8F7011E0303108F410E0129549
:10353000107F182BA11440E2B40608F0D5C0A114E6
:1035400051E0B50610F01B29BB240A2D812F8D7088
:103550004A2D811509F4DCC06AE08DE497E00E94F1
:103560003509282F30E02115310559F4402F66E147
:103570008FE297E00E943509282F30E0811509F489
:10358000B9C0F901F12B8F01B7C00937BCE71B07A0
:10359000E1F48091A0039091A103892B09F0BDCEA5
:1035A000809154048770811561F0D70115968C9134
:1035B000811539F08091310582FF03C082E00E94BD
:1035C00066052C96E2E10C945B350A37ECE71E07A2
:1035D00009F0A4C08091AB039091AC03892B01F357
:1035E000F7018581811539F08FEF0E9424098091C0
:1035F000A3038093A20386E0F701A4EAB3E001905D
:103600000D928A95E1F78091A2038093AD0384EA3D
:1036100093E0B9DD1092AD03C3CF8091A0039091E8
:10362000A103892B09F4BCCF64CE0A37BCE71B0782
:1036300009F4F4CEC80197578038910510F00C9426
:10364000DA23003108F0ACCF6CE171E080E090E06B
:103650002FD98111A5CF812C912C54010111EBC0E0
:1036600004E0AE014F5F5F4F6A01D601E02F1D926B
:10367000EA95E9F724013501FFEF4F1A5F0A6F0A57
:103680007F0AC501B40114D98983811509F488CF53
:10369000813009F058C1A50194012E5F3F4F4F4F73
:1036A0005F4F2F83388749875A87C301B20100D9FA
:1036B000182F8A83811509F473CF8FEF810F833020
:1036C00008F0D4C06F81788589859A85F1D88B837D
:1036D000811511F0C601A6DC2401350133E0430E4B
:1036E000511C611C711CBFC0C501905281159043D3
:1036F00008F42ACF00E010E087E0E4EAF3E0DF011D
:103700001D928A95E9F71093AC030093AB0362CF47
:1037100068E085E497E023CF81118CCF0115E7E5C0
:103720001E0708F413C10115B8E51B0708F071C0A6
:103730006801E7E5DE1A6EEA73E08C2DE7D9892B84
:1037400031F5C60144E0880F991F4A95E1F7FC0165
:10375000E854FC4F2281213009F00AC12091AE03C8
:103760003091AF03232B99F02091B0033091B10336
:10377000232B69F02091B2033091B3034091B4033D
:103780005091B503242B352B232B09F4FBC0580192
:10379000F8EFAF22BB24A114B10409F001CFF80166
:1037A000FF2734E0EE0FFF1F3A95E1F79F01285401
:1037B0003C4F6901D70115968C91E354FC4F9081E1
:1037C00080FB90F99083811509F4E7C00E94130AE9
:1037D00090933B0480933A04F60182818F5F828349
:1037E0008091530490915004892B838380914E04DF
:1037F00084834681578166857785C6010E944B097F
:10380000D60115968C9181FF5801B0923904A0928F
:1038100038048091230580FDD0CDD70115968C9179
:10382000F801E851FC47E730F10508F079C2E75F9D
:10383000F94C0C941A35FDE18F16F1E09F06A104B6
:10384000B10409F4ADCEC501B40132D82FEF821A0C
:10385000920AA20AB20A8111EECF0150FFCE4F8028
:10386000588469847A8453014201FFCE8BEF810F23
:10387000833090F52401350143E0440E511C611C56
:10388000711C6F81788589859A8512D88B83811503
:1038900051F3C301B2010CD88C83811108C02401FB
:1038A000350154E0450E511C611C711CDCCF8B812D
:1038B0009C818130AFEF9A0710F0982F882716303F
:1038C00029F0173031F00E949C2CE9CF0E945A2C2D
:1038D000E6CF0E947B2CE3CF143009F0C0CF6F817C
:1038E000788589859A850E945814182F24013501FE
:1038F000B4E04B0E511C611C711CC501B4016D5F1D
:103900007F4F8F4F9F4F0E945814111509F448CED6
:10391000811509F445CE8150990B4FEF489F9001D6
:10392000499F300D1124E12FE150FF0B2E0F3F1F57
:103930002150310908F497CF8FE99FE00197F1F703
:1039400000C00000F5CFC6016DDB8DCF809123054F
:1039500080FD33CD07372CE7120709F4A5C382E0B9
:1039600008373CE7130709F069C10E94550496C364
:10397000223009F00CCF2091B2033091B303232BF6
:1039800009F405CFFC01E354FC4F20812E7F2083F6
:1039900088549C4F0E940613FACEF9014485558540
:1039A00066857785C9010E944B09D60115968C91D1
:1039B00081FF2FCFC6010E94EA12809138049091B6
:1039C00039040817190709F024CF1092390410920E
:1039D00038041FCF8091150182FF06C040E0B50179
:1039E00080E090E00E945D120431BCE71B07C9F142
:1039F0000531ECE71E0709F1D70115968C910331CB
:103A0000BCE71B07E1F590911501916090931501BA
:103A1000811509F413C110923F0410923E041092D4
:103A20004904C8019057839708F44CC20631BCE79B
:103A30001B0709F0EFC091E082C190911501892F19
:103A40008E7F90FF8160809315010E9440128091CB
:103A5000150180FFEEC0F7018581811509F460C171
:103A60002CC0809115018E7F809315010E94401219
:103A70008091150180FDEFCFF7018581DDC09801B0
:103A8000305221153043F0F0D70115968C9190916A
:103A9000150190FFC2CE0832110508F0F4C00E31B6
:103AA000110508F032C19801245031092A3131053D
:103AB00008F402C1811509F44DCF10923F04109211
:103AC0003E042EC110923F0410923E048111A0C00A
:103AD00090914B0480910705282F30E02095309578
:103AE00050E029233523232B09F0EDC20034B2E541
:103AF0001B0708F01EC30032E2E51E0708F030C3C2
:103B00000115F0E51F0708F0F1C2011520E41207C6
:103B1000C0F0F70186818031A0F48581811111C048
:103B2000212F2F7081E090E002C0880F991F2A9505
:103B3000E2F720914B0430E082239323892B09F094
:103B40002FCDF70187819085009709F474C30E94F7
:103B50008D06D82E192F86E0F701DE01119601900F
:103B60000D928A95E1F7F701B580C680C2948FE087
:103B7000C822809154048770811509F1AB2CB114CF
:103B8000F9F0892F807F803469F080E28D0D8830D4
:103B9000B0F0892F807E803229F4F2E0DF1678F0D1
:103BA000C11469F08091310582FF09C082E00E9452
:103BB0006605809154048770AA24A3948111A12CD6
:103BC000812F82958F70883009F4A2C408F05DC3FC
:103BD000843008F047C3012F0F70823008F466C3A9
:103BE000812F807F803211F00295007FD11409F47B
:103BF00093C331E0D31609F43DC4B11409F452C49F
:103C0000C11409F44AC48D2D0E94720D8D2DBBC3C1
:103C1000109249040737ECE71E0709F037C281E02C
:103C20003BC2053E110541F5809115018F7D8093C2
:103C30001501D70115968C918111F1CEC801805ED6
:103C40009245809708F032C2D70115968C91811168
:103C50003FCF0F7181E090E0FC0102C0EE0FFF1F2B
:103C60000A95E2F78F016E2F83E090E00E94C8353D
:103C7000802F0E94450494CCC80190528115904336
:103C800008F002CF25CF0933110558F40D32110584
:103C900008F040C00B321105E9F1811509F45ACE44
:103CA000BACE04361105B1F1811509F4B6CD1092E2
:103CB0003F0410923E04B1CD9091230594FDFACEBD
:103CC000811509F4CDC080914E0490915004892B48
:103CD0008D7F811509F45BC010923F0410923E0461
:103CE0008091230581FD53C060E0C8010E949A08BD
:103CF00060E0C8010E941F0E80914E048D7F0E94DB
:103D0000960A82E00E9466054BCC9091230593FDB4
:103D1000D1CED6CF9091230592FFD2CF8111C7CFBC
:103D2000F7018581811110924904D70115969C9164
:103D3000911177CE0631FCE71F0709F00BCE809179
:103D400050043091220530FF04C0282F2474211123
:103D500083C1282F2A7A31FF04C0482F41714111B5
:103D600020E0432F487032FF79C1382F3878311561
:103D700009F474C1411186C191117BC180914A043B
:103D8000811509F481C185E30E94E30978C189E0C6
:103D9000F701A0E4B4E001900D928A95E1F710924A
:103DA00043041092420480913E0490913F0408170E
:103DB0001907C9F52091230525FF35C0309115015C
:103DC00031FF02C026FF2FC020913C0430913D04FA
:103DD0006501C21AD30A0E949B15C816D90618F5A8
:103DE0008091500481FF08C080911501806180930B
:103DF000150182E00E9487058091500485FF08C06C
:103E00008091150180628093150180E20E948705F0
:103E1000609115016695617080913E0490913F0418
:103E20000E941F0EBDCB80914E04D0905004D82A22
:103E3000D1FADD24D0F88D7F0E94960A10933F04BA
:103E400000933E04B0923D04A0923C04DD0C6894C3
:103E5000D2F890911501997FD92AD092150151CFAE
:103E600040E0B501C8010E945D129ACB06E221EE46
:103E700041EE6AE17CE70E94B81592CB07E225EE9D
:103E800045EE6BE17CE7F7CF06E221EE40EE68E11C
:103E90007CE7F1CF07E225EE44EE69E17CE7EBCF6A
:103EA00006E221EE42EE6CE17CE7E5CF07E225EE8B
:103EB00046EE6DE17CE7DFCF08E221E045EE6EE102
:103EC0007CE7D9CF84E090E00E94B435909331052F
:103ED00080933005F801E150F047E232F10520F41B
:103EE000E05FF94C0C941A35809130058160809325
:103EF000300580E395E00E94C20C0E94A50E50CBD5
:103F000080913105886080933105F3CF8091300531
:103F10008260EDCF809130058460E9CF80913005DB
:103F20008860E5CF809131058160EDCF80913105CA
:103F30008260E9CF809130058061D9CF80913005D2
:103F40008062D5CF809130058064D1CF0E94A50ECC
:103F5000809130058068CBCF809130058C60C7CFD1
:103F6000809131058360CFCF809130058E7FBFCFA8
:103F700080913105877FC7CF809130058D7FB7CF86
:103F8000809130058B7FB3CF80913005877FAFCF95
:103F9000809131058E7FB7CF809131058D7FB3CF72
:103FA000809130058F7EA3CF809130058F7D9FCF8C
:103FB000809130058F7B9BCF0E94A50E80913005AC
:103FC0008F7795CF80913005837F91CF8091310598
:103FD0008C7F99CF8091300582FB992790F921E061
:103FE000922790FB82F990FB83F981CF8091310574
:103FF000982F909590FB80F990FB81F984CF909158
:104000003005892F8F7B96FF806471CF0E94A50EAB
:1040100090913005892F97FB87F9805868CF61E030
:104020008EE090E00E94C83564CF60E0F9CF9091B7
:104030003005892F8F7E94FF806159CF9091300594
:10404000892F8E7F90FF816052CF90913105892F0B
:10405000877F93FF886057CF20E07DCE411519F010
:104060008272811189CE911509F488CE85E32111E0
:1040700002C090E089E290934A040E94AF090E9436
:10408000010D8ECA20E0ECCF89E27ECE82E00837B7
:104090004CE7140709F0D2CD0E944B0443E062E0E4
:1040A00081E00E94CE047CCA81E05FCC90914B04F9
:1040B00080910705282F30E02095309550E0292386
:1040C0003523232B19F0982390934B040B37FCE7EF
:1040D0001F0709F00BCDD70115969C91911509F496
:1040E0005FCA0E9414040E94FD085ACAC801905574
:1040F0008115924008F462C0D70115968C91811504
:1041000009F41FCD03304CE7140709F489C00115E9
:104110005CE7150709F015CD0E94A50EAFEFB4E3DB
:10412000ECE0A150B040E040E1F700C000000E9488
:104130003B0CC801805C9245809758F1F70185815E
:10414000811509F4FECC0A35FCE71F0709F46FC09E
:1041500008F053C001303CE71307A1F60E94C30EDC
:10416000802F8F7120914B0430E041E050E0082E09
:1041700002C0440F551F0A94E2F724233523232B52
:1041800009F4DFCCD70115969C91911509F408CA62
:10419000AACF802F8F7120914B0430E041E050E096
:1041A000082E02C0440F551F0A94E2F7242335233A
:1041B000232B09F4C6CCF7019581E7CFC80125E090
:1041C000969587952A95E1F78F7020914B0430E002
:1041D00041E050E0082E02C0440F551F0A94E2F758
:1041E00024233523232B09F4ACCCD70115969C91BD
:1041F000911179CF1092500442CF0B358CE71807FC
:10420000C1F00C359CE7190709F09BCC8091310572
:1042100082FB882780F991E089270E94C90C91CC04
:104220006FEF7FEF80E090E00E94E23597CF81E072
:10423000F4CF80E0F2CF8581C080D180811569F014
:10424000C6010E94E813182F682FC6010E9463045C
:10425000B601812F0E94CD137ACCC6010E949A0428
:10426000182FF6CF843009F436C18D2D912F0E947E
:104270002604811509F48CC0B11409F4EAC0C114F4
:1042800009F46EC01092340583C0893009F4C5C1A9
:104290008A5F8F70823048F722EFD212D0C1812F0F
:1042A0008F71B110C9C10E944B0460C1103110F070
:1042B0000295007FB114B9F0011559F080E28D0D1F
:1042C000883010F0D11009C0802F0E9481050E9413
:1042D000010D8D2D0E94720DC8CF80915304802B4B
:1042E00080935304F4CF8D2D0E942D0E011509F4F7
:1042F000BCCF80E28D0D883010F0D11004C0802F2B
:104300000E94870506C00095809153048023809306
:1043100053040E94010DA9CF8091310582FD12C086
:10432000B11449F0011529F0802F0E9481050E94E7
:10433000010D80E0CFCF80E00E942D0E011509F421
:1043400094CFDDCFB11409F45DC0C11012C0802F2D
:104350000E94550D80E0912F0E9426048115C1F026
:1043600080915204809351048091500480935204B0
:104370000FC041E0C41230C0D0904E04802F8D2178
:10438000081320C080E0912F0E94260481117ACF6B
:10439000A11409F4FCC08091540480FDF8C0D70139
:1043A00015961C928695869586950E944B04C701AA
:1043B0000E94C318809154048695869586950E9424
:1043C0005504E5C00E94130A90934D0480934C0459
:1043D000D02AD0924E04D6CF80912405823090F21C
:1043E000C812D0CF802F0E94550D802F0E94810AC5
:1043F00080914F04902F9823091721F2802B8093EE
:104400004F04C0CFC11011C0802F0E94630D802FB8
:104410000E94810A80914F04902F9823911549F0B2
:104420000095082300934F0404C080912405823036
:1044300010F480E008C051E0C512FBCF8091500419
:1044400080238111E1CF912F0E942604811509F468
:104450009FCF40E060E089819A810E9431149C01E5
:1044600010915004C11409F488C1109234051093BE
:1044700052048ECF80912A05B11441F08C1510F4AE
:1044800081E081CF802F0E94550DEFCEC81608F035
:10449000ECCE802F0E94630DE8CE802F0E94550D38
:1044A0008D2D59CFC11499F089E3D8120BC080919A
:1044B0002805909129050E942D0C8D2D0E942D0E0E
:1044C0008D2DC1CF8091260590912705F4CF802FA7
:1044D0000E94630DF5CF812F869586958370811597
:1044E00069F0813009F0C1CE8D2D912F9370B110FC
:1044F00002C080E090E00E948709B7CE8D2D912FF9
:104500009370B11002C080E090E00E945F09ADCED0
:10451000812F8370811148C0B11028C04D2D429564
:1045200046954770440F440F8D2D8F70042E01C0A7
:10453000880F0A94EAF72D2D2071211539F02FE00C
:1045400030E001C0220F4A95EAF72095312F3695C9
:1045500036953370323019F13330F9F04091060559
:104560003130D1F0822B84230E9445040E945009EF
:104570008D2D912F0E942604811549F0AB2CB1148A
:1045800009F467CFC11409F4EFC01092340560E05C
:10459000C7010E944D1415C8842B822BE5CF822BB6
:1045A000909106058927E0CFB11459F110FFDECFB5
:1045B0004D2D429546954770440F440F8D2D8F70B9
:1045C000042E01C0880F0A94EAF72D2D20712115C1
:1045D00039F02FE030E001C0220F4A95EAF720952C
:1045E000312F369536953370323091F0333071F08B
:1045F00040910705313049F0822B84230E94480402
:10460000B5CF823008F4B2CFD3CF842B822BF6CF34
:10461000822B909107058927F1CF012F0F70B114DC
:1046200039F0802F0E944B048D2D0E94550D9ECF96
:104630008D2D0E94630D802F0E94550497CF93EF1C
:10464000D91680F4A0EFDA16E9F0B1EFDB16F1F13C
:10465000B11409F47AC0C11409F474C08D2D0E94FC
:10466000720D84CFE3EFDE1609F1F4EFDF1651F19E
:10467000B110F1CFC11409F440C08091260590918A
:1046800027056CC080912A05B11461F0C81608F0A6
:104690006DCF212F2F7181E090E001C0880F2A9506
:1046A000EAF7B7CF8C1508F461CFF3CF80E0B114EF
:1046B00009F4A4CF81E0912F9F7101C0880F9A95D2
:1046C000EAF79CCF8091310582FD06C0812F8F7162
:1046D000B11409F4B1CFE7CD80912405823038F1CF
:1046E000B114B9F0909154049770943049F4109239
:1046F00054041092560410925504812F8F719CCF50
:10470000C81608F033CF63E0812F8F710E946E0AC4
:104710002DCFC81640F010925404109256041092F7
:10472000550464E0F1CF81E00E9466051FCFB1100F
:10473000EACF81E00E94660522E0C21608F416CF97
:1047400082E0F2CF812F8F71AECDC114B1F239E387
:104750008091280590912905D3128FCF0E942D0CAE
:104760008D2D0E942D0E02CF809152048093510412
:1047700080915004809352040ACF80913205909129
:1047800033052817390709F072CE8091250582FF7D
:104790006CCE80913405811509F467CE8091510467
:1047A0000E94550D8D2D0E949A0E809151040E94F9
:1047B000630D5BCEC80197558115914010F40C94A0
:1047C000C71B27C8A0E0B0E0E8EEF3E20C944A353E
:1047D00080914903803108F049C0809148038115D8
:1047E00009F444C0C0914D0389E0D82E80914C0358
:1047F0008C17E1F1EC2EF12CDC9EE0011124FE017E
:10480000E752FD4F84818115B1F19181809144037C
:10481000981331C090818091430398132CC08581F7
:10482000811129C002811381809145039091460333
:10483000081B190B60E083E493E00E944D140E9472
:104840009B1508171907B8F4809149038F70806190
:1048500080934903C152DD4F88818F7080618883C6
:1048600083E493E00E94C3180E945C05CDB7DEB7D5
:10487000E7E00C946635E7012196C770B7CFA0E05A
:10488000B0E0E5E4F4E20C944835D82EC92E89E076
:10489000B82EC0914D0380914C03C817C9F10C2F5D
:1048A00010E0BC9EE0011124CE0187529D4F7C0197
:1048B000FC018581811581F0C7010E941F148115BB
:1048C00059F0C152DD4F88818F7080618883F70174
:1048D000808191810E94D80EC7010E94C318209147
:1048E0004D0330E02F5F3F4F2770332720934D0358
:1048F000B09EF001B19EF00D1124E752FD4F818171
:104900008C11C7CF80818D11C4CF8581811509F2AB
:10491000CDB7DEB7E9E00C946435EF92FF920F93C8
:104920001F93CF93DF93EC01EA80FB802091140169
:10493000211539F010E0812FCDB7DEB7E6E00C94F9
:104940006735E61AF70A24EFE21621E0F20690F73F
:1049500060E0CE010E944D149C013052211530437D
:1049600048F700914103109142030E9427058115E9
:1049700009F3C8010E942705182F8115D9F28091EB
:104980002E0590912F05853F21E0920710F084EFCE
:1049900091E0E816F90670F68E818F7080618E8343
:1049A000888199810E94D80E0E94ED04CE010E9458
:1049B000C318C1CFAFE0B0E0E0EEF4E20C944035B4
:1049C0008C0186E0F801DE011A9601900D928A951D
:1049D000E1F7D8013C9011964C9011971296CD902A
:1049E000DC90139714965C90149715966C90F09049
:1049F0004703611014C05091D802252F30E0E0E049
:104A00008E2F0E2E000C990B821793077CF0F1105D
:104A100057C0511441F0C8010E94C31804C0F110DE
:104A20004FC0511035C0FF24F394B2C0880F991FB6
:104A300088539D4FDC0111964C911197441203C08D
:104A40008C91831511F0EF5FDBCFEF3F01F3D801BD
:104A500016968C9116978F70806116968C93E51739
:104A6000A0F4AFEFA50FA093D802EA1770F4F0E01E
:104A7000EE0FFF1FE853FD4FB0E0AA0FBB1FA85376
:104A8000BD4F8D919C91918380830E94ED04BFCF97
:104A9000C8010E941F14811509F4BDCF60913F0326
:104AA00070914003C80139DF8111BDCF89E0F80161
:104AB000A3E4B3E001900D928A95E1F783DEB3CFD2
:104AC00060E083E493E00E944D147C0153E4A52E42
:104AD00053E0B52E709048038091450390914603B2
:104AE000711409F48CC24601881A990A60E0C50164
:104AF0000E944D140E949B158816990608F02FC23B
:104B0000511409F490CF80914403F8019181B09041
:104B10004903F0E1BF1608F0D7C19813B5C09091D2
:104B20004303D8018C919813AFC020914A03309170
:104B30004B0317968D919C912817390709F0A4C053
:104B4000611048C08B2D8F7080618093490383E48E
:104B500093E00E94C31880914903F8018683F09086
:104B60004503E090460349E0D42E00914D03809127
:104B70004C03081751F0D09E8001112407521D4F9D
:104B8000D80115968C91811108C00E945C05F12C0A
:104B90008F2D2F96E1E10C945C35F801B280C38033
:104BA000C8010E941F1481110EC0C8010E94C318C1
:104BB00080914D0390E001968770992780934D0373
:104BC000FB2CEC2CD2CF6F2D7E2DC801A6DE8111DF
:104BD000EFCFDBCFF0E2FF1AE11420E3F20608F496
:104BE000DEC080914903816080934903809125054F
:104BF00081FFCDCF83E493E00E94C31800914D0361
:104C000080914C03081709F457C1E02EF12CB9E04C
:104C10000B9F8001112407521D4FC8010E941F14D1
:104C2000811509F449C189E0F801A3E4B3E00190DA
:104C30000D928A95E1F7EFEFEE1AFE0AF7E0EF2208
:104C4000FF24E0924D030E945C0589E0F82E00915C
:104C50004D0380914C03081709F497CFF09E800113
:104C6000112407521D4FC8010E941F1481118DCFBE
:104C7000C8010E94C31880914D0390E0019687708F
:104C8000992780934D03E3CF30E2F31AE11480E3D8
:104C9000F80608F0B8C0611082C040E0642D832D92
:104CA0000E940E0C81114FC040E0642D832D0E94A4
:104CB0000E0CF82E811509F4D3C08091250580FFD4
:104CC00066CF83E493E00E94C31860E083E493E03E
:104CD0000E944D148C01D0904D0398E0C92E23E41E
:104CE000822E23E0922E39E0532E80914C03D81669
:104CF00099F0AD2CB12C5D9CC0011124FC01E75250
:104D0000FD4F7F0160E0CF010E944D143C01D701AF
:104D100015968C9181117AC0B8E0CB1628F419E071
:104D200080914D038C118CC08A859B85A8DD0E94E3
:104D3000ED040E945C0589E0E3E4F3E0DF011D92ED
:104D40008A95E9F724CF60E0C8010E944D14809154
:104D5000250583FFA9CFB80183E493E00E94FA04FC
:104D60008111A2CF809149038F70806180934903A4
:104D700080914303909144030E94D80E83E493E012
:104D80000E94C318E3E4F3E089E0DF011D928A95F5
:104D9000E9F78A859B8573DD0E94ED04F6CE80914C
:104DA000490381608093490360E0C8010E944D146B
:104DB0008091250583FF1ACFB80183E493E00E9418
:104DC000FA04811113CFF0904903E894F0F8F092BF
:104DD0004903C8010E941F148111D9CE8F2D8F70F5
:104DE00080618093490380914303909144030E9422
:104DF000D80E0E94ED0483E493E00E94C318E3E41C
:104E0000F3E089E09BCF6110ECCE4ECF105201153C
:104E1000E0E31E0708F080CF8091250583FD09C0DF
:104E2000CD2CC5010196F82FF770DF2E83014701C5
:104E30005CCFB701C4010E94FA04811591F3F0CF51
:104E4000189FC001112487529D4F0E94C318809162
:104E50004D0390E001968770992780934D0360CFB2
:104E60008A859B850E941214292F22952F709034D9
:104E700050F49F70223080F0911599F0F8019681DE
:104E8000903178F485CE2A5F2F70223078F0C801F7
:104E90000E94C318F72C7CCE911519F0811509F4E6
:104EA00077CE805E883008F473CEF1CF803F08F46F
:104EB0006FCE815F8330F7CF89E0E3E4F3E0DF0179
:104EC0001D928A95E9F7C1CE981341C09091430392
:104ED000F801808198133BC020914A0330914B0325
:104EE000878190852817390791F561100DC0B6822A
:104EF000C8010E94C31889E0F801A3E4B3E001905F
:104F00000D928A95E1F78FCDC8010E941F1481157B
:104F100009F481CD80914903803208F4C7CD809196
:104F20004303909144039A838983DC82CB828091EE
:104F300047038D831E82BF8280914A0390914B0369
:104F400099878887CE0101960E94C318AFCDC8010A
:104F50000E941F14811509F45ECD6114D9CFF09021
:104F60004903F0E1FF1638F483E493E00E94C3188C
:104F700089E0D501E4CE511409F455CD9091440354
:104F8000F8018181981333C0909143038081981375
:104F90002EC020914A0330914B03878190852817BA
:104FA000390729F561100AC0F682C8010E94C318AA
:104FB00089E0D5011D928A95E9F735CDC8010E9497
:104FC0001F14811509F427CD80914903803208F41C
:104FD0006DCD80914303909144039A838983DC8251
:104FE000CB82809147038D831E82FF82A5CFC801AB
:104FF0000E941F14811509F40ECD6114E3CF7601D0
:10500000E81AF90A60E083E493E00E944D140E94DC
:105010009B15E816F90608F05EC0511409F403CD9B
:10502000611409F4F8CC90914403F801818198133C
:1050300039C0909143038081981334C020914A0372
:1050400030914B03878190852817390759F5809156
:10505000450390914603C81AD90A60E083E493E0BF
:105060000E944D1480912C0590912D05C816D906EB
:1050700008F041CF8091490380FD3DCF803108F495
:105080003ACFD80116968C931697982F907F903F21
:1050900009F42ECF982F907F905F8F70892B1696F2
:1050A0008C9326CFC8010E941F14811571F0609166
:1050B0003F0370914003C80130DC811509F4F6CC40
:1050C00089E0E3E4F3E0DF0175CF8091490381607B
:1050D00080934903A0CC89E0F50111928A95E9F704
:1050E00056CDA2E1B0E0E7E7F8E20C944D350A872F
:1050F0001B872C873D874E875F87688B798B8A8BD0
:10510000CE010A9657DC81112AC089E0FE013A9649
:10511000DE01119601900D928A95E1F720914C03E2
:1051200040914D038E858115D1F030E0C901019683
:105130008770992748171906D1F199E0929FD001FD
:10514000939FB00D1124A752BD4FFE0131960190DF
:105150000D929A95E1F780934C030E945C0519E04B
:1051600080914D0390914C03891741F0189FC00125
:10517000112487529D4F1EDC811127C08E8581111D
:1051800012C08091140181110EC08C859D852091E3
:105190003F0330914003821B930B8F3F9F4318F0D6
:1051A00081E0809314016296E4E00C9469350E94DA
:1051B000A50E10924C0310924D0389E0E3E4F3E056
:1051C000DF011D928A95E9F7CACF80914D0390E0E7
:1051D00001968770992780934D03C2CFEF92FF927B
:1051E0000F931F93CF93DF9380910305E091FA0112
:1051F000CDE0811130C0CDB7DEB7E6E00C94673565
:10520000D1E0DE0FD093FA01EE2EF12CCE9FF0010B
:105210001124E556FB4F84818115E1F0878190854B
:10522000892B21F481859285019651F400811181A9
:10523000228133814481558166817781808551DF68
:10524000CE9DF001CF9DF00D1124E556FB4F148249
:1052500010925304ED2F80910305E81788F2109205
:1052600003051092FA01C7CFA4E0B0E0EAE3F9E247
:105270000C94403520919A04298317E0912E01E087
:1052800010E08DE0382E94E0492E552453948091FF
:1052900099049981891307C0A1DF0E94C008249650
:1052A000E1E10C945C355981452F50E05C834B83E0
:1052B000FA01EE0FFF1FE157FB4F80819181989E0D
:1052C000D001999EB00D1124FD01E95AFB4FFA83DC
:1052D000E983248121115BC060900305EBE9F4E0D0
:1052E00060E070E0812C661508F04FC0A384B484A0
:1052F000A981BA81CD90DC904FEF5FEF712C272D03
:1053000030E07901EE0CFF1CEC0CFD1CD701ED9098
:10531000FC90E114F10439F0AE14BF0409F09A01D5
:105320007394A901ECCF4F3F5407D1F1D80102C0CB
:10533000AA0FBB1F4A95E2F78A2AA801072C02C0D0
:10534000440F551F0A94E2F79A0121503109821641
:10535000130629F5369EF001379EF00D1124E5560F
:10536000FB4F989ED001999EB00D1124A95ABB4FB6
:1053700012962D913C911397308727834482108297
:1053800011829287818715965C920E94D1088B8149
:105390009C8101969A8389838370898378CF148254
:1053A0006F5F7F4F3D969FCF1092050510920405C9
:1053B000109216018091990480939A040E94C0086B
:1053C0000DCFAAE1B0E0E7EEF9E20C943F354B8B4C
:1053D0005C8B6D8B7E8B8F8B692F988F192F81152E
:1053E00009F474C040E08B899C890E9431149C01AF
:1053F000111549F0109234059093330580933205CE
:10540000109253040AC0809132059091330582179F
:10541000930719F481E080933405188A198A1A8A4F
:1054200086E0FE017396DE011A9601900D928A9530
:10543000E1F78091310582FF21C080910A059091AA
:105440000B05892BD9F00E94130A20915504309145
:105450005604821B930B20910A0530910B0582178D
:10546000930738F08091540482FD03C082E00E94CB
:1054700066050E941F0A81110E948F058E85811585
:10548000D1F061E0CE010A960E944D1461E0CE0198
:105490000A960E944D1461E0CE010A960E944D14B6
:1054A0005C019F8480352CE79207A1F4911421F1CF
:1054B00081E0809316010A851B852C853D854E85EC
:1054C0005F85688979898A890CDEC9C0911509F4DC
:1054D000A4CF96CF81353CE7930721F4911461F076
:1054E00063DFE9CF82359C4739F4911429F080912C
:1054F00016018111F5CFDCCF87E5E82E84E0F82E88
:10550000812C612C712CD7012D913C91CC24CA9413
:10551000DD24DA9460E0862F90E0FC01EE0FFF1F9F
:10552000E20FF31F408151814115510539F0A41656
:10553000B50609F0C6016F5F6C01EDCFBFEFCB166A
:10554000DB0609F471C1F7013481458126813111EF
:1055500000C180911601811509F40EC1911409F45E
:105560000BC100911E0510911F05411114C081E06F
:1055700090E00C2C01C0880F0A94EAF7282B2683B0
:1055800080919704909198048017910720F41093CC
:1055900098040093970481E090E002C0880F991F5F
:1055A0006A95E2F70197D70116962C9128171906EC
:1055B00009F075C0C0900405D0900505C114D10450
:1055C00009F451C00E94130A8C199D090817190784
:1055D00008F049C081E0F7018483882ABFEF6B1A85
:1055E0007B0AE7E0EE0EF11CF8E06F16710409F09B
:1055F0008ACF911409F42AC1811409F417C10E94B9
:10560000130A909305058093040580910305883063
:1056100030F591E0980F9093030599E0FE013A96DA
:10562000DE01119601900D929A95E1F72DE0829F8F
:10563000C001112485569B4F29E0FE013196DC0103
:1056400001900D922A95E1F72FEF3FEFDC011A96BA
:105650003C932E9319971C96BC92AE921B976A9618
:10566000E2E10C945B3520919A0480919904922F89
:10567000E0E0F0E08701281314C090939A04EE153F
:10568000FF0569F090E0FC01EE0FFF1FE157FB4FB3
:105690007182608201968370992780939904892D85
:1056A0009CCF222E312CF101EE0FFF1FE157FB4F53
:1056B00060817181F7E0F69FD001F79FB00D112452
:1056C000A95ABB4F4D915C9111975A8F498F50E069
:1056D00030E040E0E42FF0E0EE0FFF1F698D7A8D9F
:1056E000E60FF71F4080518041145104B9F0F701D3
:1056F000C080D18030E005C04616570609F4592D08
:105700003F5FE32FF0E0EE0FFF1FEC0DFD1D60810A
:1057100071816115710581F74F5FDCCF5115B1F0D3
:10572000F801341708F0FD0131E03483EE15FF0570
:1057300009F4A3CF921305C0EA17FB0711F49F5F8A
:10574000937091012F5F3F4F237095CFE0E0F0E021
:10575000F8CF30E0411131C041E050E002C0440FC9
:10576000551F6A95E2F7CA0101978217930799F4CA
:10577000C3010E94D1080FC030E041111EC041E0BA
:1057800050E002C0440F551F6A95E2F7415051099D
:105790004217530709F080E0E1E0F0E002C0EE0FAD
:1057A000FF1FCA94E2F76F01C094D70116969C912F
:1057B00016979C2116969C9310CFC9010C2C02C001
:1057C000959587950A94E2F7A90141505109242340
:1057D0003523232B39F580FF25C0D70112968D91F3
:1057E0009C91892BD1F087E0FE013196DF011D925B
:1057F0008A95E9F70E94130A9C018B839C8384E0BD
:105800008D83F70192818381792F98878987098118
:105810001A8144E05E816F8164DCD70115961C9289
:1058200081E0BACF8170B8CF80E0D7CE9091990453
:1058300080919A04981308C0D1DC1092050510924B
:1058400004050E94C00837CE0FDD35CE90919A0432
:1058500080919904981721F007DD811000CF2BCE9D
:10586000BDDC10920505109204050E94C008F5CF1A
:10587000A6E0B0E0EEE3FCE20C944D350E94130A82
:105880008C0180919C0290919D028017910771F08C
:1058900019821A820E94130ABC0149815A8180E050
:1058A00090E08FDD10939D0200939C022696E4E029
:1058B0000C946935A6E0B0E0E0E6FCE20C944F35CC
:1058C0009093990280939802811520E2920730F418
:1058D0000E940A0E2696E2E00C946B3580EF8983D5
:1058E0008A830E94130A8160BC0149815A8181E048
:1058F00091E067DDEFCFA6E0B0E0E1E8FCE20C94D8
:105900004F359093990280939802811520E2920777
:1059100030F40E946F0E2696E2E00C946B3580EF17
:1059200089838A830E94130A8160BC0149815A815C
:1059300081E090E046DDEFCFCF93DF93D82FC92FE2
:10594000B9DF80912605909127050E942D0C8D2F9F
:105950009C2FD1DFDF91CF9108950F931F93CF93A9
:10596000DF938C01862F6EEA73E00E948615892BE7
:1059700091F4C091AE03D091AF03209761F0F8018C
:105980008281833039F4CE01D7DFCE01D5DFCE015D
:10599000D3DF01C0E0F7DF91CF911F910F91089500
:1059A0000F931F93CF93DF938C01EB016EEA73E0AB
:1059B0008C2F0E948615892B09F057C0FE01FF2706
:1059C000D80112968C911297E559FD4F8130A9F4B8
:1059D00015968C9182FD4EC080FF4CC082E0808382
:1059E0008091B0039091B1030097B9F48091AE0318
:1059F0009091AF030097C9F110C08230A1F51596C0
:105A00008C9182FD26C080FD0AC083E08083809156
:105A1000B2039091B3030097F1F04CDF26C084E00D
:105A200080838091B4039091B5030097B1F7809182
:105A3000AE039091AF03009701F17EDF8091B00338
:105A40009091B103009749F78091AE039091AF0315
:105A5000E4CF85E080838091AE039091AF030097FF
:105A600021F06ADFF1CF86E08083DF91CF911F9133
:105A70000F91089581E08083B9CF8091B003909118
:105A8000B103B8CF0F931F93CF93DF938C01EB013A
:105A90006EEA73E08C2F0E948615892BA1F4809109
:105AA0002605909127050E942D0CDD27C559DD4F55
:105AB0008881F801128218828330E9F048F481303D
:105AC00059F0823081F0DF91CF911F910F910895AD
:105AD0008430B1F08530B9F78091AE039091AF0377
