:10000000B0C40000E6C40000E4C40000E2C4000084
:10001000E0C40000DEC40000DCC40000DAC400005C
:10002000D8C40000D6C400000C9483310C946B3209
:100030000C943831CEC40000CCC40000CAC4000007
:10004000C8C40000C6C40000C4C40000C2C400008C
:10005000C0C400000C945F31BCC40000BAC40000EE
:10006000B8C40000B6C40000B4C40000B2C40000AC
:10007000B0C40000AEC40000ACC40000AAC40000BC
:10008000A8C40000A6C40000A4C40000A2C40000CC
:10009000A0C400009EC400009CC400009AC40000DC
:1000A00098C4000096C4000094C4000005010980B3
:1000B000A101850319012AB700150126B700950192
:1000C00075108100C0050C0901A101850419012AE0
:1000D000A002150126A002950175108100C005013E
:1000E0000906A1018506050719E029E71500250184
:1000F0009508750181020507190029EF15002501F2
:1001000095F075018102050819012905950575010C
:100110009102950175039101C00660FF0961A1017B
:100120000962150026FF00952075088102096315F4
:100130000026FF00952075089102C005010906A15F
:1001400001050719E029E7150025019508750181CA
:10015000029501750881010507190029FF15002680
:10016000FF0095067508810005081901290515008D
:100170002501950575019102950175039101C00056
:10018000000000000000000000000000000000006F
:10019000000000000000000000000000000000005F
:1001A0000000007E0F00D4FFFFFFC70000007800B2
:1001B000000000000000002A2B28000000000000C2
:1001C0000000000000000000000029000000002CDA
:1001D0001E3420212224342627252E362D37382779
:1001E0001E1F202122232425263333362E37381F85
:1001F0000405060708090A0B0C0D0E0F1011121347
:100200001415161718191A1B1C1D2F3130232D35E4
:100210000405060708090A0B0C0D0E0F1011121326
:100220001415161718191A1B1C1D2F3130354C09BF
:10023000025B00030100A0FA0904000001030101B0
:100240000009211101000122440007058103080073
:10025000010904010002030000000921110100014D
:100260002222000705820320000107050303200066
:10027000010904020001030000000921110100012D
:10028000226D000705840320000112010002000016
:100290000008515360600100010203011C03760055
:1002A000690061006C003A006600360034006300AB
:1002B0003200620033006300000014035300360074
:1002C00030002D0058002D00520047004200000071
:1002D0001003530065006E0074007200610071002D
:1002E00000000403090429001E001F002000210053
:1002F0002200230024002500260027002D002E00C8
:10030000310035002B0014001A00080015001700FA
:100310001C0018000C00120013002F0030002A00EF
:100320000000E00004001600070009000A000B00AE
:100330000D000E000F003300340000002800000004
:10034000E10000001D001B0006001900050011005F
:1003500010003600370038000000E5002152E000B0
:10036000E300E2000000000000002C00000000009C
:100370000000E600E7006500E400000035003A00F8
:100380003B003C003D003E003F0040004100420079
:1003900043004400450049004C00390001000100C1
:1003A0000100010001000100010046004700480073
:1003B00052000100010000000100AA00A900A800ED
:1003C00001000100010001004A004B0050004F00F5
:1003D0000000010000000100010001000100010017
:1003E00001000100010001004D004E00510000001D
:1003F00001000100010001000100000000000000F8
:1004000001000000000000000100010001000100E7
:1004100000000100010001000100010001000100D5
:1004200001000100010001000100010001000100C4
:1004300001000100010001000100010001000100B4
:1004400001000100010001000100010000000100A5
:100450000100010001000100010001000100010094
:100460000100010001000100010000000100010085
:100470000100010001000100010001000100010074
:100480000100010000000100010001000100010065
:10049000000000000000010000000000000001005A
:1004A00001000100010000002223252628292A2C12
:1004B0002D2F3032333536383A3B3D3E40424345AE
:1004C00047494A4C4E5051535557595A5C5E6062E9
:1004D000646668696B6D6F71737577797B7D7F81F9
:1004E000838587898A8C8E90929496989A9C9E9FF9
:1004F000A1A3A5A7A8AAACAEAFB1B3B4B6B8B9BB17
:10050000BCBEBFC1C2C3C5C6C7C9CACBCCCDCED085
:10051000D1D2D2D3D4D5D6D7D7D8D9D9DADADBDB72
:10052000DBDCDCDCDCDCDDDDDDDDDCDCDCDCDCDB09
:10053000DBDBDADAD9D9D8D7D7D6D5D4D3D2D2D152
:10054000D0CECDCCCBCAC9C7C6C5C3C2C1BFBEBC45
:10055000BBB9B8B6B4B3B1AFAEACAAA8A7A5A3A1B6
:100560009F9E9C9A98969492908E8C8A8987858378
:10057000817F7D7B79777573716F6D6B6968666458
:1005800062605E5C5A5957555351504E4C4A494728
:10059000454342403E3D3B3A3836353332302F2DCD
:1005A0002C2A29282625232200010101010101010D
:1005B0000101020202020202020202030303030318
:1005C00003030304040404040404050505050506E7
:1005D00006060606070707070708080808090909A5
:1005E000090A0A0A0B0B0B0C0C0C0D0D0D0E0E0E4E
:1005F0000F0F0F10101111111212131314141515DF
:1006000016161717181819191A1A1B1B1C1D1D1E50
:100610001E1F2020212222232424252626272829A4
:10062000292A2B2C2D2D2E2F3031323233343536D2
:100630003738393A3B3C3D3E3F40414243444546D2
:100640004748494A4C4D4E4F5051535455565859AE
:100650005A5B5D5E5F616264656668696B6C6D6F55
:100660007072737577787A7B7D7E808283858788C8
:100670008A8C8E8F91939596989A9C9EA0A2A3A502
:10068000A7A9ABADAFB1B3B5B7BABCBEC0C2C4C603
:10069000C9CBCDCFD1D4D6D8DBDDDFE2E4E7E9EBBF
:1006A000EEF0F3F5F8FAFDFF643214783C1E1E14E8
:1006B0000A0501000100C903E7283B2900000200E8
:1006C0000200C503E7283B29000003000100CA031C
:1006D000E7283B29000004000200AF03E7283B297C
:1006E0001A0A05000100CB03E7283B290000060099
:1006F0000200B103E7283B29000007000200C703FE
:10070000E7283B29000012000200CD03E7283B291F
:10071000000013000200CF03E7283B29000014006B
:100720000100D103E7283B2900001500000000006C
:10073000230A4511000016000100CC03FE285329AE
:10074000000017000101CC03FE2853290000180007
:100750000102CC03FE285329000019000200D30334
:10076000E7283B2900001A000103CC03FE28532987
:1007700000001B000200D503E7283B290000FD37DD
:100780007A585A000004E6D6B44602002101160049
:100790000000742FE5A3E003A2012E5D003D8889CF
:1007A000C65436C3174FE4E619C230002C9B14BF61
:1007B000429D6DDCF2FCA6005EE47F987CC49E3E08
:1007C0007B915EEB3EF600CAF9FCAD0C8D58023011
:1007D0006278105FCF964F65301C5991122BBE5531
:1007E0003870EB77201D314A6784D8DBF7CD0BF8E2
:1007F00050C6C3DD5B4B67D326766C08A254112428
:1008000017D37CAFA62D4DD10AD3F4131AE96D6C22
:10081000CEDFDAA07D4C219386BBD8460CB0BE7EDD
:100820000E3FC16C2BE142F40E9D4D2B4ED71A5456
:100830001E9BDF49E9C31F6DC1DB129163A46A2AC5
:100840008CE859F5CFF7CB4F110CCCD9CDA615FDBF
:10085000C2B9AF27671AC23FCC5C111738F29702B2
:1008600039684638FB9718F48DBF61F3C3ED6C2EE1
:10087000E2DFF289278CD569C4F0D4836027FAB807
:1008800065106FCC28160BDF05D2E7D390CB363539
:10089000C418C17FCEC8416E2ACEB3C6805A54BE9A
:1008A000EEF3677B74309C0A295093E7FAE5428A9D
:1008B0002915D171034E4A5B30A667969EF062CF30
:1008C000D47014847E0EE837E5C9000000006E671E
:1008D0001318A5AA1FE50001CA02A3070000011A08
:1008E0007753B1C467FB020000000004595A4C4C16
:1008F0004C4C4C4C5252525252525252524C4C4C02
:100900004C4C4C5252525252525252004C4C4C4C43
:100910004C4C5252525252525252004C4C4C4C4C33
:100920004C4C52525252520052524C4C4C0000000D
:100930002A0000005252525200504F52514A4D4B21
:100940004E2A4C2F30B6B7ABACBBBCA9AABDBE0D6E
:100950000E0B0F1A050805090507181113040812D4
:100960000C0011241FBECFEFDAE0DEBFCDBF04B60E
:1009700003FE18C08091DC039091DD03A091DE039B
:10098000B091DF038730904BA740B04B59F41092E1
:10099000DC031092DD031092DE031092DF03E0E02F
:1009A000F8E3099511E0A0E0B1E0E8EAF8E602C05A
:1009B00005900D92AE3BB107D9F723E0AEEBB1E065
:1009C00001C01D92AC3DB207E1F70E94282B0C94A8
:1009D000F33316CB9C01FB019A9581159F4120F5BD
:1009E000D901AA27B270832F8170B901662774706C
:1009F000A9014427587034FF0DC08295807FAB2B2E
:100A000009F08062672B09F08064452B09F080684B
:100A100009950895AB2B09F08260672B09F084607B
:100A2000452BB1F38860F4CF80E0F2CF90E00C94D6
:100A3000CE32982F82958F70811511F0982F84E017
:100A4000292F26952695211511F08E5F922F9695C8
:100A500091118F5F0895282F92959F70963099F08D
:100A600060F4925F9F70923030F4203F89F038F448
:100A700081E0283E38F080E008959A5FF3CF81E06E
:100A8000243FC9F7089581E0283EE0F3213FF9CFE4
:100A900081E008958093510308958093520308954F
:100AA00021E030E001C0220F8A95EAF780915203DD
:100AB000822BF3CF21E030E0A90102C0440F551F83
:100AC0008A95E2F7CA018095909152038923E5CF78
:100AD000292F953098F58F3088F590E03FE0239FDF
:100AE000800D911D1124282F277041E001C0440F73
:100AF0002A95EAF723E0969587952A95E1F7FC0178
:100B0000EE0FFF1FE80FF91FED54FD4F20E030E01E
:100B100070E05191DF011197CB01022E02C0969532
:100B200087950A94E2F7817081958527842385272C
:100B30008C932F5F3F4F2330310559F70895292FAC
:100B4000953078F58F3068F590E03FE0239F800D79
:100B5000911D1124682F677023E0969587952A953B
:100B6000E1F7FC01EE0FFF1FE80FF91FED54FD4FF9
:100B700040E050E080E0219130E0062E02C0369542
:100B800027950A94E2F721703327042E01C0220F23
:100B90000A94EAF7822B4F5F5F4F4330510559F7B4
:100BA000089580E008959091520321E030E0F9012A
:100BB00001C0EE0F8A95EAF7D90102C0AA0FBB1F48
:100BC0006A95E2F7EA2B01C0220F4A95EAF7892FCE
:100BD0008E23E81303C0892F822B5FCF2095822FAD
:100BE0008923FBCF8091B20290E020E0022E001C0E
:100BF0000008281709060CF008952F5FF7CFFC01B5
:100C0000DB018481813031F514968C911497813009
:100C100009F591818FE0E081F0E0899FE00DF11D01
:100C20001124E251F74F94919A32A1F011962C9130
:100C30001197EC91F0E0829FE00DF11D1124E2513B
:100C4000F74FE49181E0EA3219F09E1301C080E091
:100C50008170089581E008959C01809153038D79FE
:100C6000811119C0211540E5340780F4211580E277
:100C70003807C0F42333310511F1D0F481E02E316F
:100C8000310590F42430310530F00895C9019655AE
:100C90008115914010F080E00895C901805F96456C
:100CA0000797C8F33327E6CF2C323105A1F7EDCFF4
:100CB0002653310981E02330310538F3ECCF81E050
:100CC000E4CF80915D0390915C03981301C0089577
:100CD0008F5F8770FACF9091570380958923809317
:100CE0005703282F2770211110C0891771F0909198
:100CF000D80392FF0AC0869586958695DBDE109212
:100D0000570310925903109258030895982F909505
:100D100080915303892380935303089580914F0357
:100D2000811531F010924F0310924E0310924D0333
:100D30000895803E9105D1F1C8F48133910509F4FD
:100D40007FC048F48932910509F46FC08A32910559
:100D500009F47DC0089589339105E1F08238910549
:100D6000C9F08533910509F45BC00895843E91056F
:100D7000D1F148F4823E910531F1833E910541F174
:100D800081EE90E00895863E9105C1F1873E910580
:100D9000E1F108952091D7032370211165C02091BE
:100DA000D80323FF14C089E290E008952091D7036F
:100DB00020FD43C03091D80330FF09C024FF4EC04E
:100DC00080E090E008952091D70322FDF7CF0895A9
:100DD0002091D70322FD45C03091D80330FD44C097
:100DE00024FFF5CFEDCF2091D80321FFF0CF8091E4
:100DF000D70384FDE5CF87EE90E008952091D703D7
:100E000023FFE5CF24FDDCCFF6CF2091D70323FDD0
:100E10002EC03091D80331FFE3CF84EE90E00895E7
:100E20002091D70325FFD3CFBECF2091D70325FD37
:100E300021C02091D80323FFCACF89E390E0089511
:100E40002091D70326FFC3CF8AE290E00895209136
:100E5000D70326FFBCCF81E390E0089583EE90E0B6
:100E6000089582EE90E0089580EE90E0089586EE79
:100E700090E0089585E390E0AACF9091D70392FF88
:100E800010C041E0282F2471243009F040E031E007
:100E9000282F2871283009F030E0431711F02CE09A
:100EA000822793FF10C041E0282F2471243109F0DC
:100EB00040E031E0282F2871283109F030E0431755
:100EC00011F02CE082273091D80330FF10C051E0A0
:100ED000282F2171213009F050E041E0282F28719E
:100EE000283009F040E0541711F029E0822731FF43
:100EF00010C041E0282F2171213109F040E031E09C
:100F0000282F2871283109F030E0431711F029E02B
:100F1000822794FD877E08951F93CF93DF9309DF87
:100F2000EC01811522E5920708F050C0811540E5DB
:100F3000940708F0D9C0803E9105F8F48D3C9105E6
:100F400008F0ABC0883A910580F4853A910508F025
:100F500096C08130910521F00497813A910550F4B3
:100F6000CE01DF91CF911F910895885A91094B9737
:100F700008F488C0C0E0D0E0F3CF811550E49507B5
:100F8000E8F4C11580E2D80708F0C7C0C83ED10513
:100F900038F3CE019A9581159F4160F78D2F6DDF53
:100FA000182FCE019927C5DE212F30E0322F2227BE
:100FB000E901CC27DF71C82BD92BD2CF9927B9DE15
:100FC000CC27DF70C82BD92BD06ACACF803842E536
:100FD0009407C8F5803652E5950708F067C0C0341D
:100FE00082E5D807B0F08C2F86958695877020E231
:100FF000829FC0011124C37021E030E0A90102C02A
:10100000440F551FCA95E2F7EA01C82BD92BDC68BB
:10101000A7CFC03252E5D50708F041C08C2F869586
:10102000869520E2829FC0011124C37021E030E048
:10103000A90102C0440F551FCA95E2F7EA01C82B67
:10104000D92BDD688DCF803C52E5950760F48F7118
:10105000C03AD24508F03FC090E0982F8827EC01B5
:10106000C46FD06A7DCF805C9245809708F082CFB4
:10107000DC2FCC27CC27DF71C06FD06A71CFA4974B
:10108000D0646ECFC85AD0E0CC0FDD1FCE5ADE4FF1
:101090000990D881C02DD46463CFD06561CFCF7162
:1010A000D0E0DC2FCC27C16FD06A5ACF86958695C9
:1010B000877020E2829FC0011124C37021E030E0DC
:1010C000A90102C0440F551FCA95E2F7EA01C82BD7
:1010D000D92BDA6845CFD1DEC82FD0E0DC2FCC2762
:1010E000CC27DF71D0623CCF8F71C7DE65E0D6952B
:1010F000C7956A95E1F7CF70D0E0DC2FCC27282F79
:1011000030E084FF06C054E0220F331F5A95E1F708
:101110003327C22BD32BD06923CF8D2F8F71ADDE18
:10112000182FCE01992705DE212F30E0322F2227FC
:1011300022273F71282B392BE901D4CF80E0089575
:10114000F894E82FE295EF70F0E041A18F7021E074
:1011500030E0B90102C0660F771F8A95E2F7CB0134
:10116000962F9095942391A392A1892B82A3789492
:1011700008950895A0E0B0E0E0ECF8E00C94F732B8
:10118000E82FF0E0E855FA4F711109C0E4918E2F75
:101190007E2F6E2FCDB7DEB7E8E00C941333262FE9
:1011A00030E0C72FD0E0F491EF2F86E0829F8001DE
:1011B000839F100D1124EE24EA94F12CC801B7018D
:1011C0000E94B432AB01220F331F65E5649FC0015A
:1011D000659F900D1124281B390B822F880F280F33
:1011E000C7018C1B9D0BF89FD001F99FB00D1124F6
:1011F0008B2F2C9FB0012D9F700D1124672F772707
:101200006701C61AD70AB601F69F6001F79FD00C96
:101210001124B701621B71099B012C9FB0012D9F06
:10122000700D3C9F700D1124672F77279701261BA7
:10123000370BF29FE001F39FD00D11247D2F433037
:101240005105C9F00C3F93E0190758F4413051059E
:10125000B1F04230510509F09CCFEB2F8D2F7F2F3D
:1012600098CF4430510571F04630510509F491CFC3
:101270007B2F8D2D8ECF7D2DEB2F8F2F8ACF7F2F24
:10128000ED2D87CFED2F7B2FF8CF80914403843055
:1012900028F4837084608093440308958C33E8F3CA
:1012A00083708863F8CFCF93DF938091440380FDF0
:1012B0000BC0C0E0D0E020E040E060E0CE013CD1D7
:1012C0002196CA30D105B9F7A1D4DF91CF91089505
:1012D000FF920F931F93CF93DF93182F062FF42EB7
:1012E0008091440380FF0CC0C0E0D0E02F2D402F40
:1012F000612FCE0121D12196CA30D105B9F7D3DFB4
:10130000CDB7DEB7E5E00C941633982F762F842FF7
:101310002091440320FF07C0692F2CDF962F672FF1
:10132000482F892FD5CF0895CF93DF93EC01E4E4C4
:10133000F3E0438162818C81E8DF8C818F5F8C8355
:10134000DF91CF910895CF93DF93EC01EC81F0E032
:10135000E855FB4F4491E4E4F3E062818181D5DFFD
:101360008C818F5F8C83DF91CF910895FF920F93D3
:101370001F93CF93DF93EC01F12C00E010E070910C
:1013800046036C816F0D80914703F4DE472F282FB1
:10139000C801D2D00F5F1F4F89E1F80E0A30110546
:1013A00071F781DF9A818C8190FF07C08F5F8C83FA
:1013B000CDB7DEB7E5E00C9416338150F8CFFB01D2
:1013C000811520E2920770F4811541E0940748F0FE
:1013D000392F94FF02C03295307F2081232B208348
:1013E000992708959C01305221153043C8F3089580
:1013F000462B22FF0FC0982F92959F708F70892BDC
:10140000962F92959F706F70692B942F92959F7075
:101410004F70492B982F9623961309C050E04095A2
:10142000509590E04823592381E0452B09F080E056
:10143000817008958091AF039091B00390930E0155
:1014400080930D010895A0E0B0E0E9E2FAE00C9489
:10145000F332FB018FEF9FEF4430510508F465C074
:101460004091D70341FB882780F990E0880F991FAE
:1014700042FBAA24A0F8B12CAA0CBB1CAA0CBB1CD2
:101480008A299B2940FB882480F8912C8829992956
:1014900043FBCC24C0F8D12C53E0CC0CDD1C5A9576
:1014A000E1F78C299D2944FBEE24E0F8F12C64E05F
:1014B000EE0CFF1C6A95E1F78E299F2945FB00275A
:1014C00000F910E075E0000F111F7A95E1F7802B0D
:1014D000912B46FB222720F9C22F20E0D22FA6E035
:1014E000CC0FDD1FAA95E1F78C2B9D2B47FB4427E2
:1014F00040F920E8429FA0011124842B952B2091D4
:10150000D803322F3170932B26952170B22FBB0F49
:10151000A0E08A2B9B2B092E000CAA0BBB0B80830F
:101520009183A283B38380E090E0CDB7DEB7ECE097
:101530000C940F33869A0895FC01EE0FFF1FE80FFD
:10154000F91FE85DFD4F6183408322830895AC015C
:1015500023E0969587952A95E1F78E719927FC01EE
:10156000E85FFD4F0190F081E02D4F70552721E09D
:1015700030E002C0220F331F4A95E2F7611541F0B7
:10158000E22BF32B885F9D4FDC01ED93FC930895D4
:1015900020953095E223F323F5CF0F931F93CF933C
:1015A00001E010E0082E01C0000F0A94EAF7C09194
:1015B0004C039C2F9023911115C090915703969541
:1015C00096959695891306C0109257031092590369
:1015D0001092580365DAC027C0934C03CF911F9136
:1015E0000F91089567DAF7CF90912803890290014F
:1015F000112437FF03C08093280308952F37310546
:101600001CF4980F9093280308959C01A0E0B0E08B
:101610008A2FA61710F080E00895F901EA0FFB1F4A
:10162000E4911196E413F4CF91E08927F901E80FD2
:10163000F11D84910895E0919802F09199023097FC
:1016400039F00190F081E02D309711F0099508955F
:1016500080E00895A3E0B0E0E0E3FBE00C94FD320D
:101660009C01809106029091070282179307B1F0C6
:101670003093070220930602E0919802F0919902BC
:10168000309761F00084F185E02D309739F083E0E8
:1016900089833B832A83CE01019609952396E2E054
:1016A0000C941933A3E0B0E0E8E5FBE00C94FD32C4
:1016B0009C01809104029091050282179307B1F07A
:1016C0003093050220930402E0919802F091990270
:1016D000309761F00084F185E02D309739F084E097
:1016E00089833B832A83CE01019609952396E2E004
:1016F0000C941933909113019130C1F49091D70358
:1017000097FF14C0E82FE695E695E695803FF8F43C
:10171000F0E0E853FE4F877021E030E001C0220F77
:101720008A95EAF78281822B82830895A2ECB1E048
:10173000EFEF90E02D91821751F0EF3F19F4211156
:1017400001C0E92F9F5F9630A9F7EF3F09F4089594
:101750000E2E000CFF0BE054FE4FE6CF90911301CC
:101760009130E1F49091D70397FF18C0E82FE695E8
:10177000E695E695803FF0F4F0E0E853FE4F877081
:1017800021E030E0A90102C0440F551F8A95E2F71D
:10179000CA0180959281892382830895E2ECF1E069
:1017A0009191891303C0DF0111971C9251E0E83C2D
:1017B000F507B1F708958091120108952FB7F894B5
:1017C0008091000290910102A0910202B091030267
:1017D0002FBF08958091B1039091B203892B89F0B6
:1017E000EDDF20914D0330914E03AC01421B530BB2
:1017F0009A0181E04091B1035091B203241735075B
:1018000008F480E081700895CF93DF93C091530373
:1018100080915603C82B80914F03811511F180915F
:10182000B1039091B203892B19F0D4DF811176DADC
:10183000D0914F03809113018130B9F48091D70387
:1018400087FF13C02AEC31E08DE190E0F90140817F
:101850002F5F3F4F41119F5F8150C0F791115EDABA
:10186000CD2B8C2FDF91CF91089522EC31E085E0D4
:10187000ECCF9091D80392FF0EC098E0899F900121
:101880001124622B609357030BD998DF909359036F
:1018900080935803089504C990914F03292F28235A
:1018A000211559F08095892380934F03811531F0DC
:1018B00085DF80934D0390934E03089580E090E080
:1018C000F8CFCF93C82F8091D80382FF0BC08091AF
:1018D0004F038C1739F072DF90934E0380934D03C2
:1018E000C0934F03CF9108952FB7F89460910002F1
:1018F0007091010280910202909103022FBF08951E
:101900000895FC019B018091F6019091F7018617E3
:10191000970740F0672B29F48091E8008E77809339
:10192000E800C90140E0009741F4411106C08091F0
:10193000E80082FF2FC080E00895209171022115F8
:10194000A9F12530A9F12091E80023FD2DC02091B7
:10195000E80022FDECCF2091E80020FFE4CF309199
:10196000F3002091F200009719F02830310558F06B
:1019700041E02830310509F040E02091E8002E7761
:101980002093E800D0CF41914093F10001972F5F61
:101990003F4FE9CF80917102811541F0853041F0D0
:1019A0008091E80083FFC3CF81E0089582E008952D
:1019B00083E008958091F00187FF13C08091E800D3
:1019C00082FF06C08091E8008B778093E80004C016
:1019D000809171028111F2CF089580917102811579
:1019E000D9F38091E80080FFF8CF8091E8008E77EE
:1019F000ECCF2091E4003091E50095E6A9018091BB
:101A0000EC008170811531F08091E80080FF06C004
:101A100080E008952091E80022FD1AC080917102B3
:101A2000811589F0853089F08091EB0085FD0FC02C
:101A30002091E4003091E5004217530701F39A9595
:101A4000E9F684E0089582E0089583E0089581E056
:101A50000895E8EDF0E080818E7F80831092E200AF
:101A60001092DA001092E100A0EEB0E08C9181605B
:101A70008C9380818F77808319BCA7EDB0E08C9127
:101A80008E7F8C9380818F7E80831092EF010895EA
:101A9000982FE42FE2709093E900891308C0762F05
:101AA000242F50E0E11111C091E0980FF4CF709114
:101AB000EC002091ED005091F00021FD06C09F5FE9
:101AC000973049F78093E90008953091EB003E7F0D
:101AD0003093EB003091ED003D7F3093ED0030917D
:101AE000EB0031603093EB007093EC002093ED003D
:101AF0005093F0002091EE0027FDE1CF0895A0E083
:101B0000B0E0E5E8FDE00C94F732C8EDD0E0888164
:101B10008F7E8883E7EDF0E080818160808384E0C0
:101B200082BF81E08093EF0188818E7F888302EEFF
:101B300010E0F80110821092DA0081EEC82ED12C4C
:101B4000F601108288818F778883888180688883F6
:101B500088818F7D888319BC109271021092EE01EA
:101B6000109252021092ED0190EEE92EF12CF70145
:101B700080818B7F808388818160888342E060E000
:101B800080E086DFF60180818E7F8083F80180818E
:101B900081608083808188608083F70180818E7F6F
:101BA0008083888180618883CDB7DEB7E8E00C94BC
:101BB0001333E0915D0390915C0329E0E91302C0C7
:101BC00080E00895AE2FB0E02E9FF0011124E25A7C
:101BD000FC4F3181361306C03081381303C0358184
:101BE000341304C0FD013196E770E8CF81E0089519
:101BF0009C012115310509F408958FE99FE00197B3
:101C0000F1F700C0000021503109F3CF31B33F7B21
:101C100021B320644FB7F89488E292E0FC0101966A
:101C2000508168E021BB000000C057FF31BB550F59
:101C3000000000C000C000C031BB00C06A9591F731
:101C400052E08634950751F74FBF8FE594E0019736
:101C5000F1F700C00000089581E08093E00080E289
:101C60008093D8001092C9008FE19EE40197F1F7AC
:101C700000C0000087E090EBDC018093DC039093D0
:101C8000DD03A093DE03B093DF0388E19CE00FB691
:101C9000F894A895809360000FBE90936000FFCFEA
:101CA0000F931F93CF93DF93EB018A019091710201
:101CB000943059F58093E9008FEF9091E80095FDFD
:101CC00006C095ED9A95F1F700008A95B1F78091DD
:101CD000E80085FF1AC08DDE811112C08091E800F6
:101CE00085FD06C08091E8008E778093E800F3CFF1
:101CF00088818093F1000150104011F02196EECFC1
:101D00008091E8008E778093E800DF91CF911F915A
:101D10000F910895792F603229F440E250E0682F46
:101D200082E0BECF0895CF93DF93D82FC92F48E02C
:101D300050E0682F792F81E0B3DF88E0ED2FFC2F92
:101D4000A8EFB1E001900D928A95E1F7DF91CF9174
:101D50000895BC0140E250E084E0A2CFBC0143E022
:101D600050E084E09DCFFC016081718184E090E0CF
:101D70000C94D8339091D80392FB222720F928178E
:101D800051F080FB92F99093D80387ED93E0EBDF5D
:101D900082E00C946B0608951F93CF93DF93962FE8
:101DA000122F632F8330D8F49530C8F44F30B8F435
:101DB000C42FD0E0CC0FDD1F2EE1929FC00DD11DAE
:101DC000112496E9899FC00DD11D1124CE01899659
:101DD0000E94BE33612FCE018A960E94BE33DF91EE
:101DE000CF911F91089580911301813061F5809109
:101DF000D70387FF28C008DD8093C90140E250E087
:101E000068E772E088EC91E00E947033892BD1F092
:101E100080E2E8ECF1E0A8E7B2E001900D928A954B
:101E2000E1F7E0919802F0919902309759F004801F
:101E3000F581E02D309731F086E08093C80188EC81
:101E400091E009950895E0DC8093C00148E050E0FE
:101E50006AE972E080EC91E00E947033892B91F383
:101E600088E0E0ECF1E0AAE9B2E001900D928A95F9
:101E7000E1F7E0919802F0919902309719F302800E
:101E8000F381E02D3097F1F280EC91E0DACF81150B
:101E900031F090915303892B80935303A4CF08957D
:101EA000811531F090915603892B809356039BCF77
:101EB0000895811519F00E94860695CF0895811521
:101EC00039F08095909156038923809356038BCFE8
:101ED0000895CF93C82F8115A1F08238A1F4ABDB10
:101EE00081FD0FC089E306DC7EDF2FEF37EE83E054
:101EF000215030408040E1F700C0000089E32EDC33
:101F000072DFCF910895833889F495DB80FDF9CF96
:101F100083E5F0DB68DF9FEF21EE34E09150204055
:101F20003040E1F700C0000083E5E9CF843889F450
:101F300082DB82FDE6CF87E4DDDB55DF8FEF91EEBC
:101F400024E0815090402040E1F700C0000087E489
:101F5000D6CF8CEF8C0F813A78F5809113018130C8
:101F6000F1F48091D70387FF1AC0EC2FE695E69530
:101F7000E695F0E0E853FE4F828190E04C2F4770E9
:101F800021E030E002C0220F331F4A95E2F782239E
:101F90009323892B71F08C2FE1DB25DF0AC0E2EC63
:101FA000F1E088EC91E02191C217A9F38E179F0709
:101FB000D1F78C2F9FDBA4CF80E28C0F883068F4A0
:101FC000C77081E090E001C0880FCA95EAF7C09120
:101FD0005303C82BC093530393CF8BE58C0F8330EF
:101FE00030F42C2F2452330BC90134DB8ACFC85A6A
:101FF000CB3108F086CFEC2FF0E0EE0FFF1FE85753
:10200000FE4F808191814EDB7CCFCF93DF93EC013B
:10201000805E9109089720F060E57FE0209711F439
:1020200067E47FE0CE010E94EA048C2F52DFDF914B
:10203000CF910895611529F02091560322602093D5
:1020400056039C0130522115304308F49927DDCF07
:10205000811509F43EC0823849F4EDDA81FF39C0B8
:1020600089E348DBC0DE89E379DBBDCE833841F408
:10207000E2DA80FF2EC083E53DDBB5DE83E5F4CFF9
:10208000843841F4D8DA82FF24C087E433DBABDE46
:1020900087E4EACF9CEF980F913A30F390E2980FE3
:1020A000983050F4877091E001C0990F8A95EAF753
:1020B000892F0E948606D9CF9BE5980F933018F49C
:1020C00080E090E0C7CA885A8B3118F480E090E035
:1020D000E9CA0895CF93DF93EC01BADFCE01805EA9
:1020E0009109089720F06FE57FE0209711F469E5EA
:1020F0007FE0CE010E94EA04DF91CF9108951F9303
:10210000CF93DF93182FEB01E4DE209731F4812F7A
:102110009FDFDF91CF911F9108958FE99FE0019795
:10212000F1F700C000002197F0CF6091CF037091CC
:10213000D003893321F06091CD037091CE03DFCFBE
:10214000EF92FF920F931F93CF93DF93C62FD42F5D
:10215000122F811599F06093400330DB9093EC01CE
:102160008093EB01C77081E001C0880FCA95EAF740
:102170008EDECDB7DEB7E6E00C94153380914003D8
:1021800068132EC0E090EB01F090EC0117DB8E1984
:102190009F09883C910520F5CD130AC0812FC5DF2A
:1021A000D77081E001C0880FDA95EAF782DEE1CFCF
:1021B000C77001E0802F01C0880FCA95EAF779DE69
:1021C00080E28D0F883048F48D2F877001C0000F9A
:1021D0008A95EAF7802F5BDEE1CF812FA6DFC9CF9A
:1021E000C77081E001C0880FCA95EAF7DFCF10926F
:1021F0005303809113018130A1F48091D70387FFAD
:1022000010C0EAECF1E08EE1DF011D928A95E9F75A
:1022100080E090E01FDA80E090E044DA109256030C
:10222000E2CDE2ECF1E086E0EFCFE1DF2FEF84E3F7
:102230009CE0215080409040E1F700C0000088E120
:102240009CE00FB6F894A895809360000FBE909321
:102250006000FFCFCF93DF93D82FC92F8091B202B8
:10226000883018F0C4DF1092B2022091B202E22F3F
:10227000F0E0EE0FFF1FEE55FD4FD083C1832F5FBF
:102280002093B202DF91CF910895CF92DF92EF9227
:10229000FF92FB018FEF9FEF4430510508F47BC0A4
:1022A000C080D180E280F380A2DFD701C601B6955D
:1022B000A795979587958170282F220FD701C60182
:1022C00081709927AA27BB27822BB701A60132E08C
:1022D00076956795579547953A95D1F74170440F94
:1022E000440F842BB701A601E3E0769567955795D7
:1022F0004795EA95D1F74170440F440F440F842B62
:10230000B701A601F4E07695679557954795FA953C
:10231000D1F741704295407F842BB701A601A5E01B
:102320007695679557954795AA95D1F7417042954F
:10233000440F407E842BB701A601B6E076956795E1
:1023400057954795BA95D1F741704295440F440F80
:10235000407C842BB701A60197E076956795579549
:1023600047959A95D1F7479544274795842B8093B5
:10237000D703D1FA882780F9880F9D2D9170892B7A
:102380009091D8039C7F892B8093D80387ED93E0AD
:10239000EADC80E090E0FF90EF90DF90CF9008952E
:1023A000AAE2B0E0E6EDF1E10C94FC3280EF91E0BE
:1023B000FC0101962091F100208321E0883F9207E3
:1023C000B9F78091F101893009F457C0C8F482301F
:1023D00009F4B2C0833009F482C0813081F1809168
:1023E000E80083FFE6C08091F0019091F1019A30FE
:1023F00008F0DFC0E92FF0E0EB50FC4C0C94C83241
:102400008A3009F489C08B3051F78091F001813214
:1024100031F78091F4019091F501892B01F78091BA
:10242000E800877F8093E800C5DA81E09091F201AF
:10243000911101C080E080931301D9DED0CF80914B
:10244000F001813A61F68091E800877F8093E8008F
:102450008091F4019091F501892B59F060E080E0C2
:1024600090E070E04EDA8091E8008B778093E8008E
:10247000B6CF68E088EF91E0F4CF8091F00181322F
:1024800009F0ADCF8091F4019091F5018D7F892BFA
:1024900009F0A5CF8091E800877F8093E8008091C4
:1024A000E80082FF17C09091F3008091F20002973C
:1024B00031F48091F100813011F0863021F4809167
:1024C000F100809312018091E8008B778093E800FF
:1024D00071DA85CF809171028111E1CF80CF809137
:1024E000F001813A09F07BCF8091F4019091F501E0
:1024F000892B09F074CF8091E800877F8093E800F2
:102500008091E80080FFFCCF809113018093F1005F
:102510008091E8008E77DACF8091F001813209F066
:102520005ECF8091E800877F8093E80043DA809156
:10253000F3018093110153CF8091F001813A09F0AA
:102540004ECF8091E800877F8093E8008091E8007B
:1025500080FFFCCF80911101D9CF803889F082387B
:1025600041F58091F4018F70873018F58093E90070
:102570008091EB0085FB882780F91092E90006C066
:102580008091ED0190915202911182609091E8004A
:10259000977F9093E8008093F1001092F100809172
:1025A000E8008E7723C0811116C08091F20181303E
:1025B00009F18091E80083FF0AC08091E800877FDD
:1025C0008093E8008091EB0080628093EB00AA96F4
:1025D000E3E00C941833823061F78091F2018115A9
:1025E00081F01092E9008091E800877F8093E800F5
:1025F000E1D9DFCF81E0933009F080E0809352028F
:10260000F0CF8091F4018F702FEF280F263088F6DD
:102610008093E9002091EB0020FFE3CF933031F469
:102620008091EB0080628093EB00DBCF9091EB0018
:1026300090619093EB0021E030E0A90102C0440FCB
:10264000551F8A95E2F74093EA001092EA008091C4
:10265000EB008860E8CF8111ACCF1091F2011F77B9
:102660008091E3008078812B8093E3008091E800E3
:10267000877F8093E8009ED98091E80080FFFCCF9F
:102680008091E30080688093E30083E0111101C032
:1026900082E0809371028DCF8058823008F089CF1C
:1026A0004091F2015091F3014C3D83E0580791F5C0
:1026B00083E08A838AE289834FB7F894DE01139618
:1026C00020E03EE051E2E32FF0E050935700849188
:1026D00020FF03C082958F703F5F8F708A30C0F0FB
:1026E000895C90E08D939D932F5F243161F74FBFFC
:1026F0008091E800877F8093E8006AE270E0CE0175
:102700000196FFD88091E8008B778093E80051CF45
:10271000805DE7CF8091F4019091F501252F33275B
:102720002330310509F44AC078F52130310509F428
:1027300083C08BE590E0EFE2F2E02230310509F052
:1027400038CF2091E800277F2093E8002091F60100
:102750003091F7018217930708F49C0140E021159E
:10276000310509F06EC041116CC08091E80082FD16
:10277000C9CF80917102811529F2853019F28091BB
:10278000E80083FFF2CFBECF2132310509F445C006
:102790002232310509F00DCF8330910508F009CFC1
:1027A000FC01EE0FFF1FED5DFE4F0190F081E02D6B
:1027B000805E9E4FDC018C9190E010C0CA01992789
:1027C000423019F18330910568F4892BB1F4E2EEBF
:1027D000F2E0E4918E2F90E0E2EEF2E0009709F44F
:1027E000E8CEAFCF039709F0E4CEECE9F2E0E49154
:1027F0008E2F90E0ECE9F2E0F1CFE0EDF2E0E49131
:102800008E2F90E0E0EDF2E0E9CFEAEBF2E0E49128
:102810008E2F90E0EAEBF2E0E1CF8330910508F0F3
:10282000C8CEFC01EE0FFF1FE75DFE4F0190F08167
:10283000E02D89E090E085CF82E190E0EAE8F2E0E7
:1028400080CF80917102811509F45CCF853009F445
:1028500059CF8091E80083FD55CF8091E80082FD3B
:1028600084CF8091E80080FF7ACF9091F30080912F
:10287000F2002115310519F08830910550F041E042
:10288000089709F040E08091E8008E778093E80097
:1028900066CF44914093F100319621503109019661
:1028A000E8CF803809F085CE8091E800877F80935B
:1028B000E8008091EE018093F10071CE811179CE14
:1028C0001091F201123008F074CE8091E800877FF9
:1028D0008093E8001093EE016DD81115D9F084E0D3
:1028E0008093710242E061EC81E0D2D842E261EC77
:1028F00084E0CED842E261EC82E0CAD842E260ECE9
:1029000083E0C6D880917102843051F482E08093D4
:1029100014014FCE8091E30087FDE1CF81E0E0CF4D
:1029200081E0F5CF80911501877F8093150190910B
:1029300056039D7F9093560384FF08C08F7E80933B
:102940001501809153038260809353038091150198
:1029500085FF08C08F7D80931501809153038062AD
:102960008093530340CACF92DF92FF920F931F933D
:10297000CF93DF93EC018B01F42E8091150182FF40
:1029800062C0C0903503D0903603CC16DD0619F036
:10299000209709F058C0809115018B7F8093150115
:1029A000C1E081FD10C08091330390913403980100
:1029B000281B390BC1E080910D0190910E01281761
:1029C000390708F4C0E0C17080911501C0FB81F99E
:1029D000809315016C2FC6010E94A70A80915303B2
:1029E00081FF08C08091150180618093150182E00C
:1029F0000E9486068091530385FF08C080911501CF
:102A000080628093150180E20E9486066C2FC601C9
:102A100011DBF11431F08091CA0385FF02C086FFFB
:102A200025C08091CD039091CE03E2D880913503EB
:102A3000909136039C0130522115304308F49927B8
:102A400049DB70DF0FC0CE01905281159043B0F486
:102A5000CE0199273FDB8091350390913603C8174B
:102A6000D90779F31093340300933303DF91CF91A7
:102A70001F910F91FF90DF90CF900895CE01EACF84
:102A80000F931F93CF93DF930FEA13E0CBEED1E0C8
:102A9000CE010E949D33F80161918F01681719F0F2
:102AA000CE010E94BE332196C331F2E0DF0781F7E9
:102AB000DF91CF911F910F9108950F931F93CF93A3
:102AC000DF930FEA13E0CBEED1E0CE010E949D33FD
:102AD000F80181938F012196C331F2E0DF07A9F756
:102AE000CCEBD6E0FE0185919591009711F0FC01A9
:102AF00009952C96F7E0C838DF07A1F7DF91CF9151
:102B00001F910F910895EFEAF3E0128E138E8FEA72
:102B100090E09183808385E0848F28E833E13383DC
:102B2000228322E330E0378B268B28EC30E0318F94
:102B3000208F158E35A324A3178E168E20E530E046
:102B400031A320A382A317A216A29ADF50DB109212
:102B5000D8031092D70380E084608093D80387ED78
:102B600093E001D9AACF0F931F93CF93DF938330C4
:102B700030F5653020F54F3010F5C42FD0E0CC0F84
:102B8000DD1F2EE1629FC00DD11D112436E9839F08
:102B9000C00DD11D1124CE0189960E949D33082FAE
:102BA00010E0102F0027CE018A960E949D339801D5
:102BB000282BC901DF91CF911F910F91089580E0DB
:102BC00090E0F8CF462F672F209174023091750264
:102BD000232B81F4703F39F4403F61F480917202FD
:102BE000909173020895753028F44F3018F48330B3
:102BF00008F4B9CF80E090E00895A0E0B0E0E3E011
:102C0000F6E10C94F8327C0100915203809151035B
:102C1000082BC2E0D0E010E0C8010C2E02C0959550
:102C200087950A94E2F780FD09C02197A8F7D12C77
:102C30008D2DCDB7DEB7E7E00C941433DC2EB70151
:102C40008C2FC0DF0E948C07019779F3F1CFCF93CF
:102C5000DF93D82FC92FD1DF6D2F7C2FB3DF0E94D8
:102C60008C07DF91CF910895FC018481811561F07B
:102C700087819085009721F00E948C070C942B058A
:102C800080819181E4DFFACF80E008951F93CF9394
:102C9000DF93182FD92F611589F0411579F0ADDF39
:102CA000C82F682F812F9D2F0E946805612F7D2FCF
:102CB0008C2F88DFDF91CF911F9108950E949F058F
:102CC000C82FF4CFFC01462F87819085009721F40F
:102CD000658180819181DACF0895382F292FCB012A
:102CE000A32FB22F8D3B21E09207A105B10520F45F
:102CF0008D5B9D4F0C949D3380E0089585E290E0BC
:102D00000E949D33803389F486E290E00E949D33D7
:102D1000833A59F487E290E00E949D3391E08F332B
:102D200009F090E0892F8170089580E0FCCFA0E049
:102D3000B0E0EDE9F6E10C94F632EC010881011502
:102D4000D9F0013009F03FC08981813021F48A81B6
:102D50002396EBD9F3CF823021F48A812396B9D818
:102D6000EDCF833021F48A81239672D9E7CF843066
:102D700041F022968111E2CFCDB7DEB7E9E00C94A5
:102D800012338A81239620E030E09AE0682F605366
:102D9000770BAB016A30710560F02115310551F3F5
:102DA000EFE9FFE03197F1F700C000002150310951
:102DB000F4CF929FB001939F700D11249A01260FBA
:102DC000371F8991E3CFE02FF0E0E155FE4FB4903B
:102DD000202F26952695269530E0F901E156FE4FE5
:102DE000C4900770D12C002E02C0D594C7940A94C9
:102DF000E2F7F1E0CF22DD24F901E157FE4FE49044
:102E0000F12C002E02C0F594E7940A94E2F761E0F9
:102E1000E622FF24F901E158FE4F1491C114D104B8
:102E200011F5E114F10471F086EE53D860E070E022
:102E30008B2D65D986EE0CD9C114D10439F081EE01
:102E400007D904C060E070E08B2D59D9E12FF0E084
:102E500002C0F595E7950A95E2F7E0FF02C08CE223
:102E600064D921966BCF81EE34D8E114F104E1F6F8
:102E700060E070E08B2D43D9E2CFA6E0B0E0E3E460
:102E8000F7E10C94F8320DED12E083E1E82E82E0D8
:102E9000F82E98E0D92E46E050E0B701CE01019619
:102EA0000E948D33F8018D2D11928A95E9F7B801B2
:102EB0006C5F7F4F89819A810E94DF09F8019183BD
:102EC0008083B8016B5F7F4F8B819C810E94DF09FB
:102ED000F801938382838D8186838E818783F6E0D8
:102EE000EF0EF11C085F1F4F83E4E81682E0F8063E
:102EF00091F62696E7E00C941433A6E0B0E0E3E800
:102F0000F7E10C94F232A0900F01B090100181E033
:102F100090E09093100180930F01812C912CE12C73
:102F20006401F12C15C0F80125913591472D6F2DC5
:102F30008E2D0E94CC0E0E5F1F4F73948FE078127F
:102F4000F2CFAFE0CA0ED11CF394B5E0FB1639F016
:102F50008601000F111F0A511D4F712CE4CFE3941D
:102F60008BE4880E911CA3E0EA12DACFCCDDFE01DF
:102F7000319686E0DF011D928A95E9F703E112E0C0
:102F80007F0146E050E0B801C7010E94DC330A5FD0
:102F90001F4F0334B2E01B07A1F7B0921001A092BB
:102FA0000F012696EDE00C940E330F93CF93DF9331
:102FB000C4E4D3E0488159816A817B8188E090E054
:102FC0000E94D033288139814A815B816C817D8167
:102FD0008E819F8100E20E943F33622F83E290E066
:102FE0000E94BE33DF91CF910F910895E4E4F3E0A6
:102FF00085E0808311828FEF828383831482CF01E7
:10300000D4CF80914803833018F48F5F80934803B6
:1030100084E493E0CACF80914803811519F0815070
:103020008093480384E493E0C0CF0F931F93CF9322
:10303000DF93D82F162FC42F022F8091440380FFD7
:1030400022C0E82FE695E695F0E0E15DFE4F908125
:10305000909342038C7F8430D9F46D2F712F842F8D
:103060000E94BA08962F672F482F892F0E9468095F
:10307000D093450310934603C0934703011519F0FD
:1030800084E493E092DFDF91CF911F910F91089537
:10309000923019F4C0914703EBCF963019F4D091D8
:1030A0004503E6CF993021F7FACFE4E4F3E08181DC
:1030B00021E043816281885FB8CFE4E4F3E081815D
:1030C00021E0438162818850B0CFE4E4F3E0628183
:1030D00028E0620F08F46FEF21E043818181A5CFE2
:1030E000E4E4F3E0628128E0621B08F460E021E0A0
:1030F000438181819ACFE4E4F3E0438128E0420FE9
:1031000008F44FEF21E0628181818FCFE4E4F3E0A6
:10311000438128E0421B08F440E021E06281818184
:1031200084CF9091440390FF2CC0811559F18F30CA
:1031300058F58F73880F880F909144039370892BF3
:1031400080934403611519F084E493E02EDF6091CD
:1031500044036695669570E041E050E080E091E0C0
:103160000E946333892B91F01092430381E0809396
:10317000610220E04091470360914603809145033E
:1031800054CF089581E0D6CF8EE0D4CF81E08093F4
:1031900043030E94DE0B90935F0280935E02E6CFB2
:1031A00080914403869586958F5F8F3008F081E08B
:1031B00061E0B7CF80914403869586958A9509F49E
:1031C0008EE061E0AECFABE0B0E0E9EEF8E10C9468
:1031D000ED328C01DC0114968C91811509F4B7C095
:1031E00060E0C8016FDD9C01F80186818031D8F074
:1031F0008581811109C02115F0E53F0708F07BC0EA
:10320000211540E2340758F13093D2022093D102C5
:10321000D80112968D919C9190935B0380935A03F1
:103220001092160123C090915D0380915C03981366
:103230001DC08091AB03811521F08091AC038031DA
:10324000A8F0D80115968C918111DECF2115B0E53B
:103250003B0708F050C02115E0E23E0738F4283E55
:10326000310508F03FC0203E310570F261E0C80131
:1032700029DD7C01F801858190913203911185C28D
:10328000811169C0F9E7EF16FCE7FF0609F448C0B1
:103290002AE7E2162CE7F20609F079C280913003A2
:1032A00090913103892B09F442C0F8018581811581
:1032B00039F08FEF0E94F40A80912803809327034E
:1032C00086E0F801A9E2B3E001900D928A95E1F75A
:1032D000809127038093320389E293E074DF109298
:1032E000320325C0C9019A9581159F4108F08CCF02
:1032F00021118ACFBBCF203E42E5340760F420384D
:1033000052E5350708F0B2CFC90180529245809747
:1033100008F07ACFABCFC90187579C470297F8CF07
:103320008091250390912603892B09F05EC080913E
:1033300057038770811559F0F8018581811539F09F
:103340008091D80382FF03C082E00E946B062B9617
:10335000E2E10C940933309153038091560320919C
:103360004F03E11440E5F40608F0BBC0E11450E25D
:10337000F50608F02AC1E11497E0F90609F4D4C073
:1033800008F04EC0A701405E51094830510508F4CD
:10339000CBC099E0F801AEE1B3E001900D929A95AF
:1033A000E1F7F0922603E092250310922803832B85
:1033B000822B80931D03B9E7EB16BCE7FB0609F0EF
:1033C0000FC181E00E94F40A80911D030E94500FFA
:1033D00089E0EEE1F3E0A4EDB2E001900D928A9570
:1033E000E1F7809128038093D30286E0F801A4EDF1
:1033F000B2E001900D928A95E1F78091D30280931B
:10340000320384ED92E0DFDE10923203D80115968C
:103410008C9181118CCF80911D030E945F0F87CF0B
:10342000E114BFE0FB0609F0B4CFC701975780381D
:10343000910508F0ACC1BE2CF0E1EF1608F077CF93
:103440006CEB71E080E090E048DC811170CFC12C22
:10345000D12C7601B110ADC164E0262EAE014F5FD4
:103460005F4F58874F83AF81B885E22D1D92EA9553
:10347000E9F746015701FFEF8F1A9F0AAF0ABF0A0B
:10348000C701B6012ADC8983811509F450CF813048
:1034900009F018C22601370122E0420E511C611CBE
:1034A000711CC501B40119DC382E8A83811509F419
:1034B0003ECF8FEF830D833008F08FC1C301B2017F
:1034C0000CDC8B83811519F0CE01019630DC4601AE
:1034D000570133E0830E911CA11CB11C75016401DE
:1034E000C2CFE0EEEE16E2E5FE0658F4F0E6EF1687
:1034F000F2E5FF0608F04BC1A701525540345105D3
:1035000046CFA70147575C474530510508F041CFEA
:10351000E9E7EE16ECE7FE0609F45AC0FAE7EF1603
:10352000FCE7FF0609F462C08091CA0380FFCFC2A6
:103530000E94DE0B5C01D80115968C91811509F46F
:1035400028C28091150182FF05C040E0B50180E0EE
:1035500090E009DAB4E1EB16BCE7FB0609F4C9C157
:10356000E5E1EE16ECE7FE0609F4B0C1D8011596C8
:103570008C91B3E1EB16BCE7FB0609F0CAC1909150
:103580001501916090931501811509F40FC21092F5
:1035900036031092350310924003C701905783976A
:1035A00008F0E0C384E090E00E94AA339093D8032F
:1035B0008093D703F701E150F047E232F10508F0BC
:1035C00019C3E150FC4C0C94C83296819031DFCE87
:1035D0008091250390912603892B09F0F2CEA7CE86
:1035E000BAE7EB16BCE7FB0609F01FCFA090250356
:1035F000B0902603E0911D03E987E983BE016F5F68
:103600007F4FC5010E94DF092C01F981FB87EDED99
:10361000CE2EE2E0DE2EEE24E394F12C22242A9436
:10362000D60117963C90179733FE54C06D907C904E
:10363000119712968D909C90139746145704B9F4E5
:103640001496BC91BA87232DF60146816B2F8B858A
:103650000E94F809811559F08A850E9416052816DE
:1036600034F4D60115969C917401F92A282E481439
:103670005904C9F431FE17C0F601F581FA87232DEC
:10368000D60116964C916F2F8B850E94F8098115F3
:1036900051F08A850E94160528162CF4F6019481B3
:1036A0007301F92A282E30FE15C0FFEF2F1212C029
:1036B00021E0E216F10471F4232DD60116964C9107
:1036C00060E08B850E94F809811521F0F601858163
:1036D0007401F82AF8E0CF0ED11C2DE133E02C154F
:1036E0003D0509F09DCF31E0E316F104F1F5998530
:1036F00092959F704985942B9F7081E0403108F42A
:1037000080E0F82EF29470EFF722F92AA11450E22B
:10371000B50620F5A11481E0B80610F0FB28BB2403
:10372000EA2C8F2D8D704A2D811559F16AE087E5BD
:1037300099E00E94050B282F30E02115310551F446
:103740004E2D66E189E399E00E94050B282F30E0B9
:10375000811549F0F901FF297F0107C0C501905289
:1037600081159043E0F2E12CF12C87E0E9E2F3E0EF
:10377000DF011D928A95E9F7F0923103E092300360
:103780008DCD68E08FE499E0D4CF81114ECE809149
:10379000CA0380FDCDCED80115968C91F701E85172
:1037A000FC47E730F10508F092C1EF5DFB4C0C944B
:1037B000C8322DEBC21621E0D206E104F10409F46F
:1037C000B6CDC701B60189DA3FEFC31AD30AE30ABF
:1037D000F30A8111EECFBA943DCE8BEF830D833087
:1037E000E0F54601570143E0840E911CA11CB11C79
:1037F000C301B20172DA8B83811509F46FCEC50162
:10380000B4016BDA8C83811108C04601570154E082
:10381000850E911CA11CB11C61CEAB80BC8081E0E7
:10382000A8168FEFB80610F0BA2CAA2496E0391625
:1038300081F0A7E03A1649F0C5010E94A5288091C1
:10384000CD039091CE030E94F80DC5010E94C628B9
:10385000DCCFC5010E94A528D8CFB4E053014201B6
:103860003B123CCEC301B20138DA782E4601570133
:10387000E4E08E0E911CA11CB11CC701B6016D5F66
:103880007F4F8F4F9F4F29DA711409F450CD811566
:1038900009F44DCD8150990B4FEF489F9001499FFE
:1038A000300D1124472D4150550B240F351F215049
:1038B000310908F413CE8FE99FE00197F1F700C0BA
:1038C0000000F5CFCE01019632DA08CE90911501B5
:1038D000892F8E7F90FF81608093150123D880917E
:1038E000150180FF83C1F8018581811509F4EFC0BE
:1038F00030C0809115018E7F8093150113D880917F
:10390000150180FDF0CFF8018581811509F44EC0C5
:1039100042CE970130522115304300F1D80115965F
:103920008C919091150190FF36CFE8E2EE16F104EC
:1039300008F06CC0FEE1EF16F10408F0BDC097017D
:10394000245031092A31310508F48CC0811509F45D
:103950006DC01092360310923503B9C01092360331
:1039600010923503811511F110924003F801858101
:10397000811509F45BC0809153038272F701E05214
:10398000F847EB30F10508F072C2E85DFB4C0C948F
:10399000C832B1EEEB16F10411F5809115018F7E5E
:1039A00080931501F80185818111E0CFC701805E08
:1039B0009245809710F55E2D5F7181E090E0DC010B
:1039C00002C0AA0FBB1F5A95E2F77D016A2F83E060
:1039D00090E00E94BE338E2D0E944A05A8CCF5EEE1
:1039E000EF16F10461F4809115018F7D809315012C
:1039F000D80115968C918111B9CF90E044C2C701CE
:103A000090528115904308F089CFF7CF29E3E21651
:103A1000F104E0F43DE2E316F10408F052C04BE299
:103A2000E416F10409F44DC08111B1CD81E0F7E74E
:103A3000EF16FCE7FF0639F082E028E7E2162CE7F4
:103A4000F20609F0B3CF0E945A053DC254E6E516CE
:103A5000F104B9F1811509F49ECE1092360310924B
:103A6000350399CE9091CA0394FD70CF811509F466
:103A70009AC09091530380914F03D82ED92A2D2DAF
:103A80002D7F2115A9F11092360310923503209154
:103A9000CA0321FD2DC060E0C7010E94A70A60E0B3
:103AA000C7010E941A1080914F038D7F0E94610C04
:103AB00082E00E946B063BCC9091CA0393FD46CFF7
:103AC000D5CF9091CA0392FFD1CF8111C6CFF80113
:103AD0008581811110924003D80115969C91911116
:103AE0005CCDB6E1EB16BCE7FB0609F09FCF41C108
:103AF00029E0F801A7E3B3E001900D922A95E1F7E0
:103B000010923A0310923903809035039090360357
:103B1000E814F90491F52091CA0325FF2EC0C09046
:103B20001501C1FACC24C0F8C11411F026FF25C03C
:103B30002091330330913403D501A21BB30BA83C71
:103B4000B105D8F491FF08C0809115018061809380
:103B5000150182E00E9486068091530385FF08C00C
:103B60008091150180628093150180E20E94860693
:103B70006C2DC4010E941A10DACB8D7F0E94610C5B
:103B8000F0923603E0923503B0923403A0923303EF
:103B90008D2D8270846090911501997FD82ED92A3D
:103BA000D092150185CF40E0B501C7010E94B31442
:103BB000BECB26E241EE61EE0E94A010B8CB27E218
:103BC00045EE65EEF9CF26E241EE60EEF5CF27E255
:103BD00045EE64EEF1CF26E241EE62EEEDCF27E254
:103BE00045EE66EEE9CF28E241E0EBCFD80115962D
:103BF0008C918BCE8091D70381608093D70387ED22
:103C000093E00E94B30E0E94F71091CB8091D803ED
:103C100088608093D803F3CF8091D7038260EDCF83
:103C20008091D7038460E9CF8091D7038860E5CF86
:103C30008091D8038160EDCF8091D8038260E9CF75
:103C40008091D7038061D9CF8091D7038062D5CF8F
:103C50008091D7038064D1CF0E94F7108091D70361
:103C60008068CBCF8091D7038C60C7CF8091D80379
:103C70008360CFCF8091D7038E7FBFCF8091D80351
:103C8000877FC7CF8091D7038D7FB7CF8091D70330
:103C90008B7FB3CF8091D703877FAFCF8091D8033D
:103CA0008E7FB7CF8091D8038D7FB3CF8091D7031C
:103CB0008F7EA3CF8091D7038F7D9FCF8091D70335
:103CC0008F7B9BCF0E94F7108091D7038F7795CF82
:103CD0008091D703837F91CF8091D8038C7F99CF38
:103CE0008091D70382FB992790F921E0922790FBDE
:103CF00082F990FB83F981CF8091D803982F90951A
:103D000090FB80F990FB81F984CF9091D703892FA4
:103D10008F7B96FF806471CF0E94F7109091D7033C
:103D2000892F97FB87F9805868CF61E08EE090E09B
:103D30000E94BE3364CF60E0F9CF9091D703892F02
:103D40008F7E94FF806159CF9091D703892F8E7F0A
:103D500090FF816052CF9091D803892F877F93FF86
:103D6000886057CFB6E1EB16BCE7FB0609F0FECD45
:103D700091E0809153033091C90330FF04C0282F94
:103D8000247421111CC0282F2A7A31FF04C0482F27
:103D90004171411120E0432F487032FF12C0382F8B
:103DA0003878311571F041111FC0911114C0809104
:103DB00041038115D9F085E30E94AE0B12C020E0CB
:103DC000E4CF411519F082728111EFCF911579F38B
:103DD00085E3211102C090E089E2909341030E94A3
:103DE0007A0B0E94F30EA3CA20E0EDCF89E2E4CF64
:103DF0008091440380FF0BC08E7F8093440384E452
:103E000093E0D3D8109243030E94530990CA816073
:103E10008093440361E08695869583D988CA81158D
:103E200021F0C8D984CA8115E1F3BAD980CA8115B5
:103E300021F043D97CCA8115E1F337D978CA8115BD
:103E400021F04ED974CA8115E1F33FD970CA8115AA
:103E500021F05CD96CCA8115E1F34DD968CA81158E
:103E600021F0D9D864CA8115E1F3CBD860CA37E70D
:103E7000E3163CE7F30621F182E048E7E4164CE75D
:103E8000F406F9F091E040914C0380915203282F01
:103E900030E02095309570E024233723232B19F050
:103EA000482340934C03BBE7EB16BCE7FB0689F4C1
:103EB000911509F43CCA0E9419050E94CD0A37CA1F
:103EC00081E00E94500543E062E081E00E94D3055A
:103ED0002ECAE0E4EE16E2E5FE0608F09DC0F0E230
:103EE000EF16F2E5FF0608F0C6C0E11420E5F20681
:103EF00008F473C0970130552115324008F4D1C041
:103F0000D80117968D919C91009709F408C10E94E1
:103F10008C07D82EF92E86E0F801DE01119601906B
:103F20000D928A95E1F7D8011596BC9015971696D3
:103F3000CC90C2942FE0C2228091570387708115E4
:103F400009F1AB2CB114F9F0892F807F803469F02E
:103F500080E28D0D8830B0F0892F807E803229F488
:103F6000B2E0DB1678F0C11469F08091D80382FFCB
:103F700009C082E00E946B06809157038770AA24D3
:103F8000A3948111A12C8F2D82958F70883009F414
:103F90003AC208F0EFC0843008F0D9C0EF2DEF70BE
:103FA000EE2E823008F4F7C08F2D807F803219F01A
:103FB000E29480EFE822D11409F427C131E0D3164E
:103FC00009F4D3C1B11409F4E8C1C11409F4E0C182
:103FD0008D2D0E94690F8D2D51C1E11450E4F5061D
:103FE00008F48ECFD80116968C91803108F088CFD6
:103FF000911186CF2F2D2F7081E090E002C0880FA5
:10400000991F2A95E2F720914C0330E082239323F5
:10401000892B09F475CF8BC99701205C324520327A
:10402000310548F1911509F46BCFBAE5EB16BCE701
:10403000FB0609F470C008F051C0F1E0EF16FCE790
:10404000FF0609F466C023E0E2162CE7F20609F445
:104050005AC0E1143CE7F30609F052CF0E94F71072
:104060008FEF94E3ACE081509040A040E1F700C0B6
:1040700000000E942C0E8E2D8F7120914C0330E099
:1040800041E050E0082E02C0440F551F0A94E2F7A9
:1040900024233523232B09F433CF911509F447C981
:1040A0000CCF970145E0369527954A95E1F7822F89
:1040B0008F7020914C0330E041E050E0082E02C0A8
:1040C000440F551F0A94E2F724233523232B09F4C8
:1040D00017CF9111F2CE1092530383CE4BE5E41625
:1040E0004CE7F406D1F05CE5E5165CE7F50609F06F
:1040F00007CF8091D80382FB882780F991E0892738
:104100000E94BA0EFDCE6FEF7FEF80E090E00E943C
:10411000D8330E94151181E0F3CF80E0F1CFF80190
:104120008581C080D180811569F0C6010E94FD158E
:10413000F82E682FC6010E946805B6018F2D0E94D7
:10414000E215E5CEC6010E949F05F82EF6CF843019
:1041500009F43CC18D2D9F2D0E942B05811509F47A
:1041600092C0B11409F4F0C0C11409F474C01092E3
:10417000DB0389C0893009F4CCC18A5F8F7082303B
:1041800048F7F2EFDF12D8C18F2D8F71B110D1C176
:104190000E94500566C120E1F21618F0E29490EFFB
:1041A000E922B114C9F0E11469F080E28D0D883084
:1041B00010F0D1100BC0809153038E2980935303CC
:1041C0000E94F30E8D2D0E94690FC4CF809156037B
:1041D0008E2980935603F4CF8D2D0E942810E11470
:1041E00009F4B8CF80E28D0D883010F0D11004C0F2
:1041F0008E2D0E94860606C0E094809156038E2183
:10420000809356030E94F30EA5CF8091D80382FDC0
:1042100014C0B11459F0E11439F0809153038E2980
:10422000809353030E94F30E80E0CDCF80E00E9484
:104230002810E11409F48ECFDBCFB11409F45DC06E
:10424000C11012C08E2D0E94470F80E09F2D0E944A
:104250002B058115C1F08091550380935403809103
:104260005303809355030FC041E0C41230C0D09077
:104270004F038E2D8D21E81220C080E09F2D0E94DB
:104280002B05811174CFA11409F4FCC08091570350
:1042900080FDF8C0D80115961C9286958695869566
:1042A0000E945005C8010E94E3188091570386952B
:1042B000869586950E945A05E5C00E94DE0B909374
:1042C0004E0380934D03DE28D0924F03D6CF8091CA
:1042D000CB03823090F2C812D0CF8E2D0E94470FB0
:1042E0008E2D0E944C0C809150039E2D9823E91630
:1042F00021F28E2980935003C0CFC11011C08E2DA2
:104300000E94590F8E2D0E944C0C809150039E2DBF
:104310009823911549F0E094E822E092500304C0FC
:104320008091CB03823010F480E008C051E0C512C8
:10433000FBCF809153038E218111E1CF9F2D0E94ED
:104340002B05811509F49FCF40E060E089819A81B7
:104350000E9446169C01F0905303C11409F48AC1CF
:104360001092DB03F09255038ECF8091D103B114EC
:1043700041F08C1510F481E081CF8E2D0E94470F03
:10438000E9CEC81608F0E6CE8E2D0E94590FE2CE77
:104390008E2D0E94470F8D2D59CFC11499F089E3BE
:1043A000D8120BC08091CF039091D0030E94F80DDA
:1043B0008D2D0E9428108D2DC1CF8091CD0390911D
:1043C000CE03F4CF8E2D0E94590FF5CF8F2D8695F9
:1043D00086958370811569F0813009F0BBCE8D2DF3
:1043E0009F2D9370B11002C080E090E00E94520BAC
:1043F000B1CE8D2D9F2D9370B11002C080E090E062
:104400000E942A0BA7CE8F2D8370811149C0B11055
:1044100028C04D2D429546954770440F440F8D2D71
:104420008F70042E01C0880F0A94EAF72D2D207199
:10443000211539F02FE030E001C0220F4A95EAF74C
:1044400020953F2D369536953370323021F133303B
:1044500001F1409151033130D9F0822B84230E9425
:104460004A050E941B0B8D2D9F2D0E942B05811547
:1044700049F0AB2CB11409F467CFC11409F4F1C0B1
:104480001092DB0360E0C8010E9462160C94A71929
:10449000842B822BE4CF822B909151038927DFCF8D
:1044A000B11459F1F0FEDDCF4D2D42954695477080
:1044B000440F440F8D2D8F70042E01C0880F0A9475
:1044C000EAF72D2D2071211539F02FE030E001C0E1
:1044D000220F4A95EAF720953F2D36953695337091
:1044E000323091F0333071F040915203313049F065
:1044F000822B84230E944D05B4CF823008F4B1CFC3
:10450000D3CF842B822BF6CF822B90915203892715
:10451000F1CF9F2D9F70E92EB11439F0892F0E94A1
:1045200050058D2D0E94470F9CCF8D2D0E94590F55
:104530008E2D0E945A0595CFA3EFDA1680F4B0EFC6
:10454000DB16E9F0E1EFDE16F1F1B11409F47AC0FF
:10455000C11409F474C08D2D0E94690F82CFF3EF4E
:10456000DF1609F124EFD21651F1B110F1CFC114C9
:1045700009F440C08091CD039091CE036CC080912E
:10458000D103B11461F0C81608F06BCF2F2D2F7135
:1045900081E090E001C0880F2A95EAF7B6CF8C152C
:1045A00008F45FCFF3CF80E0B11409F4A3CF81E02A
:1045B0009F2D9F7101C0880F9A95EAF79BCF80913C
:1045C000D80382FD06C08F2D8F71B11409F4B1CFCD
:1045D000DFCD8091CB03823038F1B114B9F09091E6
:1045E00057039770943049F410925703109259036F
:1045F000109258038F2D8F719CCFC81608F031CFC1
:1046000063E08F2D8F710E94390C2BCFC81640F0BC
:1046100010925703109259031092580364E0F1CF9F
:1046200081E00E946B061DCFB110EACF81E00E94AD
:104630006B0632E0C31608F414CF82E0F2CF8F2D60
:104640008F71A6CDC114B1F249E38091CF0390914F
:10465000D003D4128FCF0E94F80D8D2D0E94281008
:1046600000CF80915503809354038091530380932E
:10467000550308CF8091D9039091DA0328173907A1
:1046800009F070CE8091CC0382FF6ACE8091DB036B
:10469000811509F465CE809154030E94470F8D2D3A
:1046A0000E949510809154030E94590F59CE809119
:1046B000AC03803178F48091AB03811559F0E0911F
:1046C0005D0320915C033091A7034091A60359E05C
:1046D0002E1301C008956E2F70E05E9FF00111242B
:1046E000DF01A25ABC4F14968C911497811559F191
:1046F00011968C911197831326C08C91841323C03B
:1047000015968C91159781111EC012968D919C91D2
:10471000A091A803B091A9038A1B9B0B883C91052B
:1047200090F48091AC038F7080618093AC03EC595E
:10473000FC4F80818F708061808386EA93E00E94C5
:10474000E3180C946106FB013196E770C1CFA0E03D
:10475000B0E0EDEAF3E20C94F632D82EC92E89E0EF
:10476000B82EC0915D0380915C03C817C9F10C2F6E
:1047700010E0BC9EE0011124CE01825A9C4F7C01C6
:10478000FC018581811581F0C7010E9434168115D5
:1047900059F0CC59DC4F88818F7080618883F70194
:1047A000808191810E942A11C7010E94E318209103
:1047B0005D0330E02F5F3F4F2770332720935D0369
:1047C000B09EF001B19EF00D1124E25AFC4F8181A0
:1047D0008C11C7CF80818D11C4CF8581811509F2DD
:1047E000CDB7DEB7E9E00C941233EF92FF920F934E
:1047F0001F93CF93DF93EC01EA80FB802091160199
:10480000211539F010E0812FCDB7DEB7E6E00C942A
:104810001533E61AF70A24EFE21621E0F20690F7C4
:1048200060E0CE010E9462169C0130522115304397
:1048300048F70091D1021091D2020E942C068115F6
:1048400009F3C8010E942C06182F8115D9F2809116
:10485000D5039091D603853F21E0920710F084EFB5
:1048600091E0E816F90670F68E818F7080618E8374
:10487000888199810E942A110E94F205CE010E942E
:10488000E318C1CFAFE0B0E0E8E4F4E20C94F0321A
:104890008C0186E0F801DE011A9601900D928A954E
:1048A000E1F7D8018C9011969C9011971296ED909B
:1048B000FC9013971496CC9014971596DC90B090BA
:1048C000AA03D11014C05091B202252F30E0E0E0CD
:1048D0008E2F0E2E000C990B821793077CF0B110CF
:1048E00057C0C11441F0C8010E94E31804C0B110C0
:1048F0004FC0C11035C0FF24F394A1C0880F991F89
:104900008E559D4FDC0111964C911197941203C066
:104910008C91881511F0EF5FDBCFEF3F01F3D801E9
:1049200016968C9116978F70806116968C93E5176A
:10493000A0F4AFEFA50FA093B202EA1770F4F0E075
:10494000EE0FFF1FEE55FD4FB0E0AA0FBB1FAE5597
:10495000BD4F8D919C91918380830E94F205BFCFC2
:10496000C8010E943416811509F4BDCF60915A0325
:1049700070915B03C80139DF8111BDCF89E0F80177
:10498000A6EAB3E001900D928A95E1F790DEB3CFED
:1049900060E086EA93E00E9462169C0156EAA52E2A
:1049A00053E0B52E7090AB038091A8039091A903BA
:1049B000711409F464C2F701E81BF90BE83CF10536
:1049C00008F013C2C11409F496CF8091A703D8014F
:1049D00011969C91C090AC03B0E1CB1608F0C6C113
:1049E0009813A6C09091A603F80180819813A0C0E7
:1049F000D11046C08C2D8F7080618093AC03C501AF
:104A00000E94E3188091AC03D80116968C93F09025
:104A1000A803E090A90349E0D42E00915D038091A2
:104A20005C03081749F0D09E80011124025A1C4FE4
:104A3000F8018581811108C00E946106F12C8F2D3B
:104A40002F96EFE00C940C33B280C380C8010E9413
:104A5000341681110EC0C8010E94E31880915D03D5
:104A600090E001968770992780935D03FB2CEC2CD6
:104A7000D4CF6F2D7E2DC801B8DE8111EFCFDCCFF2
:104A800030522115304308F4DCC08091AC038160C2
:104A90008093AC038091CC0381FFD0CF86EA93E072
:104AA0000E94E31800915D0380915C03081709F4EC
:104AB00055C1E02EF12CB9E00B9F80011124025A60
:104AC0001C4FC8010E943416811509F447C189E0C2
:104AD000F801A6EAB3E001900D928A95E1F7EFEFB5
:104AE000EE1AFE0AF7E0EF22FF24E0925D030E9437
:104AF000610689E0F82E00915D0380915C03081740
:104B000009F49ACFF09E80011124025A1C4FC8016B
:104B10000E943416811190CFC8010E94E318809141
:104B20005D0390E001968770992780935D03E3CF42
:104B300030522115304308F0B8C0D11082C040E097
:104B4000692D882D0E94D90D81114FC040E0692D3B
:104B5000882D0E94D90DF82E811509F4D3C08091BB
:104B6000CC0380FF6BCF86EA93E00E94E31860E0FD
:104B700086EA93E00E9462168C01D0905D0398E073
:104B8000C92E26EA822E23E0922E39E0532E809100
:104B90005C03D81699F0AD2CB12C5D9CC00111249A
:104BA000FC01E25AFC4F7F0160E0CF010E946216D7
:104BB0003C01D70115968C9181117AC0B8E0CB16D3
:104BC00028F419E080915D038C118CC08A859B8547
:104BD000BEDD0E94F2050E94610689E0E6EAF3E08C
:104BE000DF011D928A95E9F729CF60E0C8010E9494
:104BF00062168091CC0383FFA9CFB80186EA93E0C7
:104C00000E94FF058111A2CF8091AC038F7080615B
:104C10008093AC038091A6039091A7030E942A1170
:104C200086EA93E00E94E318E6EAF3E089E0DF0118
:104C30001D928A95E9F78A859B8589DD0E94F20598
:104C4000FBCE8091AC0381608093AC0360E0C8012F
:104C50000E9462168091CC0383FF1CCFB80186EAC4
:104C600093E00E94FF05811115CFF090AC03E8940A
:104C7000F0F8F092AC03C8010E9434168111DECE28
:104C80008F2D8F7080618093AC038091A6039091EB
:104C9000A7030E942A110E94F20586EA93E00E946F
:104CA000E318E6EAF3E089E09BCFD110EECE4ECFD9
:104CB00010520115E0E31E0708F080CF8091CC036D
:104CC00083FD09C0CD2CC5010196F82FF770DF2EAA
:104CD000830147015CCFB701C4010E94FF05811524
:104CE00091F3F0CF189FC0011124825A9C4F0E946B
:104CF000E31880915D0390E0019687709927809377
:104D00005D0360CF8A859B850E942716292F2295F7
:104D10002F70903450F49F70223080F0911599F0EC
:104D2000F8019681903178F48ACE2A5F2F70223074
:104D300078F0C8010E94E318F72C81CE911519F084
:104D4000811509F47CCE805E883008F478CEF1CFEE
:104D5000803F08F474CE815F8330F7CF89E0E6EAC4
:104D6000F3E0DF011D928A95E9F7C3CE981335C0B1
:104D70009091A603F801808198132FC0D1100DC027
:104D8000C682C8010E94E31889E0F801A6EAB3E0F0
:104D900001900D928A95E1F7AECDC8010E943416BC
:104DA000811509F4A0CD8091AC03803208F4E6CDE2
:104DB0001E821F82188619868091A6039091A703F0
:104DC0009A838983FC82EB828091AA038D83CF82B0
:104DD000CE0101960E94E318D1CDC8010E9434167D
:104DE000811509F480CDD114DCCF9090AC03F0E1B3
:104DF0009F1638F486EA93E00E94E31889E0D50113
:104E0000F0CEC11409F477CD9091A703F801818108
:104E100098132DC09091A6038081981328C0D110BB
:104E20000AC09682C8010E94E31889E0D5011D924C
:104E30008A95E9F760CDC8010E943416811509F4FE
:104E400052CD8091AC03803208F498CD1E821F822F
:104E5000188619868091A6039091A7039A83898367
:104E6000FC82EB828091AA038D839F82B1CFC8011F
:104E70000E943416811509F436CDD114E0CFE81A1A
:104E8000F90AB8ECEB16F10408F051C0C11409F4AA
:104E900032CDD11409F427CD9091A703F801818177
:104EA00098132CC09091A6038081981327C060E0CE
:104EB00086EA93E00E9462168091D3039091D40316
:104EC000E816F90608F060CF8091AC0380FD5CCF56
:104ED000803108F459CFD80116968C931697807FAD
:104EE000803F09F44ECF16968C911697982F907F9D
:104EF000905F8F70892B16968C9343CFC8010E94C8
:104F00003416811571F060915A0370915B03C801EA
:104F10006CDC811509F432CD89E0E6EAF3E0DF01CB
:104F200086CF8091AC0381608093AC03DCCC89E0B8
:104F3000F50111928A95E9F781CDA1E2B0E0E3EAAB
:104F4000F7E20C94FC324C8F5D8F6E8F7F8F88A3BD
:104F5000692F99A3192F811509F49FC040E08C8D0A
:104F60009D8D0E9446169C01111549F01092DB039D
:104F70009093DA038093D903109256030AC080916C
:104F8000D9039091DA038217930719F481E0809393
:104F9000DB03198E1A8E1B8E86E0FE017C96DE01E5
:104FA000539601900D928A95E1F78091D80382FF84
:104FB00021C08091B1039091B203892BD9F00E9456
:104FC000DE0B2091580330915903821B930B2091E3
:104FD000B1033091B2038217930738F080915703E1
:104FE00082FD03C082E00E946B060E94EA0B8111E1
:104FF0000E948E068F89811551F061E0CE014396A3
:105000000E94621661E0CE0143960E94621689E01A
:10501000FE017396DE011A9601900D928A95E1F7D2
:10502000CE010A962FDC811110C089E0FE013A966C
:10503000DE01119601900D928A95E1F720915C03B3
:1050400040915D038E8581112CC019E080915D0334
:1050500090915C03891741F0189FC0011124825A76
:105060009C4F10DC811146C08E85811112C0809149
:10507000160181110EC08C859D8520915A033091B7
:105080005B03821B930B8F3F9F4318F081E080935B
:105090001601A196E3E00C941833911509F479CF29
:1050A0006BCF30E0C9010196877099274817190620
:1050B00071F40E94F71010925C0310925D0389E076
:1050C000E6EAF3E0DF011D928A95E9F7BECF99E0A9
:1050D000929FD001939FB00D1124A25ABC4FFE01A4
:1050E000319601900D929A95E1F780935C030E94AE
:1050F0006106ABCF80915D0390E0019687709927A0
:1051000080935D03A3CFA6E0B0E0E9E8F8E20C9459
:10511000FB320E94DE0B8C01809176029091770227
:105120008017910771F019821A820E94DE0BBC0170
:1051300049815A8180E090E000DF1093770200936C
:1051400076022696E4E00C941733A6E0B0E0EBEA92
:10515000F8E20C94FD3290937302809372028115F1
:1051600020E2920730F40E9405102696E2E00C94AB
:10517000193380EF89838A830E94DE0B8160BC0132
:1051800049815A8181E091E0D8DEEFCFA6E0B0E01E
:10519000ECECF8E20C94FD3290937302809372026F
:1051A000811520E2920730F40E946A102696E2E010
:1051B0000C94193380EF89838A830E94DE0B81600F
:1051C000BC0149815A8181E090E0B7DEEFCF9C01BC
:1051D000CB01BA01F9013296E4914E2F50E06E17DF
:1051E000710548F0F9013496659175910E947D33FF
:1051F00080E090E008958FEF9FEF0895A4E0B0E085
:10520000E4E0F9E20C94FA328B01FC013396F4905D
:1052100019821A821B821C82452B31F48FEF9FEF7B
:105220002496E5E00C94163344E050E0BE016F5F35
:105230007F4FCDDF97FDF2CF81E090E00F2C02C0D1
:10524000880F991F0A94E2F7092E000CAA0BBB0BDA
:1052500049815A816B817C8184239523A623B723BE
:1052600021E0892B8A2B8B2B09F420E0F801208385
:1052700080E090E0D5CF9C01CA01F9013296E4911B
:105280004E2F50E08E17910558F0F9013496859114
:1052900095910E947D330E94401580E090E0089532
:1052A0008FEF9FEF0895A4E0B0E0E9E5F9E20C94F8
:1052B000F6327C016B01CA01F7013396B490198272
:1052C0001A821B821C82892B31F48FEF9FEF249668
:1052D000E9E00C94123344E050E0BE016F5F7F4F71
:1052E000C70175DF97FDF1CF81E090E00B2C02C084
:1052F000880F991F0A94E2F780959095092E000C6B
:10530000AA0BBB0B49815A816B817C818423952335
:10531000A623B723F6012081022F017010E00B2C89
:1053200002C0000F111F0A94E2F7012E000C220B9D
:10533000330B802B912BA22BB32B89839A83AB83C6
:10534000BC8344E050E0BE016F5F7F4FC70193DF35
:10535000BECFAAE0B0E0EFEAF9E20C94F132FE0130
:1053600031968AE0DF011D928A95E9F79EE3A92E26
:1053700091E0B92E8F0123E4E22E21E0F22E3F01CD
:10538000CC24C394D12CF50181915F018F3F09F4A6
:1053900047C0F894E82FE295EF70F0E021A18F70FC
:1053A000A60102C0440F551F8A95E2F7CA01922F49
:1053B000982B91A392A18095892382A3789400C011
:1053C000E3E4F1E021E030E0812C912C41914F3F6A
:1053D00009F44AC0A42FA295AF70A05EB0E08C91F2
:1053E00090E04F7002C0959587954A95E2F78170DD
:1053F00081113AC0C901882A992A220F331F51E02E
:10540000E235F50719F7F501319780818F3F11F0EB
:105410000E94A00880EA8A95F1F7D8018D929C92AB
:105420000E5F1F4FEA14FB0409F0ADCF4AE050E0D5
:10543000B30186E492E00E947033892BC1F08AE0C8
:10544000F301A6E4B2E001900D928A95E1F781E0C4
:105450008093EA010E94DE0B9093E9018093E801BA
:105460002A96EEE00C940D3380E090E0C4CF80915A
:10547000EA018115A9F30091E8011091E9010E9468
:10548000DE0B801B910B059758F34AE050E066E471
:1054900072E087E692E00E947033892B49F08AE03F
:1054A000E6E4F2E0A7E6B2E001900D928A95E1F71A
:1054B0001092EA01D5CF4F925F926F927F92AF9296
:1054C000BF92CF92DF92EF92FF920F931F93CF93F1
:1054D000DF93CDB7DEB760970FB6F894DEBF0FBE8F
:1054E000CDBF1A821982FE0133968EE0DF011D9234
:1054F0008A95E9F70CE110E093E4A92E92E0B92E29
:105500002DEB422E55245394612C712C73016201B2
:10551000B1E14B165104610471041CF080E1C82E06
:10552000D12CA601B501CE0101960E94AF33AC0C7F
:10553000BD1C0D2C000CEE08FF084C185D086E0811
:105540007F080150104011F760960FB6F894DEBF47
:105550000FBECDBFDF91CF911F910F91FF90EF90C4
:10556000DF90CF90BF90AF907F906F905F904F9003
:1055700008956FEF85E290E00E94BE336FEF86E200
:1055800090E00E94BE336FEF87E290E00E94BE334E
:1055900060E088E290E00E94BE330E947D178BDFBE
:1055A00060E385E290E00E94BE3363EA86E290E029
:1055B0000E94BE336FE387E290E00C94BE338F927B
:1055C0009F92AF92BF92CF92DF92EF92FF920F9392
:1055D000CF93DF9388E090E00E94A5334B015C01FC
:1055E000C12CD12C7601C4E4D3E068839982AA82CD
:1055F000BB821C821D821E821F8283E290E00E9479
:105600009D33282F30E040E050E060E070E080E023
:1056100090E000E20E942433282939294A295B2995
:105620006C297D298E299F29288339834A835B83AE
:105630006C837D838E839F83DF91CF910F91FF9049
:10564000EF90DF90CF90BF90AF909F908F90089594
:10565000CDB7DEB7A8970FB6F894DEBF0FBECDBFAB
:1056600085B7806885BF85B7806885BF84B7877F29
:1056700084BF0FB6F894A8958091600088618093EC
:105680006000109260000FBE80E890E00FB6F894C2
:1056900080936100909361000FBE81E080931401BC
:1056A0008EE998E09093BF018093BE010E943D1760
:1056B0000E945D150E94290D0E947F0D8091E200DD
:1056C00084608093E200789480917102811599F052
:1056D0008091E9001091EC001795112717958F70B4
:1056E000182B1092E9008091E80083FD0E94D011F0
:1056F0001F701093E90082E084BD93E095BD9AEF9E
:1057000097BD80936E000E947E16811101C031DF2B
:105710000EE311E0D8018D918D018F3F11F00E94B1
:10572000A008B1E003341B07A9F703E411E0F80176
:1057300081918F018F3F11F00E94A008F1E00235A6
:105740001F07A9F78AE0E7E6F2E0DF01282F1D92A4
:105750002A95E9F7E6E4F2E0DF011D928A95E9F780
:1057600080E090E0F7D7833E9E4F21F40E947E16A2
:10577000811127C063EE7EEF80E090E00E94D83375
:1057800060E082E090E0FAD781E08093510361E02D
:1057900083E090E0F3D7198284E18A83CE010196F9
:1057A0000E94B30E0E94F617E4DE40E050E0BA011A
:1057B0008FE090E0F5D740E050E0BA0183E190E05F
:1057C000EFD782E090E0B9D78093530284E090E075
:1057D000C1D79093D8038093D703BBDDEFEFF6E7F3
:1057E00021E0E150F0402040E1F700C00000B1DDD1
:1057F0008091670280FF07C06FEF7FEF80E090E04D
:10580000D7D70E942C0E83E090E097D70E944A05DC
:105810008091500281111EC084E493E0D0DE80911B
:105820004403843028F40E94F61784E493E0C7DE32
:105830000E944509109243030E949A0A80914403F2
:1058400080FF05C060E0869586950E94911881E0F2
:105850008093500281E091E09093990280939802A6
:105860000EE5202E02E0302E8091710210E485308A
:1058700009F48AC06EDD14E5812E12E0912E07E650
:1058800012E0D801F401219131918D919D912E1654
:105890003F0609F483C028173907A9F3B7E6AB2EF2
:1058A000B2E0BB2E512CD501ED90FD905D01F401CD
:1058B000619071904F016E147F0459F16E247F2422
:1058C000412CCC24C394D12CC3018C219D21892B44
:1058D000B1F049825A820E94DE0B9C838B83F1E0F7
:1058E000FD8391E097012C213D21232B09F490E0C9
:1058F0009E8349815A816B817C818D811EDB43941B
:10590000CC0CDD1C2FE04212DFCFF4013297F18284
:10591000E082539435E05312C6CF0E94740C43C00A
:1059200080917102843019F11092510288E190E067
:105930000FB6F894A895809360000FBE1093600096
:1059400083B7817F846083BF83B7816083BF78948E
:10595000889583B78E7F83BF0FB6F894A895809102
:105960006000886180936000109260000FBEF1DCDF
:10597000E7E6F2E081919191892B09F05CC4A1E7FF
:10598000B2E0AE17BF07B1F780917102853009F41C
:10599000C7CF0E94F7100E941B0B6CCF2817390746
:1059A00009F07CCFB0DB8091CA0380FF1CC08091DE
:1059B000150182FF18C00E94DE0BBC0180913303E9
:1059C000909134039B01281B390B80910D0190911C
:1059D0000E012817390738F041E080913503909186
:1059E00036030E94B314809143038115D9F180914D
:1059F0004203E0914403E695E695E81BE0936002DC
:105A0000823009F04FC0F0E0E255F94FE491EE2EFC
:105A1000F12CE3EACE2EE9E0DE2E809161028115C1
:105A200061F0109261020E94DE0B90935F028093FE
:105A30005E0210926302109262020E94DE0B2091BD
:105A40005E0230915F02821B930B8F3F9F4750F4A1
:105A50002E0D3F1D30935F0220935E028EE592E093
:105A6000F60109950E941B0B90916402891721F0A1
:105A7000809364020E94740C80917102843009F05A
:105A8000F3CE83E08093E9008091E80082FFECCEC2
:105A90008091E80085FD2AC08091E8008B77809393
:105AA000E800E2CE863059F4F0E0E555F94FE49194
:105AB000EE2EF12C74E9C72E79E0D72EAECF40ED53
:105AC000E42E47E0F42E59EBC52E58E0D52E893050
:105AD00009F0A3CFE695F0E0E855F94FE491EE2EFA
